:020000040800F2
:10000000600F0020E10000085F0700085D0700089E
:1000100000000000000000000000000000000000E0
:10002000000000000000000000000000B107000810
:100030000000000000000000AF070008D90700081A
:100040000D0100080D0100080D0100080D01000858
:100050000D0100080D0100080D0100080D01000848
:10006000000000000D0100080D0100080D0100084E
:100070000D0100080D0100080D010008000000003E
:100080000D0100080D010008000000000D0100082E
:100090000D0100080D0100080D0100080D01000808
:1000A0000D0100080D0100080D010008E10800081D
:1000B0000D0100080000000000000000000000002A
:1000C0000D010008000000000D01000803488546EE
:1000D00000F06CF800480047AD230008600F0020D6
:1000E0000B4802680B480240120C92020A4940F287
:1000F000000001C1121F002AFBD1084880470848B0
:100100000047FEE7FEE7FEE7FEE7FEE7FEE700004A
:10011000E0F7FF1F0000FFFF00000020F5070008C8
:10012000CD0000080549064A08685043054A801872
:1001300008604008704701490860704700000020CF
:100140006D4EC6413930000003460B439B0703D078
:1001500009E008C9121F08C0042AFAD203E00B788C
:100160000370401C491C521EF9D27047D2B201E004
:100170000270401C491EFBD270470022F6E710B502
:1001800013460A4604461946FFF7F0FF204610BD05
:1001900030B504460020034600E05B1C934203D2C6
:1001A000E05CCD5C401BF8D030BD0000064C012562
:1001B000064E05E0E36807CC2B430C3C984710340F
:1001C000B442F7D3FFF786FFCC360008EC360008C0
:1001D000F0B58B4EA9B100220B4B144603E0641C12
:1001E0008C422E460ED0055D7540164604E03D4615
:1001F000771C072E3E46F2D26F08ED07F7D05F401E
:10020000F5E73546A8B2F0BD01A0000080B5142086
:1002100000F078F903210140032903D014200321C1
:1002200000F06CFA80BD0000F0B58BB0002700280C
:1002300000D1B5E0002900D1B2E0069005910A2076
:100240008025294600F05AFA0E2000F0E4F80D2629
:1002500000273046394600F05CFA092493212046F5
:1002600000F057FA2021204600F053FA01240C2117
:10027000204600F04EFA3046294600F03FFAC826E4
:100280000425300407D0761E284600F03BF980068E
:10029000800FF6D000E0E84E0D2000F0BCF83004EE
:1002A0007AD0062000F02EF91B26304274D10A20A5
:1002B00000F028F905284BD103960027092630467F
:1002C00000F020F909A9C8557F1C052FF7D109AE08
:1002D0003278777802975740B1784F40F3785F4093
:1002E000367904200490B74235D1882A36D1069A4F
:1002F00093705170029810700A208026314600F0E9
:10030000FDF90E2000F087F80D20029000273946F5
:1003100000F0FFF909249521204600F0FAF9202188
:10032000204600F0F6F901200C21019000F0F1F9CF
:100330000298314600F0E2F9C824039E20041CD044
:10034000641E042000F0DEF88006800FF6D015E071
:1003500000272A461DE00027049A1AE00998069A09
:100360001070010ED170010C9170000A50700420C1
:1003700005990870274600220BE0DF4C0D2000F0A5
:100380004AF8200404D0062000F0BCF830420BD01C
:10039000049A2A43042A06D10E20802100F0AEF9E7
:1003A000F8B20BB0F0BDFBE70A2000F0ABF805286F
:1003B000049AEED100260924204600F0A3F807A9EC
:1003C0008855761C052EF7D107A90A784B78184670
:1003D00050408C786040CE787040097988420AD1CC
:1003E000069FBE717C713B71FA700722059B1A70E3
:1003F0000022019F01E0002704228842BBD0C8E709
:10040000FFFF000080B5372000F07CF8FF2800D007
:1004100000B9002080BD10B5044600F073F87F21BC
:100420000140204600F075F910BD000080B582B093
:1004300001200F2100F06DF9104801900198411E34
:1004400001910028FAD12A208D2100F062F92B2099
:100450003E2100F05EF92C20012100F05AF92D20F8
:10046000E02100F056F92620702100F052F9FFF744
:10047000CDFE03480021017002B080BD50C30000D2
:100480003A040020B0B584B01C4603460020BAB13F
:10049000B4B101AD69702B70A81C062311461A4631
:1004A000FFF752FEE078E872A078A8726078687270
:1004B000207828720C2100222846134601F02AFCDD
:1004C00004B0B0BD70B588B0C1B10C4607AB587070
:1004D0003020187001AE00253570022102AA18469E
:1004E000334601F017FC50B13078122807D102A929
:1004F00010222046FFF728FE012500E000252846AF
:1005000008B070BDB0B5044600F038FC01F0FAFE4A
:10051000502001F0CDFE01F023FF10B10024012591
:1005200016E0204601F0C4FE01F01AFF0024012568
:1005300060B901F0E7FE512001F0BAFE01F010FFB2
:1005400020B90025284601F06FFE044601F0F4FEB4
:10055000284601F057FE2046B0BDF0B58DB000240E
:10056000D8B113460A46C1B1BBB10546602004218B
:10057000FFF788FF88B1002401AE2746381DC0B2BE
:100580003146FFF79FFF40B17F1C1036032FF5D196
:1005900001A8294600F026FB012420460DB0F0BD3D
:1005A000F0B581B000900A208027394600F0A6F807
:1005B00004263046FFF72FFF0D240721204600F0C8
:1005C000A8F80920262100F0A4F801250C212846CE
:1005D00000F09FF82046394600F090F8C824464FB6
:1005E000200407D0641E3046FFF78CFF8006800F82
:1005F000F6D000E03C460D20FFF70DFF002620045A
:1006000017D00620FFF77EFF1B21084211D10A20D8
:10061000FFF778FF02280CD109242046FFF772FF6C
:1006200006462046FFF76EFF310208180099088041
:100630002E46304601B0F0BDFFFF0000F0B581B09E
:100640000026002854D00D46002951D004460A2027
:10065000802100F053F80D200026314600F059F8B3
:1006600009279321384600F054F87021384600F0ED
:1006700050F8A15D384600F04CF8761CB542F8D130
:10068000042D09D1207861784140A0784840E17874
:100690004140092000F03DF801240C21204600F0E3
:1006A00038F80D20802100F029F8C827124E0425C3
:1006B000380407D07F1E2846FFF724FF8006800FEE
:1006C000F6D000E037460D20FFF7A5FE00263804DF
:1006D0000ED00620FFF716FF1B21084208D10A2082
:1006E000FFF710FF012803D10920FFF70BFF264673
:1006F000304601B0F0BDC046FFFF0000B0B50C466B
:100700000546FFF7FFFE04432846214600F001F8A6
:10071000B0BD70B50D46064600F030FB01F0F2FDAD
:10072000502001F0C5FD012401F01AFE90B93046B9
:1007300001F0BEFD01F014FE10B101F0FDFD09E075
:10074000284601F0B5FD01F00BFE0446401E844131
:1007500001F0F2FD204601F055FD70BDFEE740F2CC
:10076000001002F0C7F8012800D1FEE7FEE770B5DF
:100770001C46DA7098705A205870A520187004260C
:1007800041B13AB1231D00200D5C1D54401C824232
:10079000FAD1061DB5B220462946FFF719FD711C96
:1007A00089B26054000A6055B01C80B270BDFEE78B
:1007B000FEE7000010B5401E010E01D0012010BD63
:1007C000044C6060032000F0BDF80020A060072109
:1007D000216010BD10E000E0D6480168491C0160AE
:1007E0000348016811B10168491E01607047C046A5
:1007F0001C02002070B582B0354E341F20680125E0
:100800002843206020688007FCD530680C21014017
:1008100008292BD130680090F02000998143009185
:100820008021009A0A4300920099316000210191D1
:10083000019A7F2A05D8019A521C0192019A802AB6
:10084000F9D332680092009A824300929020009A75
:100850000243009200983060019101987F2805D8EA
:100860000198401C019001988028F9D30320C043CF
:1008700031680140316000F071F82068154901408D
:1008800021603068144901403160306813490140EB
:100890003160B06A0F218843B062F06A40F2031100
:1008A0008843F0622804F16A8143F162E807F16A43
:1008B0008143F162306BA84330630024746002F01E
:1008C0009DF8E806214601F005FE02B070BDC04665
:1008D00004100240FFFFF2FE0C00FF08FFFFC2778A
:1008E00080B502F031F980BD002807D41F210140F6
:1008F00001228A4040098000014942507047C046A9
:1009000000E100E0002805D40322034693430C4A8B
:100910009A1806E00F220240083A03239A43074B35
:10092000D2188007C00E8901C9B28140FF238340DD
:1009300010689843084310607047C0461CED00E003
:1009400000E400E0FF210906034A13688B43800797
:10095000181810607047C04620ED00E081B00020FC
:1009600000900098C0087C2807D840F2E830009931
:10097000491C009100998142F9D301B070470000F1
:10098000B0B582B06C46204602F0C6F801200822BD
:10099000934D21462B46FFF7EAFE044628462146A2
:1009A00002F0ACF80020411CC0B284420846FAD8DC
:1009B00002B0B0BD70B582B001A900260E7000F083
:1009C00097FF10B901A801210170022001A901229D
:1009D000834D2B46FFF7CBFE04462846214602F006
:1009E0008DF8701CF1B28C420646FAD802B070BD88
:1009F00080B530B10178022904D0012901D14078B5
:100A000038B180BD41781029FBD1801CFFF7D2FF9F
:100A100080BDFFF7B5FF80BD80B501F0E1FD48481E
:100A20000021017045480170464801604160018124
:100A300000F0A4F900F02EFA00F0A0F980BDC04645
:100A4000F0B5AFB02EA8002505802AA8057038485B
:100A5000026838490B689A1AC82A66D30968016087
:100A600035480078002860D02EA8FFF799FD38B3EC
:100A700000F084F92BA82AA9FFF7D6FB002854D050
:100A80002AA801782BA8FFF7D9FD00284DD02B48C4
:100A9000017801291ED12AA90978294A12789142A0
:100AA00018D1002941D0274A2BAB2C4616781F7845
:100AB000B7420FD1641C5B1C521C8C42F6D334E04D
:100AC0001E480178012930D11D4900220A700270A8
:100AD0002FB0F0BD012101702AA8027818480270D9
:100AE00018482BA9FFF730FB00F0DEFEE8B126A87E
:100AF00000F0E4FEC8B91CA826A92BAAFFF72DFD1B
:100B000098B100F03BF91CA812AC214601F08CFF13
:100B100001AB1D70282102AA204600F053F920B134
:100B200001A8017802A800F04DF82FB0F0BDC04632
:100B3000140100202402002020020020380400209C
:100B4000460400203C040020F0B583B001F0AEFF65
:100B500098B31B4C5A200290A52604270020019030
:100B600006E089B22046FFF733FB01F09FFF20B378
:100B700001F0AAFF01F0BCFC022806D00028F4D145
:100B800001F0B4FCFFF734FFEFE701F0AFFC02998E
:100B9000617026700178A1704178E1704178002978
:100BA0003946DED0821C0199535C65182B71491CB3
:100BB00043789942F8D3091DD3E703B0F0BDC0468E
:100BC0001801002010B50A4601460120044C2346B6
:100BD000FFF7CDFD0146204601F090FF10BDC04655
:100BE00050060020B0B50C460546007808706878BD
:100BF0004870A8788870E878C87028790871A87952
:100C000069792A7AEB79E37122726171A071687A4D
:100C10006072A87AA07220460B3029460B3105225B
:100C2000FFF792FA287C20742046113029461131B2
:100C30000722FFF789FA287E697EAA7EEB7EE3769B
:100C4000A27661762076287F697FAA7FEB7FE377A3
:100C5000A277617720772020295C2154681D007FCE
:100C6000611D087722342235062220462946FFF7E7
:100C70006BFAB0BD70B50D4801F0AEFD0C4C01250E
:100C8000C026204629462A46334601F04FFA032261
:100C900020462946334601F06AFA4021204601F0F9
:100CA0003EFA8021204601F03AFA70BD120500009C
:100CB00000040048F0B583B02C4C204601F08CFDB8
:100CC000FD34204601F088FD0920C6060127304684
:100CD000394640F2002201F0F1F93046394640F23F
:100CE000004201F0EBF902243046214602943A46D4
:100CF00040F2002301F01AFA002101910325304649
:100D00002A4640F2002301F032FA304621463A46A4
:100D100040F2004301F00AFA3046019C21462A467F
:100D200040F2004301F023FA114E304601F05EFF1D
:100D3000E1204102304601F027FF0821304601F052
:100D4000ADFF0421304601F0A1FF0521304601F03E
:100D500085FF1B20029901F0B5FB304601F060FFD2
:100D6000044804800448048003B0F0BD110500006D
:100D700000380140460600204806002080B501F0FA
:100D800001F980BD10B501F013F90124204601F0EE
:100D900005F90128FAD00224204601F0FFF80128C5
:100DA000FAD00748042101F0C5F80224204601F0DA
:100DB000F5F80128FAD001F0E5F801F0E9F810BDE6
:100DC00071020000F0B5B1B0002400285ED01746D3
:100DD000002A5BD0002B59D00E46402956D8014638
:100DE00046480078002851D0029320A8089000249B
:100DF00004800DAD6E72C22006902872EC71AC7149
:100E000002206871C12205922A7103220492EA70BD
:100E1000AC7007906870C0200390287028460A3094
:100E20003246FFF791F9089800903146093121AB1D
:100E300020462A4601F03AFF49F20001884225D1B6
:100E40000AAA967201200890507206981072002427
:100E5000D471947107985071059911710499D170EA
:100E6000947050700398107009AD2C8000950B2180
:100E700020463B4601F0A4F849F20001884205D122
:100E80002888B04202D102990870089C204631B0EF
:100E9000F0BDC046B0B592B009A8002404806846F1
:100EA0000480144800F028FF08B30546C068804756
:100EB000A86880476A690AA809A99047B8B901A833
:100EC000694601F093FA49F2000188420FD1684661
:100ED0000088112802D368461021018068460288E4
:100EE000054801A9FFF730F90448012404702046A1
:100EF00012B0B0BD18000020500700204A060020A4
:100F00000249086008680028FCD170471C020020D4
:100F1000F0B587B000920546087900064A791204B8
:100F200010188A7912028018CA7982180878000687
:100F30004B781B0418188B781B02C018C97840180E
:100F400001095140D24B19404A4093B20C01444030
:100F5000210C59400804604051408A084240CD4B62
:100F60001A40504092004A40110A4140CA4B194071
:100F700048400B0253401F22D34119464140C74C01
:100F800021404B404140D14100220295059204246A
:100F900006941846E041AC18049466684640B006D2
:100FA000000EBF4C20580390A85858408409FC27D5
:100FB0003C40BC4D2C5985062D0EBB4A55594D4021
:100FC0006540810B3940B94A51586940800D38401D
:100FD000B74C2058484003994840B1093940B54CB6
:100FE00061584140B00B3840B34C20584840B10DD7
:100FF0003940B24C61584140049EB0684840840971
:101000003C40A84D2C5985062D0EA74A55595D40E8
:101010006540830B3B40A54AD358A84A6B40800DDE
:101020003840A34C24585C400B460698C341F068F6
:101030009B4E584083061B0EF358634084093C4086
:101040009C4D2C595C40830B3B409B4DED586540BB
:10105000800D38401358059A6B40029D1032802A4B
:1010600094D1803501950022069D05920846E841FD
:10107000019CA2180492526842409006000E30581B
:10108000039005982058484084093C40854E3459C7
:101090008606360E844DAE595E406640830B3B405B
:1010A000824DEB5873407E4E800D3840804C205866
:1010B0005840039B584093093B407E4CE3584340C3
:1010C000900B38407C4C20585840920D3A407B4B56
:1010D0009B58434004988068584082093A40714CBC
:1010E000A2588406240E704D2C594C405440810B5C
:1010F00039406E4A5158069D6140800D38406C4A17
:1011000012584A401946E9410498C068484081068F
:10111000090E7158514082093A40664CA2584A4023
:10112000810B3940644C64585440059A800D384016
:101130006249095861401032802A96D140F200106D
:10114000029A101802907F20C44305941846E84183
:10115000029A15192A468032049256684640B00613
:10116000000E4F4C20580390802028585840850985
:101170003D404C4C65598406240E4B4A14594C4052
:101180006C40810B3940494A51586140800D3840CC
:10119000474C2058484003994840B1093940454CD4
:1011A00061584140B00B3840434C20584840B10D85
:1011B0003940424E71584140049A90684840840931
:1011C0003C40384D2C5985062D0E374E75595D40E3
:1011D0006540830B3B40354CE3586B40069D800DCA
:1011E0003840334C24585C400B46EB41D0685840A3
:1011F0008206120E2A4B9A586240059C83093B4096
:101200002C4EF3585340820B3A402B4EB2585A4062
:10121000800D3840294B1B585340103495D1012084
:10122000C341184648401D4A1040434048404008CA
:10123000C9070818010A5940174A11404B400902D2
:10124000414088085840134A104043401A0C84001B
:101250004C40A1B2514008045840020961404A4044
:101260000B4B1A405140009CE1710B0AA3710B0C0F
:101270006371090E217111014140E170080AA070EB
:10128000080C6070080E2070002007B0F0BDC0464A
:101290000F0F0F0F33333333FF00FF00AAAAAAAAA0
:1012A000CC340008CC330008CC350008CC31000821
:1012B000CC2F0008CC320008CC300008CC2E00081F
:1012C000F0B5E1B00646500702D0012061B0F0BD94
:1012D00014460D466698182807D0102803D101A897
:1012E000194600F0B8F82CB90DE001A8194600F035
:1012F0001DF944B10027E919F21901A8FFF708FE0A
:101300000837A742F7D301A800F055F8002061B0D4
:10131000F0BDF0B5E3B016460F46044668981828AD
:1013200006D0102808D103A8194600F0A4F803E05D
:1013300003A8194600F00AF9072132460A40304650
:1013400001D0304608308843B0422DD1009202903F
:10135000019166B300257919621903A8FFF7D8FD3A
:101360000835B542F7D3083D0298B04216D9029825
:1013700001F036FD7919721B0746FEF7E5FE00986D
:1013800038187142019A1140FEF7F7FE621903A85E
:101390003946FFF7BDFD384601F0F8FC03A800F020
:1013A0000AF8029863B0F0BD002063B0F0BDCD43F1
:1013B000B042F3D9DBE780B518B140F2801101F0FB
:1013C000CFFC80BDF0B589B016460C4605461146E7
:1013D00000F0CCF8204680300836314600F0C6F8E0
:1013E00040F200100695281804900121C843059486
:1013F000F83403940027F821029180210191FC2107
:1014000000913B4605990890069CE219966FCE50D4
:10141000C8180790D26F4260E218C819029D45595A
:10142000019E9551009D405984255051E058049CDF
:10143000E050E018526842600398C018079A52685A
:10144000CD588560C2600898083F0833801C1E286C
:10145000D9D309B0F0BD10B5E0B00A4601466C46DC
:101460002046FFF7AFFF204640F2801101F078FCE4
:10147000002060B010BD10B5E0B00A466C462146B1
:10148000FFF7A0FF204640F2801101F069FC002028
:1014900060B010BDF0B587B016460C460546114643
:1014A00000F064F8204680303146083100F05EF8E4
:1014B00040F2001028181036314600F057F840F27C
:1014C0007810069528180594F83404940121CA432D
:1014D0000021F823029380230193FC2300930B4601
:1014E00003920768059DEF50EF1846687E60069CE2
:1014F000E6186F18029D7D59019C3551009C3D599D
:101500008427F551049DED18069C6618B66FAE60F1
:10151000039CA60080190646F43E3668EE60083942
:101520000833921C1E2ADCD307B0F0BD10B5E0B022
:101530000A4601466C462046FFF7ACFF204640F2C3
:10154000801101F00DFC002060B010BD10B5E0B0BE
:101550000A466C462146FFF79DFF204640F2801167
:1015600001F0FEFB002060B010BD0000F0B595B0AA
:1015700012900A7810064B781B0418188B781B02FF
:10158000C018CB78C318087900064C7924042018B9
:101590008C7924020019C97941180809149358401C
:1015A000BA4D05402E465E403007800EB84C20589C
:1015B000C700B0093C231840205880003843B70BBF
:1015C0001F40E7597F000743B00D184020583843AB
:1015D000F7081F40E759FF010743F00A1840205859
:1015E00080013843F60C1E40A65976010643D00808
:1015F0001C220240A05802013243A648441C22404B
:1016000028014840A4490140A448149D28400918D5
:101610004D001D40A2484559ED00CE091E40865997
:10162000B6002E43CD0B1D4045596D003543CE0D00
:101630001E4086592E438D081D404559ED01354306
:101640008E0A1E408659B6012E438D0C1D4043590B
:101650005B013343090F8900405805011D432540B4
:1016600001210804109048040F9088040E9008058A
:101670000D9048050C9008060B90C8060A900023B0
:101680001191F1E0834B981E1A24022606961390BE
:1016900008941146E140B2401446044027460F43E7
:1016A000BE0414974120C004304009079B1C0793D7
:1016B00019402601029409239B06334059189303CD
:1016C0000A9E33400B43034390010B990840184393
:1016D00051020C9B1940014353080D9803400B43E2
:1016E000B90201910E9E31401943A3000F9E334071
:1016F0000B43960A10990E401E43284606998840CF
:10170000034640F200173B403343460B42F20007CA
:101710003E401E430309014641F200073B4033436C
:101720000898C5400895139C0C40A00B04902C43CE
:10173000A601139440F600073E401E4300914B085B
:1017400040F200452B403343064640F2002006405D
:101750001E434B0920200690034033438E0A102578
:1017600035401D43E0080590082303402B438D0CB2
:1017700004262E401E438B0E022003900340334369
:10178000CD01ED0F1D43129805600A9801990140A3
:101790001746149AD603119C630733407D040798BB
:1017A00005405B190B439005A50605401D43B8088D
:1017B000630603402B43029C60000B9A10401843C1
:1017C000149A13040C9A13400343F8020D9A104024
:1017D0001843E300119AD4041C400443B8090E9A3C
:1017E000104020430F9A164006433809109A1040C3
:1017F000304300990A4640F200231A400243880809
:1018000042F2000318401043139D2A0241F20003E4
:101810001A40024340F600000830049B1840104371
:101820004A0A40F200431A400243E80140F2001322
:1018300018401043CA09069B1A4002431120059B19
:1018400018401043089AD207520F0243480D0399DB
:10185000084010431299486008311291099B5B1CA3
:10186000102B149A11990ED00F2B099300D909E768
:10187000012098400B4C204200D103E71B240E4668
:10188000044B184602E715B0F0BDC0460F0F0F0F0E
:101890004C2E0008FEFFFF0FEFEFEFEF10101010BF
:1018A0008C2E0008038100003C4800680249411862
:1018B000484248417047C04600A7BAB470B50124F9
:1018C00090B10546FFF7F0FF70B1002407482146AC
:1018D0000A58130E6B546B18DA70160A9E70120CAD
:1018E0005A70091D1029F3D1204670BD04FC000870
:1018F000F0B585B00124002843D0054600F052F829
:1019000000F0ACFA202000F05FFA102000F05CFA42
:10191000042000F059FA214E304600F05FFA20B161
:1019200000F056FA00F044F82BE01D49304600F074
:10193000A5FA20B100F04CFA00F03AF821E00F20AF
:10194000C743E819017C0906427C12045118827CC5
:1019500012028918C07C0918F019143000F08EFAB0
:1019600058B93F1DEDD100F033FA00F021F801A87D
:10197000FFF7A4FF40B1032403E000F029FA00F0D0
:1019800017F8E0B205B0F0BD01A910222846FEF715
:10199000FFFB08B90446F4E70324F2E700FC000863
:1019A0000059454B80B51548052101F04EF980BD21
:1019B000B0B540F20075691D104C204601F03DF9AC
:1019C000012802D1204601F007F9E91C204601F068
:1019D0002CF9A91C204601F028F9691C204601F0C9
:1019E00024F9204640F2007101F01FF901F066F879
:1019F0000521204601F032F9B0BDC0460038014053
:101A000010B5421E1B490D2A25D81E20C043401D7B
:101A1000930001A4E3189F4600F01EB800F018B828
:101A200000F019B800F017B800F015B800F013B8BE
:101A300000F011B800F00FB800F00DB800F00BB8CE
:101A400000F00CB800F00CB800F00DB800F00EB8C3
:101A5000881D80B210BD081D80B210BD88B210BDB7
:101A6000481C80B210BD881C80B210BDC81C80B25A
:101A700010BDC046E1FF000080B57B48006820B182
:101A80007A4900220A708068804780BD80B5764818
:101A9000006808B1C068804780BDC04672490860D0
:101AA0007047C046704800210160704770B50C4611
:101AB0000546302000210A4600F08AF8064678B92B
:101AC00040F6A07000F022FA2846214600F014F8F3
:101AD000064628B1FFF752F900F0EEF90028F3D0DE
:101AE000304670BD80B56048006820B101785F4A1B
:101AF00011704068804780BDF0B585B0054600266E
:101B00000E80594F386888B10C46006980473868A4
:101B1000016A56480078401CC0B28847396840B115
:101B2000496904468847204605B0F0BD0B2005B042
:101B3000F0BD0395C869804705463868C06980478D
:101B400039460746000204954019C51E1F488542C4
:101B500007D3002020800868406980470D2005B029
:101B6000F0BD0868C069804701903F480068C069BF
:101B700080470294258004994F4001994F4004907A
:101B8000474028040BD0039C029D37480068C06979
:101B90008047A0554740761C28888642F5D3324CB2
:101BA0002068406A80470646206840698047B742FF
:101BB00005D10520FFF7A4F9049805B0F0BD002079
:101BC000029908800E2005B0F0BDC046FE0300005B
:101BD000F0B585B014460D4604AAD0700026967064
:101BE000E31C1370190A51701F4F3A68C2B1019378
:101BF00002900391106980471C4800783968096A8F
:101C00008847074630BB02E0761C042E0AD004A8A1
:101C1000805D15490968896988470028F4D018E073
:101C20000B271EE0039E01984640029846405CB197
:101C300028780D4909688969884750B9287846404D
:101C4000641E6D1C002CF3D1074800688169F0B256
:101C50008847074604480068406980470520FFF729
:101C60004FF9384605B0F0BD3003002028020020AF
:101C7000F0B581B01C4615460A4601460020188082
:101C80000220FFF7A5FF074610B1384601B0F0BDAE
:101C90000798069E00F03AF905E0FFF76FF800F0AC
:101CA0000BF90028F1D128462146FFF725FF07460A
:101CB0000428F2D00C2FE8D13046FFF721F9ECE7E9
:101CC000B0B5002378B171B16AB188420DD98B18D3
:101CD00083420AD9491E0023DB438C5C8518EC54EF
:101CE000521EFAD103461846B0BD0023CC5CC45442
:101CF0005B1C9A42FAD1B0BD10B5EB4C206028B104
:101D00000178012902D1416801488847206810BD47
:101D100038000020F0B583B01C4602920E460746FC
:101D20000A208021FEF7EAFC0420FEF774FB46B18E
:101D3000092539782846FEF7ECFC761E7F1C002E1C
:101D4000F7D101200C210190FEF7E3FC0D2080214A
:101D5000FEF7D4FCC8261B4F0425300407D0761E9E
:101D60002846FEF7CFFB8006800FF6D000E03E4607
:101D70000D20FEF750FB0027300405D00620FEF7AB
:101D8000C1FB1B21084202D0384603B0F0BD029FC0
:101D90008FB194B10A20FEF7B5FB207078B1002610
:101DA00009252846FEF7AEFBB855761C20788642FA
:101DB000F7D3019FE8E7019FE6E7019FE4E7019F72
:101DC000E2E7C046FFFF0000234908607047C046B5
:101DD0003848016880220A4302607047F0B581B03C
:101DE00005460F200404204600F016F808B101B0A3
:101DF000F0BD304E3068022738433060756030687F
:101E0000402101433160204600F006F83168B943B3
:101E1000316001B0F0BDC04670B5441E0025641E9F
:101E20002E466E4100F008F8012801D1002EF6D1AF
:101E3000012800D1052070BD07480168C90707D1F6
:101E40000168C90606D400684108022008407047AE
:101E500001207047042070470C2002400448C168EC
:101E6000090603D503490160034901607047C04674
:101E70000420024023016745AB89EFCDF0B581B066
:101E80000C4605460F2006043046FFF7C5FF08B193
:101E900001B0F0BD074908680127384308602C608D
:101EA0003046FFF7B9FF034A1168B943116001B02A
:101EB000F0BDC04610200240184800681649096865
:101EC000814201D20020704701207047704780B5E1
:101ED000012000F0A9F980BD80B5002000F0A4F930
:101EE00080BD80B500F0E4F900F03AFA80BD80B51D
:101EF00000F0DEF900F034FA80BD80B500F002FA9F
:101F000080BD80B500F018FA80BD00000249096864
:101F10000818024908607047240200204C0600207F
:101F200080B50A20FEF7ECFF80BD80B50A20FEF7E1
:101F3000E7FF80BDB0B502461F4B174818601F4829
:101F4000186059600D4901200D46DC68044015B148
:101F50006D1C002CF9D1604260415CB9084C2240F4
:101F60009A600222DC68144011B1491C002CF9D19E
:101F700004B1002008B105491960B0BD0200F0FFAE
:101F8000FF0F00000C48014901607047AAAA000039
:101F90000948014901607047CCCC00000349096839
:101FA0000140481E814108467047C0460C30004041
:101FB000014802490160704700300040555500005B
:101FC000F0B583B002930E46334C2171E070782156
:101FD000617080212170000AA070651D284611469D
:101FE0003246FEF7B1F8A819072131400822571AE6
:101FF0002A493A46FFF764FEBE1926711024009460
:10200000274F284B384629463246FFF782F92846A3
:1020100039463246FFF754FE23480068234DD0B1BD
:10202000876940F6A0700A2100910190701D81B26D
:1020300019481F4D1F4E2A463346B84718B1FFF7BF
:10204000DFFC054607E030884019411E0978801EF4
:10205000007800024518A8B249F20001884218D160
:10206000144E3088821E402A02D91048851C10E088
:10207000089F0094104C0E490A4B2046FFF720F9A8
:102080003088821E02982146FFF71AFE3088801E93
:102090003880A8B203B0F0BD290200201000002053
:1020A000700000205007002034030020E1FF0000F2
:1020B000D00000201001002090000020F0B582B078
:1020C0000191016A0090446A00252E4603E02D1D0F
:1020D000761C082E0AD01746F740FF07F7D0019F5D
:1020E000AF400F23AB4099433943F0E70825002662
:1020F00003E0361D6D1C102D0AD01346EB40DB07A4
:10210000F7D0019BB3400F27B740BC431C43F0E717
:1021100000980162446202B0F0BD81627047816143
:10212000704700690840411E88417047F0B582B091
:10213000019305680090C0680026374603E0B61C8E
:102140007F1C102F0ED0019BFB40DB07F7D01346FE
:10215000B3400324B440A04318430B46B340A54307
:102160001D43ECE700990D60C86002B0F0BDF0B50A
:1021700081B0012902D14168194301E041689943C6
:1021800041600090816800240320264603E0A41CDF
:10219000761C102E0AD01F46F740FF07F7D01746CF
:1021A000A7400546A540A9433943F0E70098816060
:1021B00001B0F0BD70B57C4C80212046FFF7AFFF29
:1021C0000026402520462946FFF7A9FF00F00EF81B
:1021D00020462946FFF7A1FF00F008F8701C082EE2
:1021E0000646EFD300F0A8F870BDC04681B040F2BB
:1021F000E83000900098411E00910028FAD101B00B
:102200007047000080B540B106480178491C017054
:10221000C8B2032804D3FFF7CDFF024800210170A4
:1022200080BDC0463A040020F0B585B001905E48FC
:1022300080210391FFF773FF00264020029034466F
:10224000594F04943846029C2146FFF768FFFFF778
:10225000CDFF38460399FFF764FF0546384621460F
:10226000FFF75BFF681E8541049840004419FFF7A3
:10227000BDFF701C072E0646E3D34B4E019880210C
:1022800018B13046FFF749FF02E03046FFF747FF3D
:10229000FFF7ACFF402530462946FFF740FFFFF728
:1022A000A5FF30462946FFF738FFE0B205B0F0BD84
:1022B000F0B581B0044600263B4D802000904027B9
:1022C00016E028460099FFF728FFFFF78FFF284602
:1022D0003946FFF724FFFFF789FF28463946FFF705
:1022E0001CFF6400FFF782FF701C072E064607D212
:1022F00060B20028E5D528460099FFF710FFE4E713
:1023000001B0F0BD70B5284C802620463146FFF75D
:1023100006FF402520462946FFF701FFFFF766FF2D
:1023200020463146FFF7F9FEFFF760FF20462946B9
:10233000FFF7F3FE70BDC046B0B51B4C80252046AC
:102340002946FFF7EAFE40212046FFF7E8FEFFF7A7
:102350004DFF20462946FFF7E2FEFFF747FFB0BDDD
:1023600070B5114C802520462946FFF7D8FEFFF7AF
:102370003DFF40212046FFF7D2FEFFF737FF002642
:1023800020462946FFF7CDFE38B1701CC82E064600
:10239000F6D3FFF7D1FF012070BD40212046FFF7A3
:1023A000BCFE002070BDC0460004004800F02AFBBF
:1023B000FEF780FCFEF75EFCFEF7E4FCFEF7DEFCB9
:1023C000FEF734F8FEF7DAFCFEF71CF80649087051
:1023D000FEF7D4FCFEF720FBFEF7D0FCFEF7B4FBC3
:1023E000FEF72EFBF8E7C04620020020F0B595B0BE
:1023F0000646002401910C802D4D2868FDF79BFEB8
:1024000029680029204600D4481C02962860FDF760
:1024100089FE10A90855641C102CF8D1254811908C
:1024200025481090102610A908AA07AB304600F0E6
:10243000F3F9074649F20000874236D1009608A911
:1024400008241E4B029D28462246FEF739FF10A99C
:10245000083128462246FDF79BFE08B1184F24E0BC
:1024600003AC08AF0825204639462A46FFF728FC6A
:102470000096083439460831104B20462A46FEF7AC
:1024800048FF07AB284621463A4600F0F9F90746CF
:1024900049F20000874208D1009603A9074B029831
:1024A0003246FEF736FF01980680384615B0F0BD7B
:1024B00018020020556677881122334460000020FE
:1024C000CEFF000010B50446FEF71CFA2046FEF7CA
:1024D0000BFA10BD034A0A40024303480260BFF3EF
:1024E0004F8F704780FFFF1F08ED00E043487047A3
:1024F000B0B5414D2978062918D88A0001A39A1849
:102500009746C04600F00CB800F014B800F022B8AE
:1025100000F025B800F02DB800F039B800F03DB853
:10252000A52849D101242C702046B0BD0020287078
:1025300001242AE00124A52827D05A2843D1304875
:1025400000210170022028702C48FE21FDF715FEA5
:102550002046B0BD03212970284908703CE0274976
:10256000487070B3FB2832D3002028700324204623
:10257000B0BD23490A78214B9C18A070501C0870EC
:102580005978C0B20124884219D22046B0BD000259
:10259000FC211A4A505206201DE0FC2217498B5A92
:1025A00003438B52084600F02DF800212970414268
:1025B00041414C002046B0BD04242046B0BD05205A
:1025C00002E0052007E0002028702046B0BD0C483E
:1025D000002101700420287001242046B0BDC046AF
:1025E00010B50548002404700448FE21FDF7C5FD20
:1025F0000348047010BDC046470400204804002072
:1026000039040020B0B5B0B1044611485A214170D8
:10261000A5210170217881706178C170617861B104
:10262000A21C0021535C45182B71491C6378994208
:10263000F8D3081D02E00020B0BD042081B2044898
:10264000FDF7C6FDFC21615A411A48424841B0BD20
:1026500038030020F0B581B00246544B18680C21B5
:10266000014053480829044618D119688902090F06
:102670000F2901D08C1C00E010241D682D0101D50C
:1026800011310C461968C90301D44A4905E0996A19
:102690000F250D40691CB0FBF1F14C431D68186813
:1026A0001968052A1ED800902D062D0F42A77F5DC0
:1026B0002546FD408904490F43A77E5C2946F14029
:1026C000960001A08019874600F00AB800F00CB807
:1026D00000F00CB800F066B800F00FB800F016B8C3
:1026E00021465FE000215DE029465BE0009840055F
:1026F000400F385CC540294654E0D86AC0051CD458
:10270000D86AC0032ED5334801B0F0BDD86A80071F
:1027100048D0D86A032210400128214642D0D86A06
:10272000104048F2000102283CD0D86A104003282B
:102730001F4800D0002001B0F0BD1A68D86A12040A
:10274000920F930001A4E3189F46C04600F006B81C
:1027500000F00BB800F00DB800F011B8002812D44A
:1027600049081FE01A4801B0F0BD00280FD48908BD
:1027700018E000280FD40620B1FBF0F112E0002889
:102780000DD4C9080EE00320B5FBF0F10AE00520E6
:10279000B5FBF0F106E00720B5FBF0F102E00920FF
:1027A000B5FBF0F1084601B0F0BDC0460410024090
:1027B00000127A0000093D00000000000000000047
:1027C00001020304060708090000000001020304D7
:1027D000809FD500003FAB011F21014001228A40AC
:1027E00080090C4943581343435070471F2101404F
:1027F00001228A4080090749435893434350704758
:102800001F21014001228A40800902494358134395
:102810004350704700100240F0B583B01D46144687
:1028200006463148102202710022C2708270712265
:10283000427080220270401D3246FFF741FA2B4859
:10284000006878B1876940F6A0700A210091019074
:10285000701D81B2244822462B46B84720B1FFF7AD
:10286000CFF809E0224807E028880019411E0978BE
:10287000801E00780002401880B203B0F0BDC04650
:10288000F0B583B01D46144606461748082202716B
:102890000022C27001228270732242708422027070
:1028A000401D3246FFF70CFA1048006878B187697E
:1028B00040F6A0700A2100910190701D81B20A4873
:1028C00022462B46B84720B1FFF79AF809E008489E
:1028D00007E028880019411E0978801E0078000250
:1028E000401880B203B0F0BD29020020340300205C
:1028F000E1FF0000034909680140481E8141084684
:102900007047C0461800014070B583B0374B9A1C21
:102910003748011F0C6814430C60012254040D68F1
:102920005E1E9E4202D225403346F8D00B682342F9
:1029300000D1FEE72F4C256802231D430526B54331
:1029400025600468902525430560046804600468D8
:1029500004600468284D254005601D242404056892
:102960002543056012060C6814430C600A68920146
:10297000FCD5016802910321029A8A4302920299CE
:1029800019430291029901600C2102680A40082A49
:10299000FBD10022019201997F2905D80199491C98
:1029A000019101998029F9D301680091F021009BE0
:1029B0008B4300938023009C1C430094009B036086
:1029C0000192019A7F2A05D8019A521C0192019A1C
:1029D000802AF9D302680092009A8A4300920099F3
:1029E00000910099016003B070BDC046FEFF000079
:1029F0000410024000200240FFFFC27780B5FFF7BD
:102A000083FF80BD80B50748006840F2E831B0FB25
:102A1000F1F0FDF7CFFE00B1FEE70020FDF792FFD9
:102A200080BDC0460C00002070B5E8B30C46D9B399
:102A300005460078207068786070A878A070E87803
:102A4000E07028792071A87969792A7AEB79E371A5
:102A500022726171A071687A6072A87AA0722046B1
:102A60000B3029460B3106263246FDF76DFB20461A
:102A70001130294611310722FDF766FB687E297E59
:102A8000EA7EAB7EA376E2762176607620461C3025
:102A900029461C313246FDF757FB223422352046A9
:102AA00029463246FDF750FB70BD000033480088D0
:102AB00033490988401AC0B27047C0462F48008881
:102AC0002F4908807047C0462D4908882D4A105C60
:102AD0000A88521CD2B20A807047C046B0B501467F
:102AE0004C4C204600F07CF8034D2046294600F06F
:102AF000A4F80028F9D0B0BD07070000B0B548B170
:102B00000C4639B105462878FFF7E8FF641E6D1CB6
:102B1000002CF8D1B0BD000010B590B109490A6889
:102B20004B688968140EC470140C8470140A4470C5
:102B30000270594001710A0EC2710A0C8271090AB1
:102B4000417110BDACF7FF1F10B5324C0A49204649
:102B500000F08DF870B1204600F03EF807490A8871
:102B6000521CD2B2064B1B889A4203D00B88054CEC
:102B7000E0540A8010BDC046050005074606002047
:102B80004806002046050020B0B50D460446214801
:102B9000844204D02048844205D1022000E0052070
:102BA000FFF758FD00E000202168090406D46908F9
:102BB0004018B0FBF5F080B2E060B0BD690840009D
:102BC0004018B0FBF5F0034901400007400F4018E2
:102BD000E060B0BDF0FF0000416A03480840704764
:102BE000014A0A4082627047FF01000010B509499E
:102BF000884204D00849884208D1084C00E0044CBF
:102C00002046FFF7FDFD2046FFF7F0FD10BDC04652
:102C10000E03000000380140004400401104000091
:102C2000016801220A43026070471F220A40012105
:102C30009140026A0A43026270471F220A408909D2
:102C40000958D1400120084070471F220A40012343
:102C5000934089090A589A430A5070471F220A4034
:102C60000123934089090A581A430A5070471F22CA
:102C70000A400B049B0D1B58D3408A0D1258C80202
:102C8000C00EC2401A400120104070470268042361
:102C90009A43026002680A43026070470268082390
:102CA0009A43026002680A4302607047F0B583B03D
:102CB00002930E46244C2171E070762161708021D0
:102CC0002170000AA070651D284611463246FEF7A5
:102CD000F7FFA819072131400822571A1B493A4625
:102CE000FEF7EEFFBE19267110200090184F194B09
:102CF000384629463246FEF70CFB2846394632460E
:102D0000FEF7DEFF1448006888B1089D846940F62C
:102D1000A0700A2100910190701D81B20A48029EA4
:102D200032462B46A04720B1FEF76AFE09E00B4869
:102D300007E028888019411E0978801E007800026B
:102D4000401880B203B0F0BD29020020100000201E
:102D5000700000205007002034030020E1FF000035
:102D600021B100220270401C491EFBD1704702E0D5
:102D700008C8121F08C1002AFAD170477047002006
:102D800001E001C1121F002AFBD1704710B50028D5
:102D900023D0124B0022001F196803E0814203D8A0
:102DA0000A4649680029F9D1002A0AD01368841A12
:102DB0009C4204D1006818181060104602E0506070
:102DC00000E01860002907D002680B1A934203D173
:102DD0000B68D21802604968416010BD04000020F1
:102DE000F0B50B30C108C900144F0026144A0FE09B
:102DF00003688B420BD38B4205D95C1A4318456894
:102E000030C3083B00E04368136002C004E0021DC9
:102E100010680028ECD13046002803D1386800281B
:102E200001D00020F0BD064A06481060064A121A7A
:102E3000D208D20044C001203860D7E70800002043
:102E40000400002064070020600B00200000000048
:102E5000010000000001000001010000000001006D
:102E6000010001000001010001010100000000015A
:102E70000100000100010001010100010000010149
:102E80000100010100010101010101010000000038
:102E9000000000010000010000000101000100002D
:102EA000000100010001010000010101010000001A
:102EB0000100000101000100010001010101000009
:102EC00001010001010101000101010100040101F2
:102ED00000000000000001000404010104000101E1
:102EE00004040100040000000000010000040000D0
:102EF00000040101040401010004000004040001B5
:102F000004000101000000010400000004040000AE
:102F1000000400010004000100040100000401009D
:102F2000000001010000010104040001040001008F
:102F30000400000104000001040001000000000082
:102F4000040400000404010000000001000001006E
:102F5000040401010400000000000101000401015B
:102F60000000000100000001000400000400010155
:102F70000000010000040100040000010004000042
:102F80000400000004040001040401000404010121
:102F9000040001000000010104040001040000011C
:102FA0000404000004040100000401010404000002
:102FB0000004000100040001000000000400010002
:102FC00000040100000000000400010120801080C6
:102FD00000800080008000002080100000001000B1
:102FE0002000000020001080208000802000008051
:102FF0002080108000801080000000800080008011
:103000000000100020000000200010800080100050
:1030100020001000208000800000000000000080E0
:1030200000800000208010000000108020001000B0
:1030300020000080000000000080100020800000C0
:103040000080108000001080208000000000000040
:1030500020801000200010800000100020800080E0
:1030600000001080008010800080000000001080B0
:103070000080008020000000208010802080100050
:103080002000000000800000000000802080000080
:103090000080108000001000200000802000100040
:1030A00020800080200000802000100000801000A0
:1030B00000000000008000802080000000000080F0
:1030C0002000108020801080008010000802000086
:1030D00000020208000000000800020800020008C8
:1030E00000000000080202000002000808000200C0
:1030F000080000080800000800000200080202089A
:103100000800020000000208080200000000000899
:103110000800000000020208000200000002020095
:103120000000020808000208080202000802000865
:10313000000202000000020008020008080000006F
:103140000802020800020000000000080002020855
:103150000000000808000200080200000000020051
:103160000002020800020008000000000002000047
:103170000800020008020208000200080800000817
:103180000002000000000000080002080802000819
:103190000000020000000008080202080800000009
:1031A00008020200000202000800000800000208F5
:1031B00008020008080200000000020808020200DD
:1031C0000800000008000208000202000120800040
:1031D000812000008120000080000000802080000D
:1031E000810080000100800001200000000000003C
:1031F00000208000002080008120800081000000ED
:10320000000000008000800001008000010000003C
:1032100000200000000080000120800080000000ED
:10322000000080000120000080200000810080005C
:1032300001000000802000008000800000200000CD
:1032400080208000812080008100000080008000BC
:1032500001008000002080008120800081000000AB
:10326000000000000000000000208000802000001E
:1032700080008000810080000100000001208000AB
:10328000812000008120000080000000812080005B
:10329000810000000100000000200000010080000B
:1032A00001200000802080008100800001200000BB
:1032B00080200000000080000120800080000000CD
:1032C000000080000020000080208000000100003D
:1032D000000108020000080200010042000008008E
:1032E000000100000000004000000802000108404A
:1032F0000000080000010002000108400001004237
:103300000000084200010800000000400000000228
:1033100000000840000008400000000000010040DC
:1033200000010842000108420001000200000842BA
:1033300000010040000000000000004200010802FF
:103340000000000200000042000108000000080028
:1033500000010042000100000000000200000040E7
:1033600000000802000100420001084000010002C4
:10337000000000400000084200010802000108406F
:1033800000010000000000020000084200010842A5
:10339000000108000000004200010842000008028D
:1033A000000000000000084000000042000108008A
:1033B00000010002000100400000080000000000C1
:1033C0000000084000010802000100401000002039
:1033D000000040200040000010404020000040203D
:1033E000100000001040402000004000004000207D
:1033F000104040000000400010000020100040007D
:1034000000400020000000201040000000000000EC
:10341000100040001040002000400000004040002C
:10342000104000201000000010004020100040203C
:10343000000000001040400000404020104000000C
:1034400000404000004040200000002000400020DC
:1034500010000000100040200040400010404020BC
:10346000000040001040000010000020000040005C
:10347000004000200000002010400000100000204C
:10348000104040200040400000004020104040001C
:10349000004040200000000010004020100000000C
:1034A00000400000000040201040400000400000AC
:1034B00010004000104000200000000000404020AC
:1034C00000000020100040001040002000002000FC
:1034D00002002004020800040000000000080000B0
:1034E000020800040208200000082004020820044A
:1034F00000002000000000000200000402000000A4
:10350000000000040200200402080000000800047B
:10351000020820000200200000080004020000044D
:103520000000200400082004020020000000200405
:103530000008000002080000020820040008200023
:103540000200000000000004000820000000000449
:103550000008200000002000020800040208000407
:1035600002002004020020040200000002002000EB
:1035700000000004000800040000200000082004EF
:1035800002080000020820000008200402080000D1
:1035900002000004020820040000200400082000AB
:1035A00000000000020000000208200400000000EB
:1035B00002082000000020040008000002000004AF
:1035C0000008000400080000020020004010001065
:1035D0000010000000000400401004100000001063
:1035E00040100010400000000000001040000400E7
:1035F000000004104010041000100400001004101B
:103600004010040000100000400000000000041002
:1036100040000010001000104010000000100400D6
:10362000400004004000041000100410401000008E
:1036300000000000000000004000041040000010E6
:1036400000100010401004000000040040100400AE
:1036500000000400001004100010000040000000F2
:103660004000041000100000401004000010001082
:103670004000000040000010000004104000041052
:1036800000000010000004004010001000000000C6
:10369000401004104000040040000010000004101E
:1036A0000010001040100010000000004010041036
:1036B0000010040000100400401000004010000042
:1036C000400004000000001000100410F036000854
:1036D00000000020700000006E2D00086037000818
:1036E00070000020F00E00007E2D00080000000099
:1036F00000000000000000000000000000A24A04DA
:103700008000000000000000010000009D1A000879
:103710008D1A0008E51A0008791A0008AD1A000889
:10372000711C0008A51A0008E20000002B1F000809
:10373000211F0008CD1E0008FB1E0008031F000803
:10374000EF1E0008CF1E0008E31E0008D91E000867
:10375000CC5B14B6E2F25929649FA55C726BAED5BE
:04000005080000CD22
:00000001FF
