:020000040800F2
:10000000780F0020E1000008030300080103000846
:1000100000000000000000000000000000000000E0
:100020000000000000000000000000005503000870
:100030000000000000000000530300087D030008DA
:100040000D0100080D0100080D0100080D01000858
:100050000D0100080D0100080D0100080D01000848
:10006000000000000D0100080D0100080D0100084E
:100070000D0100080D0100080D010008000000003E
:100080000D0100080D010008000000000D0100082E
:100090000D0100080D0100080D0100080D01000808
:1000A0000D0100080D0100080D0100088904000879
:1000B0000D0100080000000000000000000000002A
:1000C0000D010008000000000D01000803488546EE
:1000D00000F09CF800480047C9260008780F00206F
:1000E0000B4802680B480240120C92020A4940F287
:1000F000000001C1121F002AFBD1084880470848B0
:100100000047FEE7FEE7FEE7FEE7FEE7FEE700004A
:10011000E0F7FF1F0000FFFF000000209D03000824
:10012000CD0000080549064A08685043054A801872
:1001300008604008704701490860704700000020CF
:100140006D4EC6413930000003460B439B0703D078
:1001500009E008C9121F08C0042AFAD203E00B788C
:100160000370401C491C521EF9D27047D2B201E004
:100170000270401C491EFBD270470022F6E710B502
:1001800013460A4604461946FFF7F0FF204610BD05
:1001900030B504460020034600E05B1C934203D2C6
:1001A000E05CCD5C401BF8D030BDF0B51FB4064616
:1001B000002082B005464024019100901BE0019987
:1001C00022460F46304600F043F8049A059B801AF9
:1001D000994110D310461946224600F029F8361AE4
:1001E0008F410197224601200021009F00F020F856
:1001F00038184D4100902046641E0028DFDC019B2A
:1002000000982946324607B0F0BD0000064C012593
:10021000064E05E0E36807CC2B430C3C98471034AE
:10022000B442F7D3FFF756FF384800085848000893
:1002300010B5202A04DB0146203A9140002010BD71
:10024000914020239C1A0346E3401943904010BD7F
:1002500010B5202A04DB0846203AD040002110BD0A
:100260000B46D340D0402024A21A9140084319469F
:1002700010BD0000F0B50D4EA9B100220C4B144684
:1002800003E0641C8C422E460ED0055D7540164678
:1002900004E03D46771C072E3E46F2D26F08ED077C
:1002A000F7D05F40F5E73546A8B2F0BDFFFF00008C
:1002B00001A0000070B5114802F072FC0920C406CC
:1002C000012100261025204632462B4602F0E6F892
:1002D0002046314632462B4602F001F92046294697
:1002E00002F0D1F8052000F041FF2046294602F037
:1002F000CCF80A2000F03AFF70BDC046110500009E
:10030000FEE740F2001002F0D1FE012800D1FEE726
:10031000FEE770B51C46DA7098705A205870A52018
:100320001870042641B13AB1231D00200D5C1D5404
:10033000401C8242FAD1061DB5B220462946FFF77D
:1003400099FF711C89B26054000A6055B01C80B2DC
:1003500070BDFEE7FEE7000010B5401E010E01D0A3
:10036000012010BD044C6060032000F0BFF80020A5
:10037000A0600721216010BD10E000E00548016881
:10038000491C01600448016811B10168491E0160FF
:100390007047C046380200203402002070B582B099
:1003A000354E341F206801252843206020688007CF
:1003B000FCD530680C21014008292BD13068009011
:1003C000F0200099814300918021009A0A43009215
:1003D0000099316000210191019A7F2A05D8019A84
:1003E000521C0192019A802AF9D332680092009A35
:1003F000824300929020009A02430092009830605D
:10040000019101987F2805D80198401C019001981E
:100410008028F9D30320C04331680140316000F0E7
:1004200071F8206815490140216030681449014085
:1004300031603068134901403160B06A0F21884350
:10044000B062F06A40F203118843F0622804F16A56
:100450008143F162E807F16A8143F162306BA8439E
:1004600030630024746002F0A5FEE806214602F025
:1004700001FA02B070BDC04604100240FFFFF2FE58
:100480000C00FF08FFFFC27780B502F04FFF80BD70
:10049000002807D41F21014001228A404009800022
:1004A000014942507047C04600E100E0002805D4F1
:1004B0000322034693430C4A9A1806E00F22024097
:1004C000083A03239A43074BD2188007C00E8901CC
:1004D000C9B28140FF2383401068984308431060ED
:1004E0007047C0461CED00E000E400E0FF21090673
:1004F000034A13688B438007181810607047C04682
:1005000020ED00E081B0002000900098C0087C2819
:1005100007D840F2E8300099491C009100998142C7
:10052000F9D301B070470000F0B583B001AD2846A3
:1005300002F0E4FE012008220E4C29462346FFF774
:10054000E8FE05462046294602F0CAFE0AA003F04E
:1005500005F855B100270C4EF8B2215C304602F088
:10056000FDFF7F1CF8B28542F6D808A003F0B0FA70
:1005700003B0F0BD640600205B54585D205549442B
:1005800020526573703A0000F34600080D00000029
:10059000F0B581B0694600270F7001F0F7FA20B17D
:1005A000014614A002F0DAFF05E06846012101705F
:1005B00017A003F08DFA022069460122184C234649
:1005C000FFF7A7FE05462046294602F089FE15A042
:1005D00002F0C4FF4DB1174EF8B2215C304602F074
:1005E000BDFF7F1CF8B28542F6D813A003F070FA65
:1005F00001B0F0BD5B4B45595D20577269746520B1
:100600004641494C206572723D25640D0A00000088
:100610005B4B45595D205772697465204F4B0D0047
:10062000640600205B54585D204B45592052657389
:10063000703A0000F34600080D00000010B5C0B18C
:1006400004460178022907D001290FD16178A9B1A8
:10065000244802F083FF10BD617810290AD118A048
:1006600003F036FAA01CFFF793FF10BD254802F0F7
:1006700075FF10BD04A002F071FF10BD1AA003F0B9
:1006800027FAFFF751FF10BD5B434D445D20434DFA
:10069000443D303220627574204C454E3D25642027
:1006A00028657870656374656420313620666F72E2
:1006B000204B4559207772697465290D0A000000A6
:1006C0005B434D445D2057726974654B6579202DFD
:1006D0003E2077726974696E6720464C4153480D1D
:1006E000000000003B4400085B434D445D20517511
:1006F000657279554944202D3E207265706C796988
:100700006E670D00D943000810B502F039F90F48A3
:10071000002101700E4801700E48016041600181A6
:1007200000F00AFB00F046FC08B10C4C00E00A4C5B
:1007300000F002FB01F006FA08B10A4B00E0084B9A
:1007400009A014A1224602F009FF10BD5A0400209E
:100750004C04002050040020B6460008BE460008A5
:1007600013470008AF4600085B5359535D2052659C
:10077000616479207C2043727970746F3D25732009
:100780007C2053453D2573207C204B45593D2573E6
:100790000D0A0000454E435259505400F0B5A7B021
:1007A00062480168624C2268511AC82900D2B3E03D
:1007B0002168016000F0C0FC68B95E4801682268E9
:1007C000511A5D4A914206D3216801605BA003F093
:1007D0007FF900F0EFFB00F0AFFC002800D19BE0B8
:1007E0005B480178002900D096E00125057002F0F1
:1007F000D9FB002800D18FE000F09EFA002417AA50
:1008000016AB4FF60070214601F0B6FD49F2000725
:10081000B84208D116A801880A290DD8754802F0F7
:100820009DFE27B0F0BD4B480178012974D14A499B
:100830000C70047049A031E0464E307801280BD18D
:1008400045480078012807D117A8811C494807228C
:10085000FFF79EFC00285FD03F480570357017A851
:10086000851C444807222946FFF76EFC42A002F08F
:1008700075FE474E295D304602F070FE641C072C61
:10088000F8D144A003F024F900F056FA01F05AF927
:1008900018B112A801F060F920B1554803F018F919
:1008A00027B0F0BD4FF60070401C80B2002117AA9F
:1008B00016AB02F095FC044637A0214602F04EFE2E
:1008C000BC4229D100F038FA002417A916AD204601
:1008D0002A4601F007FD06462A8837A0314602F075
:1008E0003DFEBE4218D116A80188272905D83F48E9
:1008F000282202F033FE27B0F0BD00F01DFA01AB54
:100900001C7017A8282102AA00F064FA30B101A8CF
:10091000017802A800F066F927B0F0BD00F00CFCE9
:1009200008B1304900E02E492F4878E72401002023
:100930003802002028010020881300005B53455D29
:1009400020726574727920617574682E2E2E0D00E8
:100950005F0600204C0400205A0400205B524649E8
:10096000445D20636172642072656D6F7665640D0D
:1009700000000000500400205B524649445D206E98
:1009800065772063617264205549443A0000000095
:10099000F34600080D0000005B524649445D207498
:1009A00061675F6163746976652053573D307825D0
:1009B0003034580D0A0000005B524649445D206700
:1009C00065745F7461675F646174612053573D3083
:1009D0007825303458206C656E3D25750D0A000071
:1009E000C5460008C74600080B440008AE4400088E
:1009F0003C450008D3440008F0B585B002F048FC3F
:100A0000002800D196E04C4D00200290FC2004907C
:100A10006FA704E002F03CFC002800D18AE002F05D
:100A200045FC044601F034FF0428F3D8810001A2FC
:100A300051188F4600F00DB800F00AB800F02EB83B
:100A400000F002B800F043B84AA003F041F8E1E733
:100A5000E0E70298287001F019FF04460178427817
:100A6000584802F07BFD607870B157A002F076FD27
:100A7000607848B1A51C0026A95D384602F06EFDDD
:100A8000761C60788642F7D30498215A52A002F06F
:100A900065FD2046FFF7D2FD274DBBE701F0F6FECE
:100AA00004465A213F484170A52101702178817088
:100AB0006178C1706178A1B1A11C029D4A5D4319A2
:100AC0001A716D1C62789542F8D3291D0AE02878C6
:100AD000411C297002289DD818A0214602F03EFD35
:100AE00098E7042189B2FFF7C5FB05460498235A0D
:100AF00021786278039500952B4802F02FFD21782C
:100B000062782A4802F02AFD6078294F48B1A51C76
:100B10000026A95D384602F021FD761C60788642E9
:100B2000F7D30398010AC2B222A002F017FD024DCA
:100B300027A76FE705B0F0BD2C0200205B52585D7F
:100B400020496E76616C6964206279746520307822
:100B500025303258202869676E6F7265642C2077C3
:100B6000616974696E6720666F7220413520354176
:100B7000290D0A005B52585D204C454E20455252CB
:100B800020284C454E475448203E203235302C20FA
:100B90006672616D652072656A6563746564290DAE
:100BA000000000002C01002070440008CC46000822
:100BB000F3460008202530325820253032580D0ADF
:100BC00000000000F946000820444154413A00006A
:100BD0002530325800000000204352433A2530347B
:100BE000580D0A0070B50C4601460125074E2846EF
:100BF00022463346FFF78DFB0146304602F070FB7C
:100C000003A02946224602F0A9FC70BD640600201C
:100C10005B54585D205461672055706C6F6164208F
:100C2000434D443A25303258204C454E3A25640D08
:100C30000A00000070B53C4801F0B2FF0920C4066C
:100C400001250326204629462A46334601F026FC84
:100C5000204629463246334601F041FC20462946CB
:100C600001F013FC0221204601F00FFC70BDC046CC
:100C7000F0B583B02C4C204601F092FFFD342046A5
:100C800001F08EFF0920C60601273046394640F2A2
:100C9000002201F0C9FB3046394640F2004201F023
:100CA000C3FB02243046214602943A4640F2002318
:100CB00001F0F4FB00210191032530462A4640F261
:100CC000002301F00CFC304621463A4640F2004336
:100CD00001F0E4FB3046019C21462A4640F20043E5
:100CE00001F0FDFB114E304602F072FBE1204102A3
:100CF000304602F03BFB0821304602F0C1FB0421E4
:100D0000304602F0B5FB0521304602F099FB1B206E
:100D1000029901F0A7FD304602F074FB04480480FC
:100D20000448048003B0F0BD110500000038014004
:100D30005A0600205C06002080B501F031FA80BD23
:100D400010B501F043FA0124204601F035FA0128DC
:100D5000FAD00224204601F02FFA0128FAD00748E1
:100D6000042101F0F5F90224204601F025FA0128BA
:100D7000FAD001F015FA01F019FA10BD7102000065
:100D8000F0B58DB01E4601920F46014600200B9033
:100D900080200A90129D28463A4601F0E5F8E819AD
:100DA000072139400822541A0AA9224601F0DCF82A
:100DB000E019139F38700096C2B202AC2046294653
:100DC000019B00F0DCFB3A782846214601F0CCF884
:100DD0000DB0F0BDF0B5B1B0002498B115468AB1A0
:100DE00083B106464A48007848B10A4641290CD3E7
:100DF0006F48402311461A4602F0B0FB02E045A0BE
:100E000002F066FE204631B0F0BD019320A80790A5
:100E1000002404800DAF7A72C22005903872FC71F4
:100E2000BC7102207871C1210491397103210391B1
:100E3000F970BC7006907870C02002903870384607
:100E40000A3031460892FFF77FF907980090089919
:100E50000A3121AB20463A4602F01AFB014649F21C
:100E60000000814246D10AAA089890720127577261
:100E7000059810720024D4719471069850710499E9
:100E800011710399D170947050700298107009A874
:100E9000048000900B2120462B4601F09FF901466B
:100EA00049F20000814229D1079709A80288089BCE
:100EB0009A4227D1019802703948194602F04EFB38
:100EC0000027384CF15D204602F048FB7F1C082FBC
:100ED000F8D135A002F042FB0026324CA95D204635
:100EE00002F03CFB761C082EF8D130A002F0F0FD99
:100EF000079C87E712A002F031FB83E71CA002F0F9
:100F00002DFB7FE7254811461A4602F027FB79E7BB
:100F10005E0600205B53455D20656E6372797074D8
:100F2000204641494C3A205345206E6F742061752C
:100F30007468656E746963617465640D0000000017
:100F40005B53455D20656E6372797074204641493C
:100F50004C3A2077726974655F73655F6461746190
:100F60002053573D3078253034580D0A00000000DA
:100F70005B53455D20656E6372797074204641490C
:100F80004C3A206765745F73655F646174612053D8
:100F9000573D3078253034580D0A00006D47000861
:100FA00022480008F346000820433A000D000000E4
:100FB00041470008F0B59DB00CA80024048003A8A8
:100FC0000480384800F0ECFF68B10546C0688047EF
:100FD000A86880476A690DA80CA9904738B132A06B
:100FE00002F076FD5BE0534802F072FD57E00CAD75
:100FF00029883AA002F0B2FA288868B100263CA5F8
:101000000DA8815D284602F0A9FA0CA81E2E03D86F
:10101000761C00888642F3D337A002F059FD01A860
:1010200002F06CF900F08EFD344DA8B104A800F078
:1010300093FD88B901A804A901F0B6FF30A002F021
:101040008DFA002735A637A501A8C15D304602F00C
:1010500085FA7F1C082FF7D1284602F039FD04A835
:1010600003A901F093FB014649F20000814213D12C
:1010700003A80088112802D303A81021018003A827
:1010800002882A4804A9FFF75FF82D48012404705C
:10109000274802F01DFD02E0234802F05FFA2046D7
:1010A0001DB0F0BD1C0000205B53455D204F46463F
:1010B0004C494E4520284154522074696D656F7526
:1010C000742C20636865636B20776972696E672F83
:1010D00061646472657373290D0000005B53455DA4
:1010E00020415452204F4B206C656E3D25753A00CF
:1010F00020253032780000000D000000EC47000889
:101100005B53455D20637265643A20666C61736869
:10111000204B4559202B2055494428002530327852
:1011200000000000290D0000194700086407002096
:10113000BD47000896470008014800787047C04640
:101140005E06002070B580B10446642608E028469B
:1011500000F00CF8641BFFF7EFFDFFF74DFC24B126
:10116000642C2546F3D33546F1E770BD024908608B
:1011700008680028FCD1704734020020F0B587B021
:1011800000920546087900064A79120410188A79F7
:1011900012028018CA798218087800064B781B045E
:1011A00018188B781B02C018C978401801095140E3
:1011B000D24B19404A4093B20C014440210C594093
:1011C0000804604051408A084240CD4B1A405040CC
:1011D00092004A40110A4140CA4B194048400B0254
:1011E00053401F22D34119464140C74C21404B4038
:1011F0004140D141002202950592042406941846EC
:10120000E041AC18049466684640B006000EBF4C3E
:1012100020580390A85858408409FC273C40BC4DF6
:101220002C5985062D0EBB4A55594D406540810B02
:101230003940B94A51586940800D3840B74C205860
:10124000484003994840B1093940B54C6158414084
:10125000B00B3840B34C20584840B10D3940B24C27
:1012600061584140049EB068484084093C40A84D04
:101270002C5985062D0EA74A55595D406540830BB4
:101280003B40A54AD358A84A6B40800D3840A34C38
:1012900024585C400B460698C341F0689B4E58406A
:1012A00083061B0EF358634084093C409C4D2C5927
:1012B0005C40830B3B409B4DED586540800D3840B2
:1012C0001358059A6B40029D1032802A94D18035C4
:1012D00001950022069D05920846E841019CA2184E
:1012E0000492526842409006000E305803900598D0
:1012F0002058484084093C40854E34598606360EB5
:10130000844DAE595E406640830B3B40824DEB58A6
:1013100073407E4E800D3840804C20585840039BCF
:10132000584093093B407E4CE3584340900B384073
:101330007C4C20585840920D3A407B4B9B58434080
:1013400004988068584082093A40714CA25884063B
:10135000240E704D2C594C405440810B39406E4A3C
:101360005158069D6140800D38406C4A12584A40E1
:101370001946E9410498C06848408106090E715831
:10138000514082093A40664CA2584A40810B39408C
:10139000644C64585440059A800D3840624909589D
:1013A00061401032802A96D140F20010029A101843
:1013B00002907F20C44305941846E841029A15190B
:1013C0002A468032049256684640B006000E4F4CC2
:1013D0002058039080202858584085093D404C4CA7
:1013E00065598406240E4B4A14594C406C40810BBD
:1013F0003940494A51586140800D3840474C205887
:10140000484003994840B1093940454C6158414032
:10141000B00B3840434C20584840B10D3940424E43
:1014200071584140049A9068484084093C40384DC6
:101430002C5985062D0E374E75595D406540830B3E
:101440003B40354CE3586B40069D800D3840334C93
:1014500024585C400B46EB41D06858408206120E7F
:101460002A4B9A586240059C83093B402C4EF35806
:101470005340820B3A402B4EB2585A40800D3840B0
:10148000294B1B585340103495D10120C3411846B5
:1014900048401D4A1040434048404008C9070818CA
:1014A000010A5940174A11404B400902414088083F
:1014B0005840134A104043401A0C84004C40A1B2DB
:1014C000514008045840020961404A400B4B1A4001
:1014D0005140009CE1710B0AA3710B0C6371090E62
:1014E000217111014140E170080AA070080C607080
:1014F000080E2070002007B0F0BDC0460F0F0F0F80
:1015000033333333FF00FF00AAAAAAAA70410008B0
:101510007040000870420008703E0008703C0008EF
:10152000703F0008703D0008703B0008F0B5E1B066
:101530000646500702D0012061B0F0BD14460D46AA
:101540006698182807D0102803D101A8194600F082
:10155000B8F82CB90DE001A8194600F01DF944B106
:101560000027E919F21901A8FFF708FE0837A7427A
:10157000F7D301A800F055F8002061B0F0BDF0B538
:10158000E3B016460F4604466898182806D010287F
:1015900008D103A8194600F0A4F803E003A81946EF
:1015A00000F00AF9072132460A40304601D03046A1
:1015B00008308843B0422DD100920290019166B369
:1015C00000257919621903A8FFF7D8FD0835B5423F
:1015D000F7D3083D0298B04216D9029802F042FAB9
:1015E0007919721B0746FEF7AFFD00983818714253
:1015F000019A1140FEF7C1FD621903A83946FFF7B1
:10160000BDFD384602F004FA03A800F00AF802987B
:1016100063B0F0BD002063B0F0BDCD43B042F3D95C
:10162000DBE780B518B140F2801101F08FFF80BD7B
:10163000F0B589B016460C460546114600F0CCF8C8
:10164000204680300836314600F0C6F840F20010DF
:101650000695281804900121C8430594F834039492
:101660000027F821029180210191FC2100913B4645
:1016700005990890069CE219966FCE50C8180790FD
:10168000D26F4260E218C819029D4559019E9551DA
:10169000009D405984255051E058049CE050E018CA
:1016A000526842600398C018079A5268CD58856006
:1016B000C2600898083F0833801C1E28D9D309B09F
:1016C000F0BD10B5E0B00A4601466C462046FFF773
:1016D000AFFF204640F2801101F038FF002060B0DB
:1016E00010BD10B5E0B00A466C462146FFF7A0FFDA
:1016F000204640F2801101F029FF002060B010BDAB
:10170000F0B587B016460C460546114600F064F861
:10171000204680303146083100F05EF840F200107B
:1017200028181036314600F057F840F27810069528
:1017300028180594F83404940121CA430021F823A1
:10174000029380230193FC2300930B4603920768C6
:10175000059DEF50EF1846687E60069CE6186F18EE
:10176000029D7D59019C3551009C3D598427F551BE
:10177000049DED18069C6618B66FAE60039CA6002B
:1017800080190646F43E3668EE6008390833921C2C
:101790001E2ADCD307B0F0BD10B5E0B00A46014602
:1017A0006C462046FFF7ACFF204640F2801101F066
:1017B000CDFE002060B010BD10B5E0B00A466C460A
:1017C0002146FFF79DFF204640F2801101F0BEFE4A
:1017D000002060B010BD0000F0B595B012900A78FE
:1017E00010064B781B0418188B781B02C018CB7896
:1017F000C318087900064C79240420188C79240237
:101800000019C9794118080914935840BA4D054088
:101810002E465E403007800EB84C2058C700B009F5
:101820003C231840205880003843B70B1F40E7592D
:101830007F000743B00D184020583843F7081F4079
:10184000E759FF010743F00A184020588001384348
:10185000F60C1E40A65976010643D0081C22024011
:10186000A05802013243A648441C224028014840A7
:10187000A4490140A448149D284009184D001D406A
:10188000A2484559ED00CE091E408659B6002E43A8
:10189000CD0B1D4045596D003543CE0D1E40865978
:1018A0002E438D081D404559ED0135438E0A1E40DB
:1018B0008659B6012E438D0C1D4043595B013343BD
:1018C000090F8900405805011D43254001210804E6
:1018D000109048040F9088040E9008050D9048055C
:1018E0000C9008060B90C8060A9000231191F1E0B5
:1018F000834B981E1A2402260696139008941146CC
:10190000E140B2401446044027460F43BE041497FA
:101910004120C004304009079B1C07931940260151
:10192000029409239B063340591893030A9E3340BF
:101930000B43034390010B990840184351020C9B41
:101940001940014353080D9803400B43B90201911C
:101950000E9E31401943A3000F9E33400B43960A5D
:1019600010990E401E43284606998840034640F2CF
:1019700000173B403343460B42F200073E401E43F4
:101980000309014641F200073B4033430898C54034
:101990000895139C0C40A00B04902C43A6011394B3
:1019A00040F600073E401E4300914B0840F20045C0
:1019B0002B403343064640F2002006401E434B09AD
:1019C00020200690034033438E0A102535401D43E6
:1019D000E0080590082303402B438D0C04262E407D
:1019E0001E438B0E0220039003403343CD01ED0FC5
:1019F0001D43129805600A98019901401746149AF0
:101A0000D603119C630733407D04079805405B199A
:101A10000B439005A50605401D43B8086306034027
:101A20002B43029C60000B9A10401843149A130435
:101A30000C9A13400343F8020D9A10401843E30038
:101A4000119AD4041C400443B8090E9A1040204354
:101A50000F9A164006433809109A104030430099F7
:101A60000A4640F200231A400243880842F200036B
:101A700018401043139D2A0241F200031A4002430A
:101A800040F600000830049B184010434A0A40F218
:101A900000431A400243E80140F20013184010438B
:101AA000CA09069B1A4002431120059B18401043A7
:101AB000089AD207520F0243480D03990840104379
:101AC0001299486008311291099B5B1C102B149AE3
:101AD00011990ED00F2B099300D909E701209840E6
:101AE0000B4C204200D103E71B240E46044B184642
:101AF00002E715B0F0BDC0460F0F0F0FF03A000817
:101B0000FEFFFF0FEFEFEFEF10101010303B00085B
:101B10000381000070B550B10C46054606A6217839
:101B2000304601F01BFD6D1E641C002DF7D104A092
:101B300001F0CEFF70BDC046253032582C000000A9
:101B40000D0000003C4800680249411848424841E5
:101B50007047C04600A7BAB470B5012490B10546DD
:101B6000FFF7F0FF70B10024074821460A58130E12
:101B70006B546B18DA70160A9E70120C5A70091D9D
:101B80001029F3D1204670BD04FC0008F0B585B0E3
:101B90000124002843D0054600F052F800F058FA1E
:101BA000202000F00BFA102000F008FA042000F0CA
:101BB00005FA214E304600F00BFA20B100F002FA8F
:101BC00000F044F82BE01D49304600F051FA20B1F6
:101BD00000F0F8F900F03AF821E00F20C743E819C7
:101BE000017C0906427C12045118827C1202891879
:101BF000C07C0918F019143000F03AFA58B93F1DAA
:101C0000EDD100F0DFF900F021F801A8FFF7A4FF03
:101C100040B1032403E000F0D5F900F017F8E0B27A
:101C200005B0F0BD01A910222846FEF7B1FA08B9A7
:101C30000446F4E70324F2E700FC00080059454B92
:101C400080B51548052101F0F2FB80BDB0B540F22A
:101C50000075691D104C204601F0E1FB012802D1FE
:101C6000204601F0ABFBE91C204601F0D0FBA91C8B
:101C7000204601F0CCFB691C204601F0C8FB204641
:101C800040F2007101F0C3FB01F00AFB0521204680
:101C900001F0D6FBB0BDC0460038014010B5421E71
:101CA0001B490D2A25D81E20C043401D930001A4C6
:101CB000E3189F4600F01EB800F018B800F019B8FD
:101CC00000F017B800F015B800F013B800F011B824
:101CD00000F00FB800F00DB800F00BB800F00CB831
:101CE00000F00CB800F00DB800F00EB8881D80B2FE
:101CF00010BD081D80B210BD88B210BD481C80B256
:101D000010BD881C80B210BDC81C80B210BDC0467A
:101D1000E1FF000080B57E48006820B17D490022C7
:101D20000A708068804780BD80B57948006808B136
:101D3000C068804780BDC046754908607047C0468E
:101D4000734800210160704770B50C46054630208D
:101D500000210A4600F090F8064678B940F6A070D7
:101D600000F0CEF9FEF7E8FF2846214600F012F811
:101D7000064618B100F09AF90028F3D0304670BD3D
:101D800080B56348006820B10178624A11704068EC
:101D9000804780BDF0B583B00E4600250D805C4FB6
:101DA000396879B10290086980473868016A5948F2
:101DB0000078401CC0B288470446386824B14069A6
:101DC000804754E00B2452E0C069804704463868DD
:101DD000C06980473946074600020019C21E2548DF
:101DE000824206D3002030800868406980470D2475
:101DF0003DE001940868C06914468047009044485B
:101E00000068C06980473480A1B2412907D300200F
:101E100030803F480068406980470D2427E00199E1
:101E20004F4000994F40009047400196308858B18C
:101E3000019E029C36480068C06980476055474053
:101E40006D1C30888542F5D3314C2068406A80474C
:101E50000546206840698047AF4204D10520FFF75E
:101E600085F9009C03E00020019908800E2420469B
:101E700003B0F0BDFE030000F0B585B014460D467A
:101E800004AAD07000269670E31C1370190A5170D2
:101E90001F4F3A68C2B101930290039110698047C5
:101EA0001C4800783968096A8847074630BB02E059
:101EB000761C042E0AD004A8805D1549096889693A
:101EC00088470028F4D018E00B271EE0039E0198F5
:101ED0004640029846405CB128780D4909688969F6
:101EE000884750B928784640641E6D1C002CF3D1F9
:101EF000074800688169F0B28847074604480068CF
:101F0000406980470520FFF731F9384605B0F0BD3C
:101F1000440300203C020020F0B581B01C46154669
:101F20000A460146002018800220FFF7A5FF074659
:101F300010B1384601B0F0BD0798069E00F0E0F8F9
:101F400003E000F0B3F80028F3D1FEF7F5FE2846D1
:101F50002146FFF71FFF07460428F2D00C2FE8D1D7
:101F60003046FFF703F9ECE7B0B5002378B171B163
:101F70006AB188420DD98B1883420AD9491E0023C1
:101F8000DB438C5C8518EC54521EFAD1034618468C
:101F9000B0BD0023CC5CC4545B1C9A42FAD1B0BDE6
:101FA00010B5CD4C206028B10178012902D14168DB
:101FB00001488847206810BD3C0000202349086084
:101FC0007047C0463848016880220A430260704763
:101FD000F0B581B005460F200404204600F016F845
:101FE00008B101B0F0BD304E306802273843306090
:101FF00075603068402101433160204600F006F8EA
:102000003168B943316001B0F0BDC04670B5441EBF
:102010000025641E2E466E4100F008F8012801D10B
:10202000002EF6D1012800D1052070BD07480168B7
:10203000C90707D10168C90606D400684108022013
:102040000840704701207047042070470C20024070
:102050000448C168090603D50349016003490160CA
:102060007047C0460420024023016745AB89EFCD8D
:10207000F0B581B00C4605460F2006043046FFF748
:10208000C5FF08B101B0F0BD074908680127384312
:1020900008602C603046FFF7B9FF034A1168B94366
:1020A000116001B0F0BDC046102002401848006821
:1020B00016490968814201D200207047012070470B
:1020C000704780B5012000F038FA80BD80B500204F
:1020D00000F033FA80BD80B500F075FA00F0CDFA5B
:1020E00080BD80B500F06FFA00F0C7FA80BD80B502
:1020F00000F094FA80BD80B500F0AAFA80BD00001F
:10210000024909680818024908607047380200202F
:102110006006002080B50A20FFF728F880BD80B552
:102120000A20FFF723F880BD70B50446C1B2064D02
:10213000284601F047F9054E2846314601F06FF96F
:102140000028F9D0204670BD003801400707000084
:10215000B0B502461F4B174818601F4818605960F9
:102160000D4901200D46DC68044015B16D1C002CA2
:10217000F9D1604260415CB9084C22409A60022269
:10218000DC68144011B1491C002CF9D104B10020C5
:1021900008B105491960B0BD0200F0FFFF0F000053
:1021A0000C48014901607047AAAA0000094801498A
:1021B00001607047CCCC0000034909680140481E0B
:1021C000814108467047C0460C3000400148024932
:1021D000016070470030004055550000F0B585B0F3
:1021E00003930E468A4C2171E07078216170802142
:1021F0002170000AA070651D284611463246FDF781
:10220000A3FFA81907223146049211400822571A49
:102210002F493A46FFF7A8FEBE19267110200290FA
:1022200000902C4F7B4B384629463246FFF7A7F9E2
:10223000284639463246FFF797FE77480068274F11
:1022400090B1846940F6A0700A2100910190701D40
:1022500081B26F48724E734D32462B46A04738B15B
:10226000FFF71CFD05460EE01C20C043851E0AE05A
:10227000288802283D4606D38019411E0978801E11
:10228000007800024518A8B249F2000188421BD12B
:10229000644E3088821E402A17D80498104014D10A
:1022A0000A9F029800900E4C5D495A4B2046FFF75A
:1022B0003DF93088821E03982146FFF755FE30888D
:1022C000801E38802F4600E02F46B8B205B0F0BD22
:1022D000140000208000002048030020E3FF0000DD
:1022E000A0000020F0B583B017460D46484E0021EF
:1022F0003171F0707922727080223270000AB070F1
:10230000321D701D00900192424A1023FEF738FDE5
:102310004148006898B102958569307940F6A0710E
:102320000A2200920191411D3D4A3E4C304616461C
:102330002346A84728B1FFF7B1FC064609E0374E0F
:1023400008E020888019411E0978801E007800026C
:102350004618029D49F2000086420AD131480078B1
:1023600000950197801EC1B22D482A4A002300F033
:1023700037FC304603B0F0BDF0B583B01F461546BC
:10238000234E717101213171F070772272708022B9
:102390003270000AB070321D701D009001921D4A0B
:1023A0001023FEF7EDFC1C48006898B10295856982
:1023B000307940F6A0710A2200920191411D184A1D
:1023C000184C304616462346A84728B1FFF766FC4E
:1023D000064609E0114E08E020888019411E097860
:1023E000801E007800024618029D49F200008642D5
:1023F0000AD10C48007800950197801EC1B20848A8
:10240000044A002300F0ECFB304603B0F0BDC046A8
:102410003D0200206407002048030020E1FF000087
:10242000E000002020010020F0B582B00191016A97
:102430000090446A00252E4603E02D1D761C082ED0
:102440000AD01746F740FF07F7D0019FAF400F2390
:10245000AB4099433943F0E70825002603E0361DD9
:102460006D1C102D0AD01346EB40DB07F7D0019B03
:10247000B3400F27B740BC431C43F0E7009801620C
:10248000446202B0F0BD8162704781617047C162F1
:10249000704700690840411E88417047F0B582B01E
:1024A000019305680090C0680026374603E0B61C1B
:1024B0007F1C102F0ED0019BFB40DB07F7D013468B
:1024C000B3400324B440A04318430B46B340A54394
:1024D0001D43ECE700990D60C86002B0F0BDF0B597
:1024E00081B0012902D14168194301E04168994353
:1024F00041600090816800240320264603E0A41C6C
:10250000761C102E0AD01F46F740FF07F7D017465B
:10251000A7400546A540A9433943F0E700988160EC
:1025200001B0F0BD81B040F2E83000900098411E4B
:1025300000910028FAD101B07047F0B585B0009045
:102540000920C006022103900291FFF79EFF00269A
:10255000012001903446039F04943846019C214693
:10256000FFF793FFFFF7DEFF38460299FFF791FF71
:10257000054638462146FFF786FF681E85410498C8
:1025800040004419FFF7CEFF701C072E0646E3D328
:10259000039E0098022118B13046FFF774FF02E055
:1025A0003046FFF772FFFFF7BDFF01253046294691
:1025B000FFF76BFFFFF7B6FF30462946FFF763FFD3
:1025C000E0B205B0F0BDF0B581B004460920C50603
:1025D000002602200090012716E028460099FFF708
:1025E00052FFFFF79FFF28463946FFF74EFFFFF7E0
:1025F00099FF28463946FFF746FF6400FFF792FF30
:10260000701C072E064607D260B20028E5D5284682
:102610000099FFF73AFFE4E701B0F0BD70B509207B
:10262000C406022620463146FFF72FFF012520462B
:102630002946FFF72AFFFFF775FF20463146FFF7CF
:1026400022FFFFF76FFF20462946FFF71CFF70BDF2
:10265000B0B50920C406022520462946FFF713FF1E
:1026600001212046FFF711FFFFF75CFF20462946B6
:10267000FFF70BFFFFF756FFB0BDF0B581B00920A3
:10268000C406022620463146FFF7FFFEFFF74AFF49
:10269000012520462946FFF7F8FEFFF743FF0027F4
:1026A00020463146FFF7F5FE30B1781CC82F0746AB
:1026B000F6D3FFF7CDFF04E001212046FFF7E3FE4C
:1026C0000025284601B0F0BD84B000F077FDFEF78C
:1026D000CFFAFEF7AFFAFEF733FB1D4FF81C00F000
:1026E00055FA0646B81C00F051FA0546384600F087
:1026F0004DFA0390781C00F049FA0446781D00F06A
:1027000045FA144B0028184600D01348019018468B
:1027100004B112480090194606B111491A4605B194
:10272000104A039800B1104B10A000F017FF00F002
:1027300061F9FEF701FBFDF7BDFDFEF7FDFAFDF7C0
:10274000E3FFFEF7F9FAFEF757F9FEF727F8F8E787
:102750001A0900001847000884430008884300084D
:102760008D430008944300087F4300085B5359538E
:102770005D2072657365742063617573653A2573B6
:1027800025732573257325730D0A0000F0B59DB0E0
:102790000646002401910C802E4D2868FDF7CBFCE5
:1027A00029680029204600D4481C02962860FDF7BD
:1027B000B9FC18A90855641C102CF8D126480168EA
:1027C000406819901891102618A908AA07AB30463E
:1027D00000F02CFA074649F20000874236D10096F5
:1027E00008A908241D4B029D28462246FEF79EFE9E
:1027F00018A9083128462246FDF7CAFC08B1184F2F
:1028000024E003AC08AF0825204639462A46FFF7E6
:10281000ABFB0096083439460831104B20462A4657
:10282000FEF7ADFE07AB284621463A4600F036FAE1
:10283000074649F20000874208D1009603A9074BDA
:1028400002983246FEF79BFE0198068038461DB07E
:10285000F0BDC04630020020780000206400002057
:10286000CEFF000010B50446FDF720FE2046FDF720
:102870000FFE10BD034A0A40024303480260BFF343
:102880004F8F704780FFFF1F08ED00E043487047FF
:10289000B0B5414D2978062918D88A0001A39A18A5
:1028A0009746C04600F00CB800F014B800F022B80B
:1028B00000F025B800F02DB800F039B800F03DB8B0
:1028C000A52849D101242C702046B0BD00202870D5
:1028D00001242AE00124A52827D05A2843D13048D2
:1028E00000210170022028702C48FE21FDF745FCD4
:1028F0002046B0BD03212970284908703CE02749D3
:10290000487070B3FB2832D300202870032420467F
:10291000B0BD23490A78214B9C18A070501C087048
:102920005978C0B20124884219D22046B0BD0002B5
:10293000FC211A4A505206201DE0FC2217498B5AEE
:1029400003438B52084600F02DF8002129704142C4
:1029500041414C002046B0BD04242046B0BD0520B6
:1029600002E0052007E0002028702046B0BD0C489A
:10297000002101700420287001242046B0BDC0460B
:1029800010B50548002404700448FE21FDF7F5FB4E
:102990000348047010BDC0465B0400205C040020A6
:1029A0004D040020B0B5B0B1044611485A21417021
:1029B000A5210170217881706178C170617861B161
:1029C000A21C0021535C45182B71491C6378994265
:1029D000F8D3081D02E00020B0BD042081B20448F5
:1029E000FDF748FCFC21615A411A48424841B0BDFC
:1029F0004C0300200120000602490A6802430A60D5
:102A00007047C04624100240F0B581B00246544BD6
:102A100018680C21014053480829044618D1196848
:102A20008902090F0F2901D08C1C00E010241D68B9
:102A30002D0101D511310C461968C90301D44A4949
:102A400005E0996A0F250D40691CB0FBF1F14C437C
:102A50001D6818681968052A1ED800902D062D0FCC
:102A600042A77F5D2546FD408904490F43A77E5C50
:102A70002946F140960001A08019874600F00AB867
:102A800000F00CB800F00CB800F066B800F00FB819
:102A900000F016B821465FE000215DE029465BE0CA
:102AA00000984005400F385CC540294654E0D86A7C
:102AB000C0051CD4D86AC0032ED5334801B0F0BD80
:102AC000D86A800748D0D86A0322104001282146DE
:102AD00042D0D86A104048F2000102283CD0D86A9F
:102AE000104003281F4800D0002001B0F0BD1A6834
:102AF000D86A1204920F930001A4E3189F46C046BF
:102B000000F006B800F00BB800F00DB800F011B8F6
:102B1000002812D449081FE01A4801B0F0BD00286F
:102B20000FD4890818E000280FD40620B1FBF0F17B
:102B300012E000280DD4C9080EE00320B5FBF0F127
:102B40000AE00520B5FBF0F106E00720B5FBF0F147
:102B500002E00920B5FBF0F1084601B0F0BDC04627
:102B60000410024000127A0000093D00000000003D
:102B7000000000000102030406070809000000002D
:102B800001020304809FD500003FAB011F210140DB
:102B90008009124A8258CA40012010407047C0463E
:102BA0001F21014001228A4080090C4943581343E8
:102BB000435070471F21014001228A408009074984
:102BC00043589343435070471F21014001228A40DC
:102BD0008009024943581343435070470010024094
:102BE00070B592B00C460146601E179E3F2801D971
:102BF000002417E01346169D1020009002A82246DC
:102C0000FEF794FC002034B1641EE1B202AA515CCC
:102C10008029F8D100E00446E4B202A92846224601
:102C2000FFF7A2F9348012B070BD0000F0B583B098
:102C30000293154607463648102202710022C270E0
:102C400082707122427080220270401D3A46FFF766
:102C50008BF930480068304EE8B1846940F6A070C6
:102C60000A2100910190781D81B229482A46029FCD
:102C70003B46A04718B1FFF711F806460BE038882D
:102C8000022807D34019411E0978801E00780002EF
:102C9000461800E0B61CB0B203B0F0BDF0B583B08A
:102CA000029315460746FE48082202710022C270B0
:102CB000012282707322427084220270401D3A46C3
:102CC000FFF752F9F7480068F74EE8B1846940F61B
:102CD000A0700A2100910190781D81B2F0482A4627
:102CE000029F3B46A04718B1FEF7D8FF06460BE00F
:102CF0003888022807D34019411E0978801E0078C1
:102D00000002461800E0B61CB0B203B0F0BDC046E9
:102D10003D02002048030020E1FF00009EB07A48F9
:102D2000FFF73EFF0920C406012109910026202556
:102D3000204632462B46FFF7B1FB2046314632464D
:102D40002B46FFF7CCFB20462946FFF79EFB1027BA
:102D50002046099932463B46FFF7A0FB2046314604
:102D600032463B46FFF7BBFB20463946FFF78DFB5B
:102D7000FDF7E2FF654800F0ABFE20462946FFF76D
:102D800086FB40F2F410FEF7DDF920462946FFF7F6
:102D90007EFB40F2F410FEF7D5F9701C182E0646A3
:102DA000EBD306945AA000F093FE00200790664FE4
:102DB00028200590664E27E00AA900200880624F6F
:102DC0003C6803910EA902910190099900910F228C
:102DD0000146724B00F00CF901463868021B70483E
:102DE00000F0BCFB2024069D28462146FFF74FFB40
:102DF00040F2D070FEF7A6F928462146FFF747FBC0
:102E000040F2F410FEF79EF9FEF7D4F8FDF794FFB8
:102E10000DAC079820803D680EAA4FF6007005990A
:102E20002346FFF7A9FA39684A1B05462388474815
:102E3000294600F093FB208868B1079C0EA8015D2D
:102E4000304600F08BFB601C0DA9092C03D80988C3
:102E500088420446F2D33FA000F03AFE49F2000057
:102E6000854202D13CA000F033FE0CAC0027278045
:102E70003548006808904FF60070401C80B2282149
:102E80000EAA0991234600F0ABF905462E480068CA
:102E90000899421A23883D48294600F05FFB49F211
:102EA0000000854202D13A4800F012FE0BAD2F809F
:102EB000254C206808900EA938462A46FFF712FADA
:102EC0002168044608980A1A2B883248214600F0E7
:102ED00045FB288858B10EA8C15D304600F03EFB86
:102EE0000BA80A2F03D87F1C00888742F3D319A0B0
:102EF00000F0EEFD49F20000844200D05CE7264875
:102F000000F0E6FD58E7C04611050000DC4500086A
:102F10005B51554945545D20E7AD89E5BE85E7BB6A
:102F200093E69D9F2C20E5BC80E5A78BE4B88DE55A
:102F3000819AE9858DE7BDAEE79BB4E68EA5E9975A
:102F4000AEE58DA10D000000380200206D4600089E
:102F5000F34600080D0000002A2A2A2A2A2A2A2AD3
:102F600020E5AFBBE58DA1E68890E58A9F2120E8AA
:102F7000AFB7E8B4B4E59B9EE69CACE8A18C2120F9
:102F80002A2A2A2A2A2A2A2A0D000000FA4400089E
:102F9000724500082C460008A4450008704300084C
:102FA00098430008FFF7BAFE70B5B0B102784378D5
:102FB0001B029A188378C4782402E3181B049A1819
:102FC0008379C47905794079074E000240192402BB
:102FD000E3181B0418183260706019B103481022FE
:102FE000FDF7B2F870BDC0467800002064000020F4
:102FF000F0B583B01546A04CE170A07070206070F1
:1030000080202070901C2071661D30461946FEF706
:10301000ABFF089870557019099941702179201DEE
:1030200000960190954A10233046FDF7A9FE2079BD
:10303000451D28462146FEF76DFD9148006888B180
:10304000876940F6A0700A21009101908A488E4C51
:103050008E4E294622463346B84728B1FEF71EFE5B
:10306000044609E0874C07E030880019411E0978C2
:10307000801E00780002441849F2000084420CD1FE
:103080000B980A99814A127800910190901EC1B262
:103090007D487A4A0023FFF7A3FD204603B0F0BD28
:1030A0003D02002048030020E1FF000003490968B9
:1030B0000140481E814108467047C0461800014043
:1030C00070B583B0374B9A1C3748011F0C68144306
:1030D0000C60012254040D685E1E9E4202D22540FF
:1030E0003346F8D00B68234200D1FEE72F4C256809
:1030F00002231D430526B54325600468902525431A
:10310000056004680460046804600468284D254074
:1031100005601D24240405682543056012060C681B
:1031200014430C600A689201FCD5016802910321E6
:10313000029A8A430292029919430291029901600C
:103140000C2102680A40082AFBD100220192019951
:103150007F2905D80199491C019101998029F9D34A
:1031600001680091F021009B8B4300938023009C19
:103170001C430094009B03600192019A7F2A05D8AA
:10318000019A521C0192019A802AF9D30268009296
:10319000009A8A430092009900910099016003B05F
:1031A00070BDC046FEFF0000041002400020024037
:1031B000FFFFC27780B5FFF783FF80BD80B507486A
:1031C000006840F2E831B0FBF1F0FDF7C5F800B15E
:1031D000FEE70020FDF78AF980BDC0461000002000
:1031E000F0B583B01F461546D24E71710121317181
:1031F000F0707522727080223270000AB070321D39
:10320000701D00900192CE4A1023FDF7B9FDCD4804
:10321000006898B102958569307940F6A0710A225C
:1032200000920191411D184A184C3046164623461B
:10323000A84728B1FEF732FD064609E0C24E08E075
:1032400020888019411E0978801E007800024618E7
:10325000029D49F2000086420AD10C480078009590
:103260000197801EC1B20848B54A0023FFF7B8FC99
:10327000304603B0F0BDC0463D0200206407002088
:1032800048030020E1FF0000E000002020010020B2
:103290003348008833490988401AC0B27047C04695
:1032A0002F4800882F4908807047C0462D4908885C
:1032B0002D4A105C0A88521CD2B20A807047C04660
:1032C000B0B501464C4C204600F07CF8034D20463A
:1032D000294600F0A4F80028F9D0B0BD0707000087
:1032E000B0B548B10C4639B105462878FFF7E8FF7C
:1032F000641E6D1C002CF8D1B0BD000010B590B15B
:1033000009490A684B688968140EC470140C8470EB
:10331000140A44700270594001710A0EC2710A0CFD
:103320008271090A417110BDACF7FF1F10B5324C14
:103330000A49204600F08DF870B1204600F03EF8B2
:1033400007490A88521CD2B2064B1B889A4203D006
:103350000B88054CE0540A8010BDC04605000507E7
:103360005A0600205C0600205A050020B0B50D4624
:1033700004462148844204D02048844205D10220DA
:1033800000E00520FFF740FB00E000202168090471
:1033900006D469084018B0FBF5F080B2E060B0BD1B
:1033A000690840004018B0FBF5F0034901400007F0
:1033B000400F4018E060B0BDF0FF0000416A0348D4
:1033C00008407047014A0A4082627047FF010000CE
:1033D00010B50949884204D00849884208D1084CF0
:1033E00000E0044C2046FFF7EFFB2046FFF7E2FB2E
:1033F00010BDC0460E0300000038014000440040EC
:1034000011040000016801220A43026070471F2274
:103410000A4001219140026A0A43026270471F225A
:103420000A4089090958D1400120084070471F22ED
:103430000A400123934089090A589A430A50704769
:103440001F220A400123934089090A581A430A504F
:1034500070471F220A400B049B0D1B58D3408A0D56
:103460001258C802C00EC2401A40012010407047D6
:10347000026804239A43026002680A4302607047AC
:10348000026808239A43026002680A430260704798
:10349000F0B583B002930E46264C2171E070762180
:1034A000617080212170000AA070651D28461146B8
:1034B0003246FEF759FDA819072131400822571A54
:1034C0001D493A46FEF750FDBE19267110200090A6
:1034D0001A4F1B4B384629463246FEF750F828460D
:1034E00039463246FEF740FD16480068164DF0B1E9
:1034F000089F846940F6A0700A2100910190701D18
:1035000081B20C48029E32463B46A04718B1FEF7F6
:10351000C5FB05460BE03888022807D38019411EF9
:103520000978801E00780002451800E0AD1CA8B2A2
:1035300003B0F0BD3D0200201400002080000020F8
:103540006407002048030020E1FF000021B10022B1
:103550000270401C491EFBD1704700000FB410B52B
:1035600003A9044B044A029800F018F810BC08BCE8
:1035700004B01847292100080400002002E008C810
:10358000121F08C1002AFAD170477047002001E0DD
:1035900001C1121F002AFBD170470000FFB591B096
:1035A0000F460546002606E025280AD0149A1399EE
:1035B00090476D1C761C28780028F5D1304615B050
:1035C000F0BD002400940121F34A029400E004437A
:1035D0006D1C2B780846203B98401042F7D1287884
:1035E0002A280ED0022128780246303A092A15D816
:1035F000009A0A235A43303A80180C436D1C0090FD
:10360000F1E701CF0090002805DA012040030443D0
:10361000009840420090022004436D1C28782E2818
:1036200015D10420044368786D1C2A280AD101CFE3
:103630006D1C02900BE002990A2251433039401868
:103640006D1C02902878014630390929F3D9287871
:103650006C2810D006DC4C281AD068280ED06A28B6
:1036600017D104E0742813D07A2812D110E0012079
:10367000400504430CE00121090501E0032109058F
:103680000C436978814203D10120000524186D1C88
:103690006D1C287803906E281ED00CDC632831D076
:1036A00004DC00288AD0582811D1B2E064287BD0ED
:1036B00069280CD178E073282DD004DC6F2870D0F5
:1036C000702804D1A7E075286CD078286BD0149AA4
:1036D00013999047761C62E06002400F022807D0E1
:1036E00003280AD0042838680AD006603F1D56E037
:1036F0003868F11706604160F8E738680680F5E73A
:103700000670F3E73878694608740020487404A806
:103710000390012003E0386803900020C0433F1D60
:1037200061070FD5002101E00199491C029A01911E
:10373000914213DA8142F7DB019A0399895C0029EF
:10374000F2D10BE0002101E00199491C0191814275
:10375000FADB019A0399895C0029F5D10199009857
:10376000139A401A00902146149B00F03BF90199EE
:103770008019461807E0039803990078491C0391C3
:10378000149A139990470198401E0190401CF2D161
:103790002146149B139A009800F014F986196D1CA9
:1037A00009E741E033E034E00A200021049005916C
:1037B0006002410F022905D001CFC21794460329A8
:1037C00005D007E0FF1DFF08FF0003CF06E000B2B1
:1037D000C2179446042902D140B2C1178C46002278
:1037E0006146944506DA0A460021404291418C46E2
:1037F0002D2102E0210504D52B216A4611760121F5
:1038000003E0E10701D02021F7E7019154E00A200D
:103810000BE0102009E01020049000210420044354
:1038200008200591029003E00820002105910490F2
:103830006002410F022905D001CF002294460329DE
:1038400006D006E0FF1DFF08FF0003CF8C4603E013
:1038500080B2042900D1C0B20021019121072BD5EB
:103860000399702906D0049A1021059B4A401A43F7
:1038700005D00EE040216A461176012108E061463C
:10388000014306D030216A46117603995176022110
:103890000191049A0821059B4A401A430CD16146C4
:1038A000014301D1610707D530216A461176012114
:1038B00001910299491E02910399582904D037A118
:1038C00003910FA90F910DE039A1F9E76146059B1E
:1038D000049AFCF76AFC039B8C469B5C0F9A521E71
:1038E0000F92137061460143F0D10F9807A9081A8F
:1038F00020300390600704D501200004844302981F
:1039000001E0012002900399884201DD401A00E0A5
:10391000002041180290019809180098401A009060
:10392000E00306D42146149B139A009800F05AF83D
:1039300086190020049008E006A9085C149A1399DF
:1039400090470498401C761C049001998842F3DB50
:10395000E0030CD52146149B139A009800F042F81E
:10396000861904E0149A302013999047761C029926
:10397000481E02900029F5DC08E00F980F990078A6
:10398000491C0F91149A13999047761C0399481E6D
:1039900003900029F1DCFBE60928010030313233C5
:1039A000343536373839616263646566000000007B
:1039B0003031323334353637383941424344454665
:1039C00000000000F8B5044600251E46174688048E
:1039D00004D405E039462020B0476D1C641EF9D59B
:1039E0002846F8BDFFB50446002581B01E46C80331
:1039F00001D5302700E02027880404D505E03846AB
:103A00000399B0476D1C641EF9D5284605B0F0BD7A
:103A100010B5002823D0124B0022001F196803E0C4
:103A2000814203D80A4649680029F9D1002A0AD000
:103A30001368841A9C4204D100681818106010465C
:103A400002E0506000E01860002907D002680B1AFD
:103A5000934203D10B68D21802604968416010BDDF
:103A600008000020F0B50B30C108C900144F002633
:103A7000144A0FE003688B420BD38B4205D95C1AC2
:103A80004318456830C3083B00E04368136002C038
:103A900004E0021D10680028ECD13046002803D154
:103AA0003868002801D00020F0BD064A06481060A2
:103AB000064A121AD208D20044C001203860D7E763
:103AC0000C000020080000207C070020780B00205C
:103AD00010B5044601E0FEF727FB2078641C03497B
:103AE0000028F8D10A20FEF71FFB10BD04000020BB
:103AF00000000000010000000001000001010000C2
:103B000000000100010001000001010001010100AD
:103B1000000000010100000100010001010100019D
:103B20000000010101000101000101010101010189
:103B30000000000000000001000001000000010181
:103B4000000100000001000100010100000101016D
:103B5000010000000100000101000100010001015D
:103B60000101000001010001010101000101010149
:103B70000004010100000000000001000404010134
:103B80000400010104040100040000000000010021
:103B9000000400000004010104040101000400000D
:103BA0000404000104000101000000010400000001
:103BB00004040000000400010004000100040100EE
:103BC00000040100000001010000010104040001E3
:103BD00004000100040000010400000104000100D1
:103BE00000000000040400000404010000000001C3
:103BF00000000100040401010400000000000101B4
:103C000000040101000000010000000100040000A8
:103C10000400010100000100000401000400000193
:103C2000000400000400000004040001040401007A
:103C3000040401010400010000000101040400016A
:103C40000400000104040000040401000004010158
:103C50000404000000040001000400010000000052
:103C60000400010000040100000000000400010144
:103C700020801080008000800080000020801000E4
:103C80000000100020000000200010802080008034
:103C900020000080208010800080108000000080C4
:103CA0000080008000001000200000002000108034
:103CB0000080100020001000208000800000000024
:103CC00000000080008000002080100000001080B4
:103CD0002000100020000080000000000080100084
:103CE00020800000008010800000108020800000F4
:103CF0000000000020801000200010800000100054
:103D00002080008000001080008010800080000073
:103D100000001080008000802000000020801080C3
:103D200020801000200000000080000000000080C3
:103D30002080000000801080000010002000008023
:103D40002000100020800080200000802000100053
:103D50000080100000000000008000802080000033
:103D60000000008020001080208010800080100063
:103D7000080200000002020800000000080002081B
:103D80000002000800000000080202000002000813
:103D900008000200080000080800000800000200F7
:103DA00008020208080002000000020808020000E1
:103DB00000000008080000000002020800020000E5
:103DC00000020200000002080800020808020200C7
:103DD00008020008000202000000020008020008B9
:103DE00008000000080202080002000000000008AD
:103DF000000202080000000808000200080200009B
:103E0000000002000002020800020008000000009A
:103E10000002000008000200080202080002000878
:103E2000080000080002000000000000080002086E
:103E30000802000800000200000000080802020852
:103E4000080000000802020000020200080000084A
:103E50000000020808020008080200000000020832
:103E60000802020008000000080002080002020028
:103E700001208000812000008120000080000000DF
:103E8000802080008100800001008000012000006F
:103E900000000000002080000020800081208000C1
:103EA0008100000000000000800080000100800010
:103EB00001000000002000000000800001208000C0
:103EC0008000000000008000012000008020000031
:103ED0008100800001000000802000008000800040
:103EE00000200000802080008120800081000000F0
:103EF0008000800001008000002080008120800080
:103F00008100000000000000000000000020800090
:103F100080200000800080008100800001000000FF
:103F2000012080008120000081200000800000002E
:103F300081208000810000000100000000200000BE
:103F400001008000012000008020800081008000AE
:103F5000012000008020000000008000012080007F
:103F60008000000000008000002000008020800011
:103F700000010000000108020000080200010042E8
:103F800000000800000100000000004000000802DE
:103F90000001084000000800000100020001084084
:103FA000000100420000084200010800000000403B
:103FB000000000020000084000000840000000006F
:103FC0000001004000010842000108420001000217
:103FD0000000084200010040000000000000004214
:103FE0000001080200000002000000420001080079
:103FF0000000080000010042000100000000000273
:1040000000000040000008020001004200010840DA
:104010000001000200000040000008420001080208
:1040200000010840000100000000000200000842FA
:10403000000108420001080000000042000108429F
:1040400000000802000000000000084000000042DC
:10405000000108000001000200010040000008000B
:1040600000000000000008400001080200010040BC
:1040700010000020000040200040000010404020C0
:1040800000004020100000001040402000004000D0
:1040900000400020104040000000400010000020C0
:1040A00010004000004000200000002010400000F0
:1040B0000000000010004000104000200040000000
:1040C0000040400010400020100000001000402080
:1040D0001000402000000000104040000040402040
:1040E0001040000000404000004040200000002040
:1040F0000040002010000000100040200040400060
:10410000104040200000400010400000100000203F
:10411000000040000040002000000020104000008F
:1041200010000020104040200040400000004020CF
:1041300010404000004040200000000010004020DF
:10414000100000000040000000004020104040002F
:10415000004000001000400010400020000000005F
:1041600000404020000000201000400010400020CF
:1041700000002000020020040208000400000000EB
:1041800000080000020800040208200000082004C3
:1041900002082004000020000000000002000004CB
:1041A00002000000000000040200200402080000D9
:1041B000000800040208200002002000000800049B
:1041C0000200000400002004000820040200200077
:1041D000000020040008000002080000020820047B
:1041E0000008200002000000000000040008200079
:1041F0000000000400082000000020000208000465
:104200000208000402002004020020040200000052
:10421000020020000000000400080004000020004C
:104220000008200402080000020820000008200402
:10423000020800000200000402082004000020041C
:104240000008200000000000020000000208200416
:104250000000000002082000000020040008000008
:104260000200000400080004000800000200200012
:104270004010001000100000000004004010041066
:10428000000000104010001040000000000000106E
:10429000400004000000041040100410001004004E
:1042A0000010041040100400001000004000000046
:1042B000000004104000001000100010401000002A
:1042C000001004004000040040000410001004101E
:1042D000401000000000000000000000400004103A
:1042E0004000001000100010401004000000040006
:1042F0004010040000000400001004100010000032
:1043000040000000400004100010000040100400B5
:1043100000100010400000004000001000000410D9
:1043200040000410000000100000040040100010C5
:104330000000000040100410400004004000001085
:1043400000000410001000104010001000000000D9
:104350004010041000100400001004004010000081
:104360004010000040000400000000100010041085
:10437000072426154027F0281F0C1026401854202B
:1043800050494E00204C500020504F5200204657BC
:1043900044475400205357005B4E4F2D4346475D22
:1043A0002028E5AFB9E785A7297365745F74616755
:1043B0005F72656164657228E586992030783238CD
:1043C00029202053573D3078253034582064743DDF
:1043D00025756D730D0A0D0A005B434D445D205534
:1043E0006E6B6E6F776E20434D443D3078253032D2
:1043F0005820286F6E6C792030312F303220737541
:1044000070706F72746564290D0A005B52464944EE
:104410005D20656E6372797074206661696C656495
:104420002C2075706C6F616420736B6970706564AB
:10443000202853453D2573290D0A005B434D445DFB
:1044400020434D443D303120627574204C454E3D33
:104450002564202865787065637465642030206663
:104460006F7220554944207175657279290D0A00D3
:104470005B52585D20435243204552522120434D08
:10448000443A25303258204C454E3A253032582097
:10449000524543565F4352433A25303458204341F6
:1044A0004C435F4352433A253034580D0A005B5267
:1044B0004649445D20746167206461746120746FB3
:1044C0006F2073686F72743A202575203C20257523
:1044D0000D0A005B524649445D206765745F746154
:1044E000675F7569642073686F727420726573709A
:1044F000206C656E3D25750D0A005B4E4F2D4346C1
:10450000475D207461675F616374697665285461F3
:10451000675F53696743685F4B65792920202020D6
:104520002053573D3078253034582064743D25752C
:104530006D73206C656E3D25750D0A005B52464912
:10454000445D204B4559206E6F742073746F726503
:10455000642C20736B697020286E6565642070720E
:104560006F746F636F6C2D303220777269746529B8
:104570000D002A2A2A2A2A2A2A2A20E6BF80E6B4FF
:10458000BBE68890E58A9F2120E8AFB7E8B4B4E5A0
:104590009B9EE69CACE8A18C21202A2A2A2A2A2A62
:1045A0002A2A0D002A2A2A2A2A2A2A2A20E8AFBBE8
:1045B000E588B0E6A087E7ADBEE695B0E68DAE2112
:1045C00020E8AFB7E8B4B4E59B9EE69CACE8A18CCC
:1045D00021202A2A2A2A2A2A2A2A0D005B515549F3
:1045E00045545D20E58588E5AE89E99D99E7AD896B
:1045F000E5BE8520323520E7A7922C20E8AEA92021
:10460000534520E5AE8CE68890E5AE83E887AAE5C1
:10461000B7B1E79A84E8AFBBE58DA1E599A8E58835
:104620009DE5A78BE58C962E2E2E0D005B4E4F2D13
:104630004346475D206765745F7461675F646174BA
:104640006120202020202020202020202020202029
:1046500020202053573D3078253034582064743D55
:1046600025756D73206C656E3D25753A005B4E4F68
:104670002D4346475D206765745F7461675F7569A8
:104680006428307832382920202020202020202043
:10469000202020202053573D307825303458206486
:1046A000743D25756D73206C656E3D25753A00531C
:1046B000544F524544004F46464C494E45004F4EDC
:1046C0004C494E45004E4F41555448002020202073
:1046D000436F7272656374206672616D65207368E2
:1046E0006F756C642062653A204135203541202584
:1046F0003032582025303258005B52585D204F4BE5
:1047000020434D443A25303258204C454E3A25300E
:10471000325800454D505459005B53455D204F467B
:10472000464C494E45202861757468206661696C65
:1047300065642C2053573D307825303458290D0AB4
:10474000005B53455D20656E63727970742046414D
:10475000494C3A20706C61696E20746F6F206C6FE9
:104760006E67202825753E2575290D0A005B534587
:104770005D20656E6372797074204641494C3A2021
:10478000636970686572206C656E20257520213D17
:104790002025750D0A005B53455D204F46464C4968
:1047A0004E45202864726976657220726567697368
:1047B000746572206661696C6564290D005B534500
:1047C0005D204F4E4C494E4520286175746820731A
:1047D0007563636573732C2073657373696F6E5FA4
:1047E0006B6579207265616479290D005B53455DC5
:1047F00020637265643A204B4559206E6F742073B4
:10480000746F7265642C2066616C6C6261636B20EE
:10481000746F2053444B2064656D6F206372656430
:104820000D005B53455D204F4B202575422D3E25E5
:10483000754220503A00000058480008000000204F
:10484000800000007C350008D84800088000002067
:10485000F80E00008C350008000000000000000089
:10486000000000000000000000A24A0480000000D8
:104870000000000001000000391D0008291D00088B
:10488000811D0008151D0008491D0008191F00089A
:10489000411D0008E20000001F210008152100084A
:1048A000C1200008EF200008F7200008E3200008DE
:1048B000C3200008D7200008CD200008CC5B14B628
:1048C000E2F25929649FA55C726BAED5000000002E
:0848D00011223344556677887C
:04000005080000CD22
:00000001FF
