:020000040800F2
:1000000020070020E1000008530600085106000800
:1000100000000000000000000000000000000000E0
:10002000000000000000000000000000A50600081D
:100030000000000000000000A3060008CD06000834
:100040000D0100080D0100080D0100080D01000858
:100050000D0100080D0100080D0100080D01000848
:10006000000000000D0100080D0100080D0100084E
:100070000D0100080D0100080D010008000000003E
:100080000D0100080D010008000000000D0100082E
:100090000D0100080D0100080D0100080D01000808
:1000A0000D0100080D0100080D010008CD07000832
:1000B0000D0100080000000000000000000000002A
:1000C0000D010008000000000D01000803488546EE
:1000D00000F08AF800480047C111000820070020FE
:1000E0000B4802680B480240120C92020A4940F287
:1000F000000001C1121F002AFBD1084880470848B0
:100100000047FEE7FEE7FEE7FEE7FEE7FEE700004A
:10011000E0F7FF1F0000FFFF00000020E1060008DD
:10012000CD00000803460B439B0703D009E008C934
:10013000121F08C0042AFAD203E00B780370401C97
:10014000491C521EF9D27047D2B201E00270401C25
:10015000491EFBD270470022F6E710B513460A4647
:1001600004461946FFF7F0FF204610BD30B504469F
:100170000020034600E05B1C934203D2E05CCD5CB0
:10018000401BF8D030BDF0B51FB40646002082B049
:1001900005464024019100901BE0019922460F463C
:1001A000304600F043F8049A059B801A994110D319
:1001B00010461946224600F029F8361A8F41019759
:1001C000224601200021009F00F020F838184D4100
:1001D00000902046641E0028DFDC019B0098294621
:1001E000324607B0F0BD0000064C0125064E05E082
:1001F000E36807CC2B430C3C98471034B442F7D348
:10020000FFF768FF082000082820000810B5202A02
:1002100004DB0146203A9140002010BD914020238C
:100220009C1A0346E3401943904010BD10B5202AA4
:1002300004DB0846203AD040002110BD0B46D340D5
:10024000D0402024A21A91400843194610BD000056
:10025000F0B5EC4EA9B100220B4B144603E0641C30
:100260008C422E460ED0055D7540164604E03D4694
:10027000771C072E3E46F2D26F08ED07F7D05F409D
:10028000F5E73546A8B2F0BD01A0000080B5142006
:1002900000F0B0F803210140032903D0142003210A
:1002A00000F0B2F980BD0000F0B583B00024002852
:1002B0005FD000295DD0054601910A20802739468C
:1002C00000F0A2F90E2000F062F80D240021204673
:1002D000029100F0A4F909269321304600F09FF91D
:1002E0002021304600F09BF901200C21009000F005
:1002F00096F92046394600F087F940F2D074C14E95
:100300000427200407D0641E384600F073F88006E6
:10031000800FF6D000E034460D2000F038F82004BD
:1003200022D0062000F066F81B210842029C1CD156
:100330000A2000F05FF8052817D10026092420467E
:1003400000F058F8A855761C052EF8D12878697861
:100350004140A8784840E9784140287981420BD152
:1003600001980770009C00E0029C0E20802100F0A4
:100370004BF9204603B0F0BD0024F6E780B53720E6
:1003800000F038F8FF2800D000B9002080BD10B57B
:10039000044600F02FF87F210140204600F03FF98D
:1003A00010BD000080B582B001200F2100F037F9A8
:1003B0000F4801900198411E01910028FAD12A208E
:1003C0008D2100F02CF92B203E2100F028F92C2063
:1003D000012100F024F92D20E02100F020F9262051
:1003E000702100F01CF9FFF751FF02B080BDC0463C
:1003F00050C30000F0B583B0044600F08DFE5020DD
:1004000000F060FE00F0B6FE08B1002541E0204695
:1004100000F058FE00F0AEFE00F07EFE512000F02D
:1004200051FE00F0A7FE1C488021019100F0F3FD71
:100430000025082440200090174E02953046009D6C
:10044000294600F0E8FD00F0ABFC3046019900F0D1
:10045000E4FD07463046294600F0DBFD781E874163
:1004600002984000C51900F09BFC641EE5D1802174
:10047000094C204600F0CFFD40262046314600F0D2
:10048000CAFD00F08DFC2046314600F0C2FD00F0B0
:100490005DFEE8B203B0F0BD0004004880B510B1C5
:1004A0002821FFF758FE002080BD0000F0B581B084
:1004B00000900A208027394600F0A6F8042630462E
:1004C000FFF765FF0D240721204600F0A8F809205A
:1004D000262100F0A4F801250C21284600F09FF801
:1004E0002046394600F090F840F2D074454F200481
:1004F00007D0641E3046FFF77DFF8006800FF6D0E0
:1005000000E03C460D20FFF742FF0026200417D0F4
:100510000620FFF76FFF1B21084211D10A20FFF7C9
:1005200069FF02280CD109242046FFF763FF064625
:100530002046FFF75FFF31020818009908802E4619
:10054000304601B0F0BDC046F0B581B000260028AD
:1005500055D00D46002952D004460A20802100F0D3
:1005600053F80D200026314600F059F80927932151
:10057000384600F054F87021384600F050F8A15D7C
:10058000384600F04CF8761CB542F8D1042D09D15C
:10059000207861784140A0784840E17841400920C6
:1005A00000F03DF801240C21204600F038F80D2021
:1005B000802100F029F840F2D077124E042538044B
:1005C00007D07F1E2846FFF715FF8006800FF6D064
:1005D00000E037460D20FFF7DAFE002638040ED083
:1005E0000620FFF707FF1B21084208D10A20FFF76A
:1005F00001FF012803D10920FFF7FCFE2646304603
:1006000001B0F0BDFFFF0000B0B50C460546FFF796
:10061000F1FE04432846214600F001F8B0BDB0B514
:100620000C46054600F078FD502000F04BFD00F030
:10063000A1FD00B1B0BD284600F044FD00F09AFDD8
:10064000204600F03FFD00F095FD00F07FFDB0BDBD
:10065000FEE740F2001001F001F8012800D1FEE7AA
:10066000FEE770B51C46DA7098705A205870A520C5
:100670001870042641B13AB1231D00200D5C1D54B1
:10068000401C8242FAD1061DB5B220462946FFF72A
:10069000DFFD711C89B26054000A6055B01C80B245
:1006A00070BDFEE7FEE7000010B5401E010E01D050
:1006B000012010BD044C6060032000F0B9F8002058
:1006C000A0600721216010BD10E000E00348016830
:1006D00011B10168491E01607047C0460800002042
:1006E00070B582B0354E341F206801252843206044
:1006F00020688007FCD530680C21014008292BD1E7
:1007000030680090F0200099814300918021009A88
:100710000A4300920099316000210191019A7F2AD9
:1007200005D8019A521C0192019A802AF9D33268A5
:100730000092009A824300929020009A0243009215
:1007400000983060019101987F2805D80198401CDD
:10075000019001988028F9D30320C04331680140FB
:10076000316000F071F8206815490140216030685F
:100770001449014031603068134901403160B06A6A
:100780000F218843B062F06A40F203118843F0629F
:100790002804F16A8143F162E807F16A8143F1625A
:1007A000306BA84330630024746000F0DBFFE80680
:1007B000214600F0B7FD02B070BDC04604100240F3
:1007C000FFFFF2FE0C00FF08FFFFC27780B501F0CB
:1007D0006FF880BD002807D41F21014001228A4004
:1007E00040098000014942507047C04600E100E0E6
:1007F000002805D40322034693430C4A9A1806E0C6
:100800000F220240083A03239A43074BD21880076D
:10081000C00E8901C9B28140FF238340106898430C
:10082000084310607047C0461CED00E000E400E0A3
:10083000FF210906034A13688B43800718181060CC
:100840007047C04620ED00E081B000200090009885
:10085000C0087C2807D840F2E8300099491C009174
:1008600000998142F9D301B070470000B0B584B05F
:1008700001AC204600F0FEFF01200C220D4D214668
:100880002B46FFF7EEFE0146284600F0E5FF0AA0E2
:1008900001F0B0F800250E4C01A8415D204601F0A2
:1008A000A9F86D1C0C2DF7D10AA001F0FDFA04B0D7
:1008B000B0BDC0461E0200205B54585D205549441F
:1008C00020517565727920526573703A20000000DE
:1008D000BF1F00080D00000010B582B001A9002262
:1008E0000A7000F08BFA20B101460BA001F082F8EB
:1008F00005E001A8012101700FA001F0D5FA022046
:1009000001A90122DD4C2346FFF7ABFE014620463C
:1009100000F0A2FF02B010BD5B4B45595D2057723D
:10092000697465204641494C45442C206572723DEE
:1009300025640D0A000000005B4B45595D2057728D
:1009400069746520535543434553530D000000001F
:1009500010B560B10446427801780EA001F04AF863
:100960002178022904D0012909D1607878B110BD1D
:100970006178102907D1A01CFFF7AEFF10BD19A0A8
:1009800001F038F810BD0AA001F034F810BDFFF7EF
:100990006DFF10BD5B52585D20434D443D307825BE
:1009A0003032582C204C454E3D25640D0A00000085
:1009B0005B4552525D204B4559206C656E677468EB
:1009C000206D69736D617463683A20657870656342
:1009D0007465642031362C20676F742025640D0AFD
:1009E000000000005B5741524E5D20556E6B6E6FEC
:1009F000776E20434D443A203078253032580D0A26
:100A00000000000080B500F00FFD064800210170D5
:100A100005480170054801604160018104A001F0B2
:100A200043FA80BD1A0000200C00002010000020B6
:100A30000D0A3D3D3D204170702050726F746F6310
:100A40006F6C20496E6974204F4B203D3D3D0D0079
:100A5000F0B58FB00EA8002505800AA90D70FFF72C
:100A600025FD20B30BA80AA9FFF71EFC48B30AA86E
:100A700001780BA8FFF768FD00284CD02B480178BF
:100A8000012920D10AA90978294A127891421AD15C
:100A9000002948D00022274B0BAC1E782778B7429C
:100AA00011D1521C641C5B1C8A42F6D33BE01F48E8
:100AB0000178012937D11E4900220A70027038A03E
:100AC0002AE031A028E0012101700AAC2278184800
:100AD000027018480BA9FFF725FB17A000F08AFF4A
:100AE000207850B11B4C0BA8415D204600F082FFDE
:100AF0006D1C0AA800788542F5D30EA8018816A0BF
:100B000000F078FF6846FFF7C9FC48B1684600F07E
:100B100091F80FB0F0BD16A001F0C6F90FB0F0BD0E
:100B2000124801F0C1F90FB0F0BDC0460C00002022
:100B30001A000020100000205B524649445D20430B
:100B40006172642064657465637465642C20554922
:100B5000443A2000BF1F00082C20547970653A20C9
:100B60003078253034580D0A00000000C51F0008F9
:100B70005B524649445D2053656C65637420666131
:100B8000696C65640D0000005B524649445D20417C
:100B90006E7469636F6C6C206661696C65640D00CE
:100BA0005B524649445D20436172642072656D6FFB
:100BB0007665640D00000000B0B500F02BFEC8B1F2
:100BC0000DA414A505E0284601F06EF900F022FE00
:100BD00080B100F027FE00F0B3FB032808D0022804
:100BE000F1D00028F2D100F0A9FBFFF7B1FEEDE74C
:100BF0002046E9E7B0BDC0465B4552525D204672D3
:100C0000616D65206C656E677468206572726F72C5
:100C10000D0000005B4552525D204672616D6520FB
:100C200043524320636865636B206661696C656449
:100C30000D000000B0B58AB06C46214600F0A8FD5A
:100C4000012028220D4D21462B46FFF70AFD0146C3
:100C5000284600F001FE0AA000F0CCFE00250D4C55
:100C60006846415D204600F0C5FE6D1C282DF7D179
:100C700009A001F019F90AB0B0BDC0461E0200205B
:100C80005B54585D205461672055706C6F61643A05
:100C900020000000BF1F00080D00000070B50D48C7
:100CA00000F0BCFC0C4C0125C026204629462A46F3
:100CB000334600F0B7F9032220462946334600F0B8
:100CC000D2F94021204600F0A6F98021204600F00C
:100CD000A2F970BD1205000000040048F0B583B011
:100CE0002C4C204600F09AFCFD34204600F096FC87
:100CF0000920C60601273046394640F2002200F09E
:100D000059F93046394640F2004200F053F90224C6
:100D10003046214602943A4640F2002300F082F920
:100D200000210191032530462A4640F2002300F0BD
:100D30009AF9304621463A4640F2004300F072F9F3
:100D40003046019C21462A4640F2004300F08BF9D0
:100D5000964E304600F0FEFDE1204102304600F0A4
:100D6000C7FD0821304600F03CFE0421304600F06B
:100D700030FE0521304600F014FE1B20029900F0E1
:100D8000C9FA304600F000FE03480480034804809E
:100D900003B0F0BD110500001A0200201C02002063
:100DA00081B0C82000900098411E00910028FAD11F
:100DB00001B070473748006802494118484248412D
:100DC0007047C04600A7BAB470B5012490B105467B
:100DD000FFF7F0FF70B10024074821460A58130EB0
:100DE0006B546B18DA70160A9E70120C5A70091D3B
:100DF0001029F3D1204670BD04FC0008F0B585B081
:100E00000124C8B3054600F093F8202000F046F80E
:100E1000102000F043F8042000F040F81D4E30464A
:100E200000F046F810B100F03DF825E01A493046D0
:100E300000F08EF810B100F035F81DE00F20C74328
:100E4000E819017C0906427C12045118827C1202C6
:100E50008918C07C0918F019143000F079F848B9E5
:100E60003F1DEDD100F01EF801A8FFF7ADFF30B136
:100E7000032401E000F016F8E0B205B0F0BD01A9CE
:100E800010222846FFF772F908B90446F4E7032454
:100E9000F2E7C04600FC00080059454B23490860B2
:100EA0007047C0463848016880220A430260704794
:100EB000F0B581B005460F200404204600F016F876
:100EC00008B101B0F0BD304E3068022738433060C1
:100ED00075603068402101433160204600F006F81B
:100EE0003168B943316001B0F0BDC04670B5441EF1
:100EF0000025641E2E466E4100F008F8012801D13D
:100F0000002EF6D1012800D1052070BD07480168E8
:100F1000C90707D10168C90606D400684108022044
:100F20000840704701207047042070470C200240A1
:100F30000448C168090603D50349016003490160FB
:100F40007047C0460420024023016745AB89EFCDBE
:100F5000F0B581B00C4605460F2006043046FFF779
:100F6000C5FF08B101B0F0BD074908680127384343
:100F700008602C603046FFF7B9FF034A1168B94397
:100F8000116001B0F0BDC0461020024070B50446AB
:100F9000C1B2064D284600F0D7FC054E2846314622
:100FA00000F0F7FC0028F9D0204670BD0038014061
:100FB00007070000F0B582B00191016A0090446A11
:100FC00000252E4603E02D1D761C082E0AD017465C
:100FD000F740FF07F7D0019FAF400F23AB40994385
:100FE0003943F0E70825002603E0361D6D1C102D5F
:100FF0000AD01346EB40DB07F7D0019BB3400F2725
:10100000B740BC431C43F0E700980162446202B061
:10101000F0BD816270478161704700690840411EE0
:1010200088417047F0B582B0019305680090C068B0
:101030000026374603E0B61C7F1C102F0ED0019B04
:10104000FB40DB07F7D01346B3400324B440A04372
:1010500018430B46B340A5431D43ECE700990D60D0
:10106000C86002B0F0BDF0B581B0012902D141687D
:10107000194301E041689943416000908168002470
:101080000320264603E0A41C761C102E0AD01F461F
:10109000F740FF07F7D01746A7400546A540A943EC
:1010A0003943F0E70098816001B0F0BD81B040F2B3
:1010B000E83000900098411E00910028FAD101B05C
:1010C00070470000F0B581B0044600263B4D8020FB
:1010D0000090402716E028460099FFF79AFFFFF797
:1010E000E5FF28463946FFF796FFFFF7DFFF284662
:1010F0003946FFF78EFF6400FFF7D8FF701C072EFC
:10110000064607D260B20028E5D528460099FFF7C9
:1011100082FFE4E701B0F0BD70B5284C8026204680
:101120003146FFF778FF402520462946FFF773FF39
:10113000FFF7BCFF20463146FFF76BFFFFF7B6FF16
:1011400020462946FFF765FF70BDC046B0B51B4C71
:10115000802520462946FFF75CFF40212046FFF707
:101160005AFFFFF7A3FF20462946FFF754FFFFF77A
:101170009DFFB0BD70B5114C802520462946FFF774
:101180004AFFFFF793FF40212046FFF744FFFFF798
:101190008DFF002620462946FFF73FFF38B1701C1F
:1011A000C82E0646F6D3FFF7D1FF012070BD4021BF
:1011B0002046FFF72EFF002070BDC0460004004807
:1011C00088B000F0D3FAFFF789FDFFF767FD2848E4
:1011D00000F06AFE27A000F067FE2FA033A136A220
:1011E00000F008FC37A000F05FFE05A800F042FB0D
:1011F0003FA000F0FFFB00253F4C05A8415D2046C5
:1012000000F0F8FB6D1C0C2DF7D13CA000F04CFE5B
:10121000FFF7D0FD88B101A8FFF7D6FD384800F0F0
:10122000E9FB0025344C01A8415D204600F0E2FBBB
:101230006D1C102DF7D131A000E0324800F034FED3
:10124000FFF7B0F8FFF79AF820B101462E4800F0FA
:10125000D1FB02E02D4800F027FEFFF7D3FB2C481E
:1012600000F022FEFFF7A8FCFFF7F2FBFAE7C0460A
:101270007C1F000820204744333245323330202B76
:1012800020464D3137363232205246494420537978
:101290007374656D0D00000020204275696C643A1E
:1012A0002025732025730D0A000000004D61792070
:1012B000323120323032360031373A33323A34323A
:1012C000000000003D3D3D3D3D3D3D3D3D3D3D3D42
:1012D0003D3D3D3D3D3D3D3D3D3D3D3D3D3D3D3D3E
:1012E0003D3D3D3D3D3D3D3D3D3D3D3D0D00000015
:1012F0005B5549445D200000BF1F00080D00000041
:10130000A81F0008ED1E0008C81E0008451F0008A1
:101310001C1F000810B50446FFF76AFA2046FFF7C5
:1013200059FA10BD034A0A40024303480260BFF362
:101330004F8F704780FFFF1F08ED00E04148704766
:10134000B0B53F4D2978062918D88A0001A39A180C
:101350009746C04600F00CB800F014B800F022B870
:1013600000F025B800F02DB800F039B800F03DB815
:101370000124A52831D12C702046B0BD0020287052
:1013800001242AE00124A52827D05A2840D12E483C
:1013900000210170022028702A48FE21FEF7DBFEA2
:1013A0002046B0BD032129702649087039E025493F
:1013B000487058B3FB282FD3002028700324204600
:1013C000B0BD21490A781F4B9C18A070501C0870B2
:1013D0005978C0B20124884216D22046B0BD00021E
:1013E000FC21184A505206201AE0FC2215498B5A5B
:1013F00003438B52084600F029F80021297041422E
:1014000041414C002046B0BD052002E0052007E028
:10141000002028702046B0BD0B4800210170042038
:10142000287001242046B0BD10B505480024047082
:101430000448FE21FEF78FFE0348047010BDC0462D
:101440001B0000201C0000200D000020B0B5C0B023
:1014500090B1044668460F49018021788170657813
:10146000C57065B16846001DA11C2A46FEF75AFEEC
:10147000681EC0B2411D03E0002040B0B0BD042191
:101480006846FEF7E5FEFC21615A411A4842484190
:1014900040B0B0BDA55A0000F0B581B00246544B33
:1014A00018680C21014053480829044618D11968CE
:1014B0008902090F0F2901D08C1C00E010241D683F
:1014C0002D0101D511310C461968C90301D44A49CF
:1014D00005E0996A0F250D40691CB0FBF1F14C4302
:1014E0001D6818681968052A1ED800902D062D0F52
:1014F00042A77F5D2546FD408904490F43A77E5CD6
:101500002946F140960001A08019874600F00AB8EC
:1015100000F00CB800F00CB800F066B800F00FB89E
:1015200000F016B821465FE000215DE029465BE04F
:1015300000984005400F385CC540294654E0D86A01
:10154000C0051CD4D86AC0032ED5334801B0F0BD05
:10155000D86A800748D0D86A032210400128214663
:1015600042D0D86A104048F2000102283CD0D86A24
:10157000104003281F4800D0002001B0F0BD1A68B9
:10158000D86A1204920F930001A4E3189F46C04644
:1015900000F006B800F00BB800F00DB800F011B87C
:1015A000002812D449081FE01A4801B0F0BD0028F5
:1015B0000FD4890818E000280FD40620B1FBF0F101
:1015C00012E000280DD4C9080EE00320B5FBF0F1AD
:1015D0000AE00520B5FBF0F106E00720B5FBF0F1CD
:1015E00002E00920B5FBF0F1084601B0F0BDC046AD
:1015F0000410024000127A0000093D0000000000C3
:1016000000000000010203040607080900000000B2
:1016100001020304809FD500003FAB011F21014060
:1016200001228A4080090C494358134343507047B4
:101630001F21014001228A408009074943589343F2
:10164000435070471F21014001228A40800902490E
:101650004358134343507047001002400349096840
:101660000140481E814108467047C04618000140AD
:1016700070B583B0374B9A1C3748011F0C68144370
:101680000C60012254040D685E1E9E4202D2254069
:101690003346F8D00B68234200D1FEE72F4C256873
:1016A00002231D430526B543256004689025254384
:1016B000056004680460046804600468284D2540DF
:1016C00005601D24240405682543056012060C6886
:1016D00014430C600A689201FCD501680291032151
:1016E000029A8A4302920299194302910299016077
:1016F0000C2102680A40082AFBD1002201920199BC
:101700007F2905D80199491C019101998029F9D3B4
:1017100001680091F021009B8B4300938023009C83
:101720001C430094009B03600192019A7F2A05D814
:10173000019A521C0192019A802AF9D30268009200
:10174000009A8A430092009900910099016003B0C9
:1017500070BDC046FEFF00000410024000200240A1
:10176000FFFFC27780B5FFF783FF80BD80B50748D4
:10177000006840F2E831B0FBF1F0FEF795FF00B1F0
:10178000FEE70020FFF754F880BDC04604000020AB
:1017900070B5E8B30C46D9B3054600782070687878
:1017A0006070A878A070E878E07028792071A87936
:1017B00069792A7AEB79E37122726171A071687A92
:1017C0006072A87AA07220460B3029460B3106269B
:1017D0003246FEF7A7FC2046113029461131072278
:1017E000FEF7A0FC687E297EEA7EAB7EA376E276D9
:1017F0002176607620461C3029461C313246FEF7A1
:1018000091FC22342235204629463246FEF78AFCD6
:1018100070BD00003348008833490988401AC0B2BF
:101820007047C04630490888304A105C0A88521C0C
:10183000D2B20A807047C046B0B501464F4C204630
:1018400000F082F8034D2046294600F0A2F8002857
:10185000F9D0B0BD07070000B0B548B10C4639B1AA
:1018600005462878FFF7E8FF641E6D1C002CF8D1B0
:10187000B0BD000010B5C0B10C490A684B6889685A
:10188000C172C3711C0A84711C0C44711B0E03715C
:10189000C270130A8370130C4370120E02700A0A8E
:1018A00082720A0C4272090E017210BDACF7FF1F62
:1018B00010B5324C0A49204600F07CF870B1204641
:1018C00000F03EF807490A88521CD2B2064B1B882A
:1018D0009A4203D00B88054CE0540A8010BDC046E4
:1018E000050005071A0200201C0200201A01002032
:1018F000B0B50D4604462148844204D020488442B5
:1019000005D1022000E00520FFF7C6FD00E0002021
:101910002168090406D469084018B0FBF5F080B2CC
:10192000E060B0BD690840004018B0FBF5F0034925
:1019300001400007400F4018E060B0BDF0FF00001C
:10194000416A034808407047014A0A408262704772
:10195000FF01000010B50949884204D008498842B7
:1019600008D1084C00E0044C2046FFF76BFE2046EF
:10197000FFF75EFE10BDC0460E03000000380140B8
:101980000044004011040000016801220A43026083
:1019900070471F220A4089090958D1400120084098
:1019A00070471F220A400123934089090A581A43AD
:1019B0000A5070471F220A400B049B0D1B58D3404E
:1019C0008A0D1258C802C00EC2401A4001201040B1
:1019D0007047026804239A43026002680A43026067
:1019E0007047026808239A43026002680A43026053
:1019F000704700000FB410B503A9044B044A0298C5
:101A000000F018F810BC08BC04B018478D0F00088F
:101A10000000002002E008C8121F08C1002AFAD105
:101A200070477047002001E001C1121F002AFBD15E
:101A300070470000FFB591B00F460546002606E04E
:101A400025280AD0149A139990476D1C761C287883
:101A50000028F5D1304615B0F0BD002400940121D6
:101A6000F34A029400E004436D1C2B780846203BA7
:101A700098401042F7D128782A280ED002212878E1
:101A80000246303A092A15D8009A0A235A43303AB6
:101A900080180C436D1C0090F1E701CF00900028E6
:101AA00005DA0120400304430098404200900220E0
:101AB00004436D1C28782E2815D10420044368782F
:101AC0006D1C2A280AD101CF6D1C02900BE00299EF
:101AD0000A225143303940186D1C02902878014683
:101AE00030390929F3D928786C2810D006DC4C2825
:101AF0001AD068280ED06A2817D104E0742813D0B1
:101B00007A2812D110E00120400504430CE00121A5
:101B1000090501E0032109050C436978814203D1DD
:101B20000120000524186D1C6D1C287803906E2878
:101B30001ED00CDC632831D004DC00288AD0582861
:101B400011D1B2E064287BD069280CD178E07328E9
:101B50002DD004DC6F2870D0702804D1A7E0752840
:101B60006CD078286BD0149A13999047761C62E059
:101B70006002400F022807D003280AD004283868E2
:101B80000AD006603F1D56E03868F11706604160D4
:101B9000F8E738680680F5E70670F3E738786946B5
:101BA00008740020487404A80390012003E03868FA
:101BB00003900020C0433F1D61070FD5002101E0C5
:101BC0000199491C029A0191914213DA8142F7DB93
:101BD000019A0399895C0029F2D10BE0002101E010
:101BE0000199491C01918142FADB019A0399895CB0
:101BF0000029F5D101990098139A401A00902146C6
:101C0000149B00F03BF901998019461807E00398EE
:101C100003990078491C0391149A139990470198ED
:101C2000401E0190401CF2D12146149B139A00984B
:101C300000F014F986196D1C09E741E033E034E047
:101C40000A200021049005916002410F022905D06D
:101C500001CFC2179446032905D007E0FF1DFF08F6
:101C6000FF0003CF06E000B2C2179446042902D158
:101C700040B2C1178C4600226146944506DA0A46F6
:101C80000021404291418C462D2102E0210504D5DE
:101C90002B216A461176012103E0E10701D02021C2
:101CA000F7E7019154E00A200BE0102009E0102032
:101CB000049000210420044308200591029003E0D1
:101CC00008200021059104906002410F022905D0EF
:101CD00001CF00229446032906D006E0FF1DFF082D
:101CE000FF0003CF8C4603E080B2042900D1C0B2CC
:101CF0000021019121072BD50399702906D0049A60
:101D00001021059B4A401A4305D00EE040216A4647
:101D10001176012108E06146014306D030216A4670
:101D200011760399517602210191049A0821059BAD
:101D30004A401A430CD16146014301D1610707D5DE
:101D400030216A461176012101910299491E0291C2
:101D50000399582904D037A103910FA90F910DE0E1
:101D600039A1F9E76146059B049AFEF70CFA039B3B
:101D70008C469B5C0F9A521E0F9213706146014372
:101D8000F0D10F9807A9081A20300390600704D5F6
:101D9000012000048443029801E00120029003998D
:101DA000884201DD401A00E00020411802900198AD
:101DB00009180098401A0090E00306D42146149BAD
:101DC000139A009800F05AF886190020049008E051
:101DD00006A9085C149A139990470498401C761C35
:101DE000049001998842F3DBE0030CD52146149B53
:101DF000139A009800F042F8861904E0149A3020F3
:101E000013999047761C0299481E02900029F5DC30
:101E100008E00F980F990078491C0F91149A1399B4
:101E20009047761C0399481E03900029F1DCFBE6DD
:101E300009280100303132333435363738396162A0
:101E40006364656600000000303132333435363764
:101E5000383941424344454600000000F8B5044685
:101E600000251E461746880404D405E03946202084
:101E7000B0476D1C641EF9D52846F8BDFFB5044671
:101E8000002581B01E46C80301D5302700E0202779
:101E9000880404D505E038460399B0476D1C641EDC
:101EA000F9D5284605B0F0BD10B5044601E0FFF7AE
:101EB0006DF82078641C03490028F8D10A20FFF748
:101EC00065F810BD000000205B464D3137363232D8
:101ED0005D2056657273696F6E3A20307825303216
:101EE000582C20496E6974204F4B0D0A005B4B45FE
:101EF000595D204E6F742073746F7265642079652C
:101F0000742C2077616974696E6720666F72206433
:101F10006F776E6C6F61642E2E2E0D000D0A537953
:101F20007374656D2072656164792E2057616974E0
:101F3000696E6720666F7220636F6D6D616E64738A
:101F40002E2E2E0D005B464D31373632325D20434A
:101F50006F6D6D756E69636174696F6E204641497E
:101F60004C45442120436865636B2049324320631C
:101F70006F6E6E656374696F6E2E0D000D0A3D3DC8
:101F80003D3D3D3D3D3D3D3D3D3D3D3D3D3D3D3D81
:101F90003D3D3D3D3D3D3D3D3D3D3D3D3D3D3D3D71
:101FA0003D3D3D3D3D3D0D005B4B45595D20416C48
:101FB00072656164792073746F7265643A200025DC
:101FC00030325820005B524649445D2052656164BE
:101FD000207461672064617461206661696C656466
:101FE00020284B45592061757468206F72206472F7
:101FF00069766572206E6F7420696D706C656D65B1
:102000006E746564290D000028200008000000207F
:1020100008000000141A0008302000080800002002
:1020200018070000241A00080000000000A24A045B
:04000005080000CD22
:00000001FF
