:020000040800F2
:10000000680E0020E100000803080008010800084D
:1000100000000000000000000000000000000000E0
:10002000000000000000000000000000550800086B
:100030000000000000000000530800087D080008D0
:100040000D0100080D0100080D0100080D01000858
:100050000D0100080D0100080D0100080D01000848
:10006000000000000D0100080D0100080D0100084E
:100070000D0100080D0100080D010008000000003E
:100080000D0100080D010008000000000D0100082E
:100090000D0100080D0100080D0100080D01000808
:1000A0000D0100080D0100080D0100088909000874
:1000B0000D0100080000000000000000000000002A
:1000C0000D010008000000000D01000803488546EE
:1000D00000F09CF80048004701280008680E002046
:1000E0000B4802680B480240120C92020A4940F287
:1000F000000001C1121F002AFBD1084880470848B0
:100100000047FEE7FEE7FEE7FEE7FEE7FEE700004A
:10011000E0F7FF1F0000FFFF000000209D0800081F
:10012000CD0000080549064A08685043054A801872
:1001300008604008704701490860704700000020CF
:100140006D4EC6413930000003460B439B0703D078
:1001500009E008C9121F08C0042AFAD203E00B788C
:100160000370401C491C521EF9D27047D2B201E004
:100170000270401C491EFBD270470022F6E710B502
:1001800013460A4604461946FFF7F0FF204610BD05
:1001900030B504460020034600E05B1C934203D2C6
:1001A000E05CCD5C401BF8D030BDF0B51FB4064616
:1001B000002082B005464024019100901BE0019987
:1001C00022460F46304600F043F8049A059B801AF9
:1001D000994110D310461946224600F029F8361AE4
:1001E0008F410197224601200021009F00F020F856
:1001F00038184D4100902046641E0028DFDC019B2A
:1002000000982946324607B0F0BD0000064C012593
:10021000064E05E0E36807CC2B430C3C98471034AE
:10022000B442F7D3FFF756FFB4420008D4420008A7
:1002300010B5202A04DB0146203A9140002010BD71
:10024000914020239C1A0346E3401943904010BD7F
:1002500010B5202A04DB0846203AD040002110BD0A
:100260000B46D340D0402024A21A9140084319469F
:1002700010BD0000F0B58C4EA9B100220B4B144606
:1002800003E0641C8C422E460ED0055D7540164678
:1002900004E03D46771C072E3E46F2D26F08ED077C
:1002A000F7D05F40F5E73546A8B2F0BD01A00000E9
:1002B00080B5142000F07AF903210140032903D00E
:1002C0001420032100F06EFA80BD0000F0B58BB061
:1002D0000027002800D1B7E0002900D1B4E0069043
:1002E00005910A208025294600F05CFA0E2000F0D6
:1002F000E6F80D2600273046394600F05EFA09245C
:100300009321204600F059FA2021204600F055FAAA
:1003100001200C21049000F050FA3046294600F0EC
:1003200041FA40F2D074042540F2D076300407D070
:10033000761E284600F03AF98006800FF6D000E0DD
:10034000E74E0D2000F0BBF8300479D0062000F015
:100350002DF91B26304273D10A2000F027F9052819
:100360004AD1029600270926304600F01FF909A954
:10037000C8557F1C052FF7D109AE327877780197E1
:100380005740B1784F40F3785F40367904200390AE
:10039000B74234D1882A35D1069A937051700198AA
:1003A00010700A208021019100F0FCF90E2000F06D
:1003B00086F80D2004900027394600F0FEF9092642
:1003C0009521304600F0F9F92021304600F0F5F98A
:1003D00001200C21009000F0F0F90498019900F040
:1003E000E1F9029E20041CD0641E042000F0DEF817
:1003F0008006800FF6D015E000272A461DE0002772
:10040000039A1AE00998069A1070010ED170010C37
:100410009170000A5070042005990870049F002212
:100420000BE0DF4C0D2000F04AF8200404D0062039
:1004300000F0BCF830420BD0039A2A43042A06D1BC
:100440000E20802100F0AEF9F8B20BB0F0BDFBE752
:100450000A2000F0ABF80528039AEED10026092403
:10046000204600F0A3F807A98855761C052EF7D181
:1004700007A90A784B78184650408C786040CE78AF
:100480007040097988420AD1069FBE717C713B7128
:10049000FA700722059B1A700022009F01E00027D6
:1004A00004228842BBD0C8E7FFFF000080B5372098
:1004B00000F07CF8FF2800D000B9002080BD10B506
:1004C000044600F073F87F210140204600F075F9E2
:1004D00010BD000080B582B001200F2100F06DF941
:1004E000104801900198411E01910028FAD12A205C
:1004F0008D2100F062F92B203E2100F05EF92C20C6
:10050000012100F05AF92D20E02100F056F92620B3
:10051000702100F052F9FFF7CBFE03480021017073
:1005200002B080BD50C300003E030020B0B584B0CF
:100530001C4603460020BAB1B4B101AD69702B70FE
:10054000A81C062311461A46FFF7FEFDE078E87264
:10055000A078A87260786872207828720C21002236
:100560002846134601F0ECFD04B0B0BD70B588B06C
:10057000C1B10C4607AB58703020187001AE002591
:100580003570022102AA1846334601F0D9FD50B158
:100590003078122807D102A910222046FFF7D4FD97
:1005A000012500E00025284608B070BDB0B504461E
:1005B00002F0D2F8502002F0A5F802F0FBF810B1DA
:1005C0000024012516E0204602F09CF802F0F2F823
:1005D0000024012560B902F0BFF8512002F092F822
:1005E00002F0E8F820B90025284602F047F8044652
:1005F00002F0CCF8284602F02FF82046B0BDF0B546
:100600008DB00024D8B113460A46C1B1BBB105462E
:1006100060200421FFF78AFF88B1002401AE27463D
:10062000381DC0B23146FFF7A1FF40B17F1C103624
:10063000032FF5D101A8294600F08CFC01242046A7
:100640000DB0F0BDF0B581B000900A20802739468A
:1006500000F0A8F804263046FFF731FF0D240721EB
:10066000204600F0AAF80920262100F0A6F801256E
:100670000C21284600F0A1F82046394600F092F8F7
:1006800040F2D074464F200407D0641E3046FFF776
:100690008DFF8006800FF6D000E03C460D20FFF76E
:1006A0000EFF0026200417D00620FFF77FFF1B2136
:1006B000084211D10A20FFF779FF02280CD1092442
:1006C0002046FFF773FF06462046FFF76FFF310213
:1006D0000818009908802E46304601B0F0BDC0468B
:1006E000FFFF0000F0B581B00026002855D00D4670
:1006F000002952D004460A20802100F053F80D2032
:100700000026314600F059F809279321384600F0B9
:1007100054F87021384600F050F8A15D384600F0DA
:100720004CF8761CB542F8D1042D09D120786178B7
:100730004140A0784840E1784140092000F03DF870
:1007400001240C21204600F038F80D20802100F013
:1007500029F840F2D077124E0425380407D07F1EC6
:100760002846FFF723FF8006800FF6D000E03746CB
:100770000D20FFF7A4FE002638040ED00620FFF758
:1007800015FF1B21084208D10A20FFF70FFF01289F
:1007900003D10920FFF70AFF2646304601B0F0BD1D
:1007A000FFFF0000B0B50C460546FFF7FFFE04430F
:1007B0002846214600F001F8B0BD70B50D4606464A
:1007C00001F0CAFF502001F09DFF012401F0F2FF6B
:1007D00090B9304601F096FF01F0ECFF10B101F046
:1007E000D5FF09E0284601F08DFF01F0E3FF044644
:1007F000401E844101F0CAFF204601F02DFF70BD6C
:10080000FEE740F2001002F02DFB012800D1FEE7C8
:10081000FEE770B51C46DA7098705A205870A52013
:100820001870042641B13AB1231D00200D5C1D54FF
:10083000401C8242FAD1061DB5B220462946FFF778
:1008400019FD711C89B26054000A6055B01C80B259
:1008500070BDFEE7FEE7000010B5401E010E01D09E
:10086000012010BD044C6060032000F0BFF80020A0
:10087000A0600721216010BD10E000E0054801687C
:10088000491C01600448016811B10168491E0160FA
:100890007047C046280100202401002070B582B0B6
:1008A000354E341F206801252843206020688007CA
:1008B000FCD530680C21014008292BD1306800900C
:1008C000F0200099814300918021009A0A43009210
:1008D0000099316000210191019A7F2A05D8019A7F
:1008E000521C0192019A802AF9D332680092009A30
:1008F000824300929020009A024300920098306058
:10090000019101987F2805D80198401C0190019819
:100910008028F9D30320C04331680140316000F0E2
:1009200071F8206815490140216030681449014080
:1009300031603068134901403160B06A0F2188434B
:10094000B062F06A40F203118843F0622804F16A51
:100950008143F162E807F16A8143F162306BA84399
:1009600030630024746002F001FBE806214602F0C7
:100970006DF802B070BDC04604100240FFFFF2FEE9
:100980000C00FF08FFFFC27780B502F09BFB80BD23
:10099000002807D41F21014001228A40400980001D
:1009A000014942507047C04600E100E0002805D4EC
:1009B0000322034693430C4A9A1806E00F22024092
:1009C000083A03239A43074BD2188007C00E8901C7
:1009D000C9B28140FF2383401068984308431060E8
:1009E0007047C0461CED00E000E400E0FF2109066E
:1009F000034A13688B438007181810607047C0467D
:100A000020ED00E081B0002000900098C0087C2814
:100A100007D840F2E8300099491C009100998142C2
:100A2000F9D301B070470000B0B584B001AC2046E6
:100A300002F02AFB01200C220D4D21462B46FFF728
:100A4000E8FE0146284602F011FB0AA002F04EFC27
:100A500000250E4C01A8415D204602F047FC6D1CAC
:100A60000C2DF7D10AA002F0FBFE04B0B0BDC046C9
:100A7000540500205B54585D20554944205175654C
:100A8000727920526573703A200000001F420008FE
:100A90000D00000010B582B001A900220A7001F01B
:100AA0003BF920B101460BA002F020FC05E001A8B3
:100AB000012101700FA002F0D3FE022001A9012242
:100AC000124C2346FFF7A5FE0146204602F0CEFA5F
:100AD00002B010BD5B4B45595D20577269746520AB
:100AE0004641494C45442C206572723D25640D0AEF
:100AF000000000005B4B45595D205772697465200A
:100B0000535543434553530D000000005405002046
:100B100010B560B10446427801780EA002F0E6FB01
:100B20002178022904D0012909D1607878B110BD5B
:100B30006178102907D1A01CFFF7ACFF10BD19A0E8
:100B400002F0D4FB10BD0AA002F0D0FB10BDFFF7ED
:100B50006BFF10BD5B52585D20434D443D307825FE
:100B60003032582C204C454E3D25640D0A000000C3
:100B70005B4552525D204B4559206C656E67746829
:100B8000206D69736D617463683A20657870656380
:100B90007465642031362C20676F742025640D0A3B
:100BA000000000005B5741524E5D20556E6B6E6F2A
:100BB000776E20434D443A203078253032580D0A64
:100BC0000000000080B501F0C3FF0A480021017059
:100BD00009480170094801604160018100F016FB7D
:100BE00008B113A000E006A002F03AFE16A002F041
:100BF00037FE80BD4A0300203C0300204003002054
:100C00005B43525950544F5D2043686970206F66B2
:100C1000666C696E652C207573696E6720706173F0
:100C2000737468726F756768206D6F64650D00007E
:100C30005B43525950544F5D2043686970206F6E7A
:100C40006C696E650D0000003D3D3D2041707020D7
:100C500050726F746F636F6C20496E6974204F4BD4
:100C6000203D3D3D0D000000F0B5AFB02EA80025A1
:100C700005802AA805704748026847490B689A1AF8
:100C8000C82A01D22FB0F0BD096801602EA8FFF775
:100C9000D9FC20B32BA82AA9FFF718FB48B32AA830
:100CA00001782BA8FFF71EFD00284CD03B480178A7
:100CB000012920D12AA90978394A127891421AD1FA
:100CC0000029DFD00022374B2BAC1E782778B742A3
:100CD00011D1521C641C5B1C8A42F6D3D2E72F4808
:100CE00001780129CED12E4900220A7002705548A0
:100CF0002AE0534828E0012101702AAC22782848D4
:100D0000027028482BA9FFF71FFA27A002F0EEFA7D
:100D1000207850B12B4C2BA8415D204602F0E6FA1A
:100D20006D1C2AA800788542F5D32EA8018826A03C
:100D300002F0DCFA00F0CCFF18B126A800F0D2FFD8
:100D400030B134A000E03D4802F08AFD2FB0F0BD84
:100D50001CA826A92BAAFFF752FCB8B11FA002F0CD
:100D60007FFD1CA812AC214602F016F901AB002051
:100D70001870282102AA204600F0DAF940B101A833
:100D8000017802A800F09EF82FB0F0BD2048DBE704
:100D900019A0D9E71C010020280100203C030020F5
:100DA0004A030020400300205B524649445D204333
:100DB0006172642064657465637465642C205549B0
:100DC000443A20001F4200082C20547970653A20D4
:100DD0003078253034580D0A000000005B52464937
:100DE000445D2054616720646174612072656164B0
:100DF000204F4B0D000000005B524649445D2045EA
:100E00006E6372797074206661696C65640D0000B0
:100E1000254200085B524649445D204B4559206EEF
:100E20006F742073746F7265642C20736B6970200B
:100E300074616720726561640D0000006F420008F4
:100E40005742000885420008B0B502F0E7F8C8B183
:100E50000DA414A505E0284602F002FD02F0DEF81C
:100E600080B102F0E9F801F0FFFD032808D0022864
:100E7000F1D00028F2D101F0F5FDFFF749FEEDE7D2
:100E80002046E9E7B0BDC0465B4552525D20467240
:100E9000616D65206C656E677468206572726F7233
:100EA0000D0000005B4552525D204672616D652069
:100EB00043524320636865636B206661696C6564B7
:100EC0000D000000F0B581B00C4605460126154F17
:100ED0003046294622463B46FFF79BFC01463846F2
:100EE00002F0C4F810A03146224602F0FFF974B1B6
:100EF000601EC0B20F28274600D31027124E297853
:100F0000304602F0F3F97F1E6D1C002FF7D1102C34
:100F100002D90EA002F0EAF90DA002F0A1FC01B086
:100F2000F0BDC046540500205B54585D2055706CE0
:100F30006F616420434D443D307825303258204C59
:100F4000454E3D25643A20001F4200082E2E2E00FB
:100F50000D000000B0B50C460546007808706878B2
:100F60004870A8788870E878C87028790871A879DE
:100F700069792A7AEB79E37122726171A071687ADA
:100F80006072A87AA07220460B3029460B310522E8
:100F9000FFF7DAF8287C20742046113029461131F9
:100FA0000722FFF7D1F8287E697EAA7EEB7EE376E2
:100FB000A27661762076287F697FAA7FEB7FE37730
:100FC000A277617720772020295C2154681D007F5B
:100FD000611D087722342235062220462946FFF774
:100FE000B3F8B0BD70B50D4801F0AEFE0C4C012554
:100FF000C026204629462A46334601F0C1FA03227C
:1010000020462946334601F0DCFA4021204601F013
:10101000B0FA8021204601F0ACFA70BD1205000044
:1010200000040048F0B583B02C4C204601F08CFE43
:10103000FD34204601F088FE0920C606012730460F
:10104000394640F2002201F063FA3046394640F258
:10105000004201F05DFA02243046214602943A46ED
:1010600040F2002301F08CFA002101910325304663
:101070002A4640F2002301F0A4FA304621463A46BF
:1010800040F2004301F07CFA3046019C21462A469A
:1010900040F2004301F095FA114E304602F064F838
:1010A000E1204102304602F02DF80821304602F0DE
:1010B000B3F80421304602F0A7F80521304602F0CB
:1010C0008BF81B20029901F0B9FC304602F066F85B
:1010D000044804800448048003B0F0BD11050000FA
:1010E000003801404A0500204C05002080B501F081
:1010F00073F980BD10B501F085F90124204601F097
:1011000077F90128FAD00224204601F071F901286C
:10111000FAD07D20042101F037F90224204601F0A5
:1011200067F90128FAD001F057F901F05BF910BD19
:10113000F0B595B00024B8B31646AAB31D469BB3CC
:101140000F4602461A480078F0B104A80024048033
:10115000009005AB2046394602F066F8014649F298
:101160000007B94218D10024039402A8048000901B
:10117000042103AA2046334601F04CF9B8420FD1AE
:101180000298287001240FE0304611463A46FEF7D7
:10119000DBFF2F70012407E006A002F0A7F803E0B0
:1011A00001460FA002F0A2F8204615B0F0BDC046DF
:1011B0004E0500205B43525950544F5D20777269B1
:1011C00074655F73655F64617461206661696C65F5
:1011D000642C2053573D3078253034580D0A0000D8
:1011E0005B43525950544F5D206765745F73655F70
:1011F00064617461206661696C65642C2053573D9D
:101200003078253034580D0A00000000B0B592B097
:1012100009A800240480684604801C4800F080FF70
:1012200070B10546C0688047A86880476A690AA807
:1012300009A9904740B1014615A002F057F821E0F6
:10124000384802F00DFB1DE009A8018818A002F043
:101250004DF801A8694601F085FB014649F20000FE
:1012600081420CD168460288214801A9FEF76CFF33
:1012700020480124047020A002F0F2FA02E013A03A
:1012800002F034F8204612B0B0BDC0461C00002069
:101290005B43525950544F5D20415452206661695E
:1012A0006C65642C207265743D25640D0A00000095
:1012B0005B43525950544F5D20415452204F4B2CA8
:1012C000206C656E3D25640D0A0000005B43525999
:1012D00050544F5D2041757468206661696C656487
:1012E0002C2053573D3078253034580D0A0000002B
:1012F000540600204E0500205B43525950544F5D68
:101300002041757468204F4B2C2073657373696F8F
:101310006E5F6B65792065737461626C6973686573
:10132000640D00009A42000802490860086800281D
:10133000FCD1704724010020F0B587B0009205462B
:10134000087900064A79120410188A791202801866
:10135000CA798218087800064B781B0418188B7815
:101360001B02C018C978401801095140D24B1940DE
:101370004A4093B20C014440210C5940080460409B
:1013800051408A084240CD4B1A40504092004A409A
:10139000110A4140CA4B194048400B0253401F22DA
:1013A000D34119464140C74C21404B404140D141B7
:1013B000002202950592042406941846E041AC18D8
:1013C000049466684640B006000EBF4C2058039057
:1013D000A85858408409FC273C40BC4D2C59850630
:1013E0002D0EBB4A55594D406540810B3940B94AD5
:1013F00051586940800D3840B74C205848400399F7
:101400004840B1093940B54C61584140B00B3840B3
:10141000B34C20584840B10D3940B24C615841405E
:10142000049EB068484084093C40A84D2C5985066C
:101430002D0EA74A55595D406540830B3B40A54A98
:10144000D358A84A6B40800D3840A34C24585C40C8
:101450000B460698C341F0689B4E584083061B0E0E
:10146000F358634084093C409C4D2C595C40830BED
:101470003B409B4DED586540800D38401358059A10
:101480006B40029D1032802A94D180350195002254
:10149000069D05920846E841019CA21804925268F4
:1014A00042409006000E305803900598205848405E
:1014B00084093C40854E34598606360E844DAE591B
:1014C0005E406640830B3B40824DEB5873407E4E3E
:1014D000800D3840804C20585840039B5840930959
:1014E0003B407E4CE3584340900B38407C4C2058A6
:1014F0005840920D3A407B4B9B584340049880687B
:10150000584082093A40714CA2588406240E704D0E
:101510002C594C405440810B39406E4A5158069D1D
:101520006140800D38406C4A12584A401946E941E2
:101530000498C06848408106090E715851408209DC
:101540003A40664CA2584A40810B3940644C64587A
:101550005440059A800D3840624909586140103264
:10156000802A96D140F20010029A101802907F2033
:10157000C44305941846E841029A15192A46803258
:10158000049256684640B006000E4F4C2058039017
:1015900080202858584085093D404C4C65598406A8
:1015A000240E4B4A14594C406C40810B3940494A37
:1015B00051586140800D3840474C205848400399AD
:1015C0004840B1093940454C61584140B00B384062
:1015D000434C20584840B10D3940424E715841406B
:1015E000049A9068484084093C40384D2C5985063F
:1015F0002D0E374E75595D406540830B3B40354C91
:10160000E3586B40069D800D3840334C24585C40B5
:101610000B46EB41D06858408206120E2A4B9A586E
:101620006240059C83093B402C4EF3585340820B8B
:101630003A402B4EB2585A40800D3840294B1B5827
:101640005340103495D10120C341184648401D4AEB
:101650001040434048404008C9070818010A594053
:10166000174A11404B400902414088085840134A2C
:10167000104043401A0C84004C40A1B25140080471
:101680005840020961404A400B4B1A405140009CAF
:10169000E1710B0AA3710B0C6371090E2171110129
:1016A0004140E170080AA070080C6070080E2070BC
:1016B000002007B0F0BDC0460F0F0F0F3333333398
:1016C000FF00FF00AAAAAAAA003F0008003E0008E7
:1016D00000400008003C0008003A0008003D0008F7
:1016E000003B000800390008F0B5E1B0064650079D
:1016F00002D0012061B0F0BD14460D46669818284E
:1017000007D0102803D101A8194600F0B8F82CB969
:101710000DE001A8194600F01DF944B10027E919B0
:10172000F21901A8FFF708FE0837A742F7D301A86E
:1017300000F055F8002061B0F0BDF0B5E3B01646FA
:101740000F4604466898182806D0102808D103A828
:10175000194600F0A4F803E003A8194600F00AF9BE
:10176000072132460A40304601D0304608308843CF
:10177000B0422DD100920290019166B300257919F3
:10178000621903A8FFF7D8FD0835B542F7D3083D25
:101790000298B04216D9029802F02CF87919721BFF
:1017A0000746FEF7D1FC009838187142019A1140A3
:1017B000FEF7E3FC621903A83946FFF7BDFD384682
:1017C00001F0EEFF03A800F00AF8029863B0F0BD44
:1017D000002063B0F0BDCD43B042F3D9DBE780B564
:1017E00018B140F2801101F079FD80BDF0B589B0EB
:1017F00016460C460546114600F0CCF820468030CF
:101800000836314600F0C6F840F200100695281858
:1018100004900121C8430594F83403940027F8216B
:10182000029180210191FC2100913B46059908908D
:10183000069CE219966FCE50C8180790D26F42608E
:10184000E218C819029D4559019E9551009D4059C5
:1018500084255051E058049CE050E01852684260E2
:101860000398C018079A5268CD588560C2600898DE
:10187000083F0833801C1E28D9D309B0F0BD10B52D
:10188000E0B00A4601466C462046FFF7AFFF20460F
:1018900040F2801101F022FD002060B010BD10B5B3
:1018A000E0B00A466C462146FFF7A0FF204640F212
:1018B000801101F013FD002060B010BDF0B587B0BD
:1018C00016460C460546114600F064F82046803066
:1018D0003146083100F05EF840F20010281810364A
:1018E000314600F057F840F2781006952818059414
:1018F000F83404940121CA430021F8230293802381
:101900000193FC2300930B4603920768059DEF505B
:10191000EF1846687E60069CE6186F18029D7D5998
:10192000019C3551009C3D598427F551049DED18CB
:10193000069C6618B66FAE60039CA600801906462A
:10194000F43E3668EE6008390833921C1E2ADCD358
:1019500007B0F0BD10B5E0B00A4601466C4620461F
:10196000FFF7ACFF204640F2801101F0B7FC0020E9
:1019700060B010BD10B5E0B00A466C462146FFF7D6
:101980009DFF204640F2801101F0A8FC002060B0CD
:1019900010BD0000F0B595B012900A7810064B7893
:1019A0001B0418188B781B02C018CB78C318087951
:1019B00000064C79240420188C7924020019C97976
:1019C0004118080914935840BA4D05402E465E4010
:1019D0003007800EB84C2058C700B0093C2318408F
:1019E000205880003843B70B1F40E7597F0007435A
:1019F000B00D184020583843F7081F40E759FF0141
:101A00000743F00A1840205880013843F60C1E4066
:101A1000A65976010643D0081C220240A0580201B4
:101A20003243A648441C224028014840A4490140B2
:101A3000A448149D284009184D001D40A24845594E
:101A4000ED00CE091E408659B6002E43CD0B1D4039
:101A500045596D003543CE0D1E4086592E438D08E5
:101A60001D404559ED0135438E0A1E408659B60189
:101A70002E438D0C1D4043595B013343090F8900F0
:101A8000405805011D4325400121080410904804D9
:101A90000F9088040E9008050D9048050C900806DC
:101AA0000B90C8060A9000231191F1E0834B981E19
:101AB0001A2402260696139008941146E140B2407B
:101AC0001446044027460F43BE0414974120C00427
:101AD000304009079B1C07931940260102940923F3
:101AE0009B063340591893030A9E33400B4303432C
:101AF00090010B990840184351020C9B1940014377
:101B000053080D9803400B43B90201910E9E3140DA
:101B10001943A3000F9E33400B43960A10990E40C1
:101B20001E43284606998840034640F200173B4072
:101B30003343460B42F200073E401E430309014671
:101B400041F200073B4033430898C5400895139C79
:101B50000C40A00B04902C43A601139440F6000700
:101B60003E401E4300914B0840F200452B4033435A
:101B7000064640F2002006401E434B0920200690F6
:101B8000034033438E0A102535401D43E00805907D
:101B9000082303402B438D0C04262E401E438B0E3E
:101BA0000220039003403343CD01ED0F1D431298F3
:101BB00005600A98019901401746149AD603119CB2
:101BC000630733407D04079805405B190B4390057C
:101BD000A50605401D43B808630603402B43029C3D
:101BE00060000B9A10401843149A13040C9A134087
:101BF0000343F8020D9A10401843E300119AD404ED
:101C00001C400443B8090E9A104020430F9A164016
:101C100006433809109A1040304300990A4640F2B2
:101C200000231A400243880842F200031840104380
:101C3000139D2A0241F200031A40024340F60000BD
:101C40000830049B184010434A0A40F200431A40EF
:101C50000243E80140F2001318401043CA09069BF2
:101C60001A4002431120059B18401043089AD207DE
:101C7000520F0243480D03990840104312994860DF
:101C800008311291099B5B1C102B149A11990ED0EC
:101C90000F2B099300D909E7012098400B4C2042F3
:101CA00000D103E71B240E46044B184602E715B08B
:101CB000F0BDC0460F0F0F0F80380008FEFFFF0F6A
:101CC000EFEFEFEF10101010C03800080381000094
:101CD0003C48006802494118484248417047C046A4
:101CE00000A7BAB470B5012490B10546FFF7F0FF24
:101CF00070B10024074821460A58130E6B546B1824
:101D0000DA70160A9E70120C5A70091D1029F3D150
:101D1000204670BD04FC0008F0B585B00124002801
:101D200043D0054600F052F800F0AEFA202000F053
:101D300061FA102000F05EFA042000F05BFA214EF8
:101D4000304600F061FA20B100F058FA00F044F893
:101D50002BE01D49304600F0A7FA20B100F04EFA02
:101D600000F03AF821E00F20C743E819017C09068A
:101D7000427C12045118827C12028918C07C091816
:101D8000F019143000F090FA58B93F1DEDD100F071
:101D900035FA00F021F801A8FFF7A4FF40B10324B1
:101DA00003E000F02BFA00F017F8E0B205B0F0BD48
:101DB00001A910222846FEF7EBF908B90446F4E71A
:101DC0000324F2E700FC00080059454B80B5154894
:101DD000052101F0F8F980BDB0B540F20075691D2C
:101DE000104C204601F0E7F9012802D1204601F00D
:101DF000B1F9E91C204601F0D6F9A91C204601F0F2
:101E0000D2F9691C204601F0CEF9204640F200715B
:101E100001F0C9F901F00AF90521204601F0DCF9C9
:101E2000B0BDC0460038014010B5421E1B490D2A06
:101E300025D81E20C043401D930001A4E3189F46EF
:101E400000F01EB800F018B800F019B800F017B88C
:101E500000F015B800F013B800F011B800F00FB89A
:101E600000F00DB800F00BB800F00CB800F00CB8A2
:101E700000F00DB800F00EB8881D80B210BD081D2E
:101E800080B210BD88B210BD481C80B210BD881C45
:101E900080B210BDC81C80B210BDC046E1FF00007A
:101EA00080B57B48006820B17A4900220A708068BA
:101EB000804780BD80B57648006808B1C06880471B
:101EC00080BDC046724908607047C0467048002116
:101ED0000160704770B50C460546302000210A4667
:101EE00000F08AF8064678B940F6A07000F024FAAF
:101EF0002846214600F014F8064628B1FFF7F6F808
:101F000000F0F0F90028F3D0304670BD80B560488D
:101F1000006820B101785F4A11704068804780BD39
:101F2000F0B585B0054600260E80594F386888B157
:101F30000C46006980473868016A56480078401CA2
:101F4000C0B28847396840B149690446884720468D
:101F500005B0F0BD0B2005B0F0BD0395C869804702
:101F600005463868C069804739460746000204952F
:101F70004019C51E1F48854207D3002020800868ED
:101F8000406980470D2005B0F0BD0868C0698047F2
:101F900001903F480068C0698047029425800499F9
:101FA0004F4001994F400490474028040BD0039CB8
:101FB000029D37480068C0698047A0554740761C9D
:101FC00028888642F5D3324C2068406A804706460E
:101FD000206840698047B74205D10520FFF7A4F982
:101FE000049805B0F0BD0020029908800E2005B0CD
:101FF000F0BDC046FE030000F0B585B014460D46A6
:1020000004AAD07000269670E31C1370190A517050
:102010001F4F3A68C2B10193029003911069804743
:102020001C4800783968096A8847074630BB02E0D7
:10203000761C042E0AD004A8805D154909688969B8
:1020400088470028F4D018E00B271EE0039E019873
:102050004640029846405CB128780D490968896974
:10206000884750B928784640641E6D1C002CF3D177
:10207000074800688169F0B288470746044800684D
:10208000406980470520FFF74FF9384605B0F0BD9D
:10209000340200202C010020F0B581B01C4615460A
:1020A0000A460146002018800220FFF7A5FF0746D8
:1020B00010B1384601B0F0BD0798069E00F03CF91B
:1020C00005E0FFF713F800F00DF90028F1D12846DC
:1020D0002146FFF725FF07460428F2D00C2FE8D150
:1020E0003046FFF721F9ECE7B0B5002378B171B1C4
:1020F0006AB188420DD98B1883420AD9491E002340
:10210000DB438C5C8518EC54521EFAD1034618460A
:10211000B0BD0023CC5CC4545B1C9A42FAD1B0BD64
:1021200010B5054C206028B10178012902D1416821
:1021300002488847206810BD380200203C0000207B
:10214000F0B583B01C4602920E4607460A20802155
:10215000FEF728FB0420FEF7B2F946B109253978CD
:102160002846FEF72AFB761E7F1C002EF7D10120A1
:102170000C210190FEF721FB0D208021FEF712FBC0
:1021800040F2D0761A4F0425300407D0761E284638
:10219000FEF70CFA8006800FF6D000E03E460D20D8
:1021A000FEF78DF90027300405D00620FEF7FEF972
:1021B0001B21084202D0384603B0F0BD029F8FB108
:1021C00094B10A20FEF7F2F9207078B100260925B3
:1021D0002846FEF7EBF9B855761C20788642F7D3EF
:1021E000019FE8E7019FE6E7019FE4E7019FE2E73F
:1021F000FFFF0000234908607047C0463848016867
:1022000080220A4302607047F0B581B005460F2076
:102210000404204600F016F808B101B0F0BD304EBD
:1022200030680227384330607560306840210143D0
:102230003160204600F006F83168B943316001B0E2
:10224000F0BDC04670B5441E0025641E2E466E418A
:1022500000F008F8012801D1002EF6D1012800D1A4
:10226000052070BD07480168C90707D10168C90684
:1022700006D40068410802200840704701207047DA
:10228000042070470C2002400448C168090603D5A9
:1022900003490160034901607047C04604200240C1
:1022A00023016745AB89EFCDF0B581B00C460546FB
:1022B0000F2006043046FFF7C5FF08B101B0F0BD9E
:1022C000074908680127384308602C603046FFF74B
:1022D000B9FF034A1168B943116001B0F0BDC046AF
:1022E000102002401848006816490968814201D24E
:1022F0000020704701207047704780B5012000F032
:10230000BDF980BD80B5002000F0B8F980BD80B572
:1023100000F0F8F900F04EFA80BD80B500F0F2F957
:1023200000F048FA80BD80B500F016FA80BD80B597
:1023300000F02CFA80BD0000024909680818024923
:1023400008607047280100205005002080B50A2051
:10235000FEF7EAFF80BD80B50A20FEF7E5FF80BDED
:1023600070B50446C1B2064D284600F0F7FE054E92
:102370002846314600F01FFF0028F9D0204670BDE6
:102380000038014007070000B0B502461F4B174850
:1023900018601F48186059600D4901200D46DC681F
:1023A000044015B16D1C002CF9D1604260415CB94C
:1023B000084C22409A600222DC68144011B1491C8A
:1023C000002CF9D104B1002008B105491960B0BD55
:1023D0000200F0FFFF0F00000C4801490160704748
:1023E000AAAA00000948014901607047CCCC00004E
:1023F000034909680140481E814108467047C046AC
:102400000C30004001480249016070470030004034
:1024100055550000F0B583B002930E46334C217140
:10242000E0707821617080212170000AA070651D24
:10243000284611463246FDF787FEA819072131408C
:102440000822571A2A493A46FFF74EFEBE1926714E
:1024500010240094274F284B384629463246FFF770
:102460006CF9284639463246FFF73EFE234800689D
:10247000234DD0B1876940F6A0700A2100910190E8
:10248000701D81B219481F4D1F4E2A463346B8476A
:1024900018B1FFF7C9FC054607E030884019411E16
:1024A0000978801E007800024518A8B249F20001A0
:1024B000884218D1144E3088821E402A02D9104812
:1024C000851C10E0089F0094104C0E490A4B2046D2
:1024D000FFF70AF93088821E02982146FFF704FEB2
:1024E0003088801E3880A8B203B0F0BD2D010020D6
:1024F000140000207800002054060020380200203C
:10250000E1FF0000D8000020180100209800002002
:10251000F0B582B00191016A0090446A00252E4610
:1025200003E02D1D761C082E0AD01746F740FF0742
:10253000F7D0019FAF400F23AB4099433943F0E7F9
:102540000825002603E0361D6D1C102D0AD0134609
:10255000EB40DB07F7D0019BB3400F27B740BC43EC
:102560001C43F0E700980162446202B0F0BD816252
:1025700070478161704700690840411E884170477B
:10258000F0B582B0019305680090C0680026374618
:1025900003E0B61C7F1C102F0ED0019BFB40DB0715
:1025A000F7D01346B3400324B440A04318430B466E
:1025B000B340A5431D43ECE700990D60C86002B02D
:1025C000F0BDF0B581B0012902D14168194301E0A5
:1025D00041689943416000908168002403202646A9
:1025E00003E0A41C761C102E0AD01F46F740FF07FC
:1025F000F7D01746A7400546A540A9433943F0E761
:102600000098816001B0F0BD70B57C4C80212046FF
:10261000FFF7AFFF0026402520462946FFF7A9FF18
:1026200000F00EF820462946FFF7A1FF00F008F859
:10263000701C082E0646EFD300F0A8F870BDC04607
:1026400081B040F2E83000900098411E00910028CF
:10265000FAD101B07047000080B540B1064801785A
:10266000491C0170C8B2032804D3FFF7CDFF02480C
:102670000021017080BDC0463E030020F0B585B04A
:1026800001905E4880210391FFF773FF00264020F0
:1026900002903446594F04943846029C2146FFF775
:1026A00068FFFFF7CDFF38460399FFF764FF054643
:1026B00038462146FFF75BFF681E854104984000BD
:1026C0004419FFF7BDFF701C072E0646E3D34B4E9F
:1026D0000198802118B13046FFF749FF02E03046EB
:1026E000FFF747FFFFF7ACFF402530462946FFF7CD
:1026F00040FFFFF7A5FF30462946FFF738FFE0B25D
:1027000005B0F0BDF0B581B0044600263B4D8020F9
:102710000090402716E028460099FFF728FFFFF7B2
:102720008FFF28463946FFF724FFFFF789FF284629
:102730003946FFF71CFF6400FFF782FF701C072E6D
:10274000064607D260B20028E5D528460099FFF773
:1027500010FFE4E701B0F0BD70B5284C802620469C
:102760003146FFF706FF402520462946FFF701FFC7
:10277000FFF766FF20463146FFF7F9FEFFF760FFDF
:1027800020462946FFF7F3FE70BDC046B0B51B4C8E
:10279000802520462946FFF7EAFE40212046FFF724
:1027A000E8FEFFF74DFF20462946FFF7E2FEFFF760
:1027B00047FFB0BD70B5114C802520462946FFF774
:1027C000D8FEFFF73DFF40212046FFF7D2FEFFF77E
:1027D00037FF002620462946FFF7CDFE38B1701C92
:1027E000C82E0646F6D3FFF7D1FF012070BD402169
:1027F0002046FFF7BCFE002070BDC0460004004824
:1028000088B000F0B7FBFEF70DFCFEF7EBFB2B48A2
:1028100001F026F82AA001F023F832A036A139A24F
:1028200000F064FD3AA001F01BF805A800F02CFCB4
:1028300042A000F05BFD0025424C05A8415D20460A
:1028400000F054FD6D1C0C2DF7D13FA001F008F8ED
:10285000FFF73EFA88B101A8FFF744FA3B4800F0C1
:1028600045FD0025374C01A8415D204600F03EFDA6
:102870006D1C102DF7D134A000E0354800F0F0FFBA
:10288000FDF728FEFDF712FE20B10146314800F0A9
:102890002DFD02E0304800F0E3FFFEF793F9FEF76C
:1028A00029FC2E4800F0DCFF2D4800F0D9FFFEF790
:1028B0001DFCFEF7C9FAFEF7D7F9F8E7DC4100087E
:1028C00020204744333245323330202B20464D31CF
:1028D0003736323220524649442053797374656D3D
:1028E0000D00000020204275696C643A2025732099
:1028F00025730D0A000000004D6179203238203226
:102900003032360031343A33363A32330000000088
:102910003D3D3D3D3D3D3D3D3D3D3D3D3D3D3D3DE7
:102920003D3D3D3D3D3D3D3D3D3D3D3D3D3D3D3DD7
:102930003D3D3D3D3D3D3D3D0D0000005B55494465
:102940005D2000001F4200080D0000000842000842
:102950004D41000800410008A5410008254100083C
:102960007C410008F0B595B00646002401910C802A
:102970002D4D2868FDF7DFFB29680029204600D48B
:10298000481C02962860FDF7CDFB10A90855641C71
:10299000102CF8D12548119025481090102610A928
:1029A00008AA07AB304600F0EFF9074649F20000ED
:1029B000874236D1009608A908241E4B029D28465E
:1029C0002246FEF791FE10A9083128462246FDF75F
:1029D000DFFB08B1184F24E003AC08AF0825204600
:1029E00039462A46FFF780FB0096083439460831FD
:1029F000104B20462A46FEF7A0FE07AB284621468C
:102A00003A4600F0F5F9074649F20000874208D13E
:102A1000009603A9074B02983246FEF78EFE0198F6
:102A20000680384615B0F0BD200100205566778835
:102A30001122334464000020CEFF000010B504468C
:102A4000FDF7B4FF2046FDF7A3FF10BD034A0A407F
:102A5000024303480260BFF34F8F704780FFFF1FA0
:102A600008ED00E041487047B0B53F4D2978062990
:102A700018D88A0001A39A189746C04600F00CB8EF
:102A800000F014B800F022B800F025B800F02DB81E
:102A900000F039B800F03DB80124A52831D12C70E0
:102AA0002046B0BD0020287001242AE00124A5287A
:102AB00027D05A2840D12E480021017002202870CA
:102AC0002A48FE21FDF759FB2046B0BD032129709D
:102AD0002649087039E02549487058B3FB282FD3A0
:102AE0000020287003242046B0BD21490A781F4BDE
:102AF0009C18A070501C08705978C0B201248842FC
:102B000016D22046B0BD0002FC21184A50520620C1
:102B10001AE0FC2215498B5A03438B52084600F0F9
:102B200029F800212970414241414C002046B0BDA6
:102B3000052002E0052007E0002028702046B0BDF7
:102B40000B48002101700420287001242046B0BDEC
:102B500010B50548002404700448FE21FDF70DFB64
:102B60000348047010BDC0464B0300204C030020F6
:102B70003D030020B0B5B0B1044611485A21417060
:102B8000A5210170217881706178C170617861B18F
:102B9000A21C0021535C45182B71491C6378994293
:102BA000F8D3081D02E00020B0BD042081B2044823
:102BB000FDF760FBFC21615A411A48424841B0BD13
:102BC0003C020020F0B581B00246544B18680C213D
:102BD000014053480829044618D119688902090F91
:102BE0000F2901D08C1C00E010241D682D0101D597
:102BF00011310C461968C90301D44A4905E0996AA4
:102C00000F250D40691CB0FBF1F14C431D6818689D
:102C10001968052A1ED800902D062D0F42A77F5D4A
:102C20002546FD408904490F43A77E5C2946F140B3
:102C3000960001A08019874600F00AB800F00CB891
:102C400000F00CB800F066B800F00FB800F016B84D
:102C500021465FE000215DE029465BE000984005E9
:102C6000400F385CC540294654E0D86AC0051CD4E2
:102C7000D86AC0032ED5334801B0F0BDD86A8007AA
:102C800048D0D86A032210400128214642D0D86A91
:102C9000104048F2000102283CD0D86A10400328B6
:102CA0001F4800D0002001B0F0BD1A68D86A120495
:102CB000920F930001A4E3189F46C04600F006B8A7
:102CC00000F00BB800F00DB800F011B8002812D4D5
:102CD00049081FE01A4801B0F0BD00280FD4890848
:102CE00018E000280FD40620B1FBF0F112E0002814
:102CF0000DD4C9080EE00320B5FBF0F10AE0052071
:102D0000B5FBF0F106E00720B5FBF0F102E0092089
:102D1000B5FBF0F1084601B0F0BDC046041002401A
:102D200000127A0000093D000000000000000000D1
:102D30000102030406070809000000000102030461
:102D4000809FD500003FAB011F21014001228A4036
:102D500080090C4943581343435070471F210140D9
:102D600001228A40800907494358934343507047E2
:102D70001F21014001228A40800902494358134320
:102D80004350704700100240F0B583B01D46144612
:102D900006463148102202710022C27082707122F0
:102DA000427080220270401D3246FFF79DF92B4889
:102DB000006878B1876940F6A0700A2100910190FF
:102DC000701D81B2244822462B46B84720B1FFF738
:102DD0002BF809E0224807E028880019411E0978ED
:102DE000801E00780002401880B203B0F0BDC046DB
:102DF000F0B583B01D4614460646174808220271F6
:102E00000022C270012282707322427084220270FA
:102E1000401D3246FFF768F91048006878B18769AD
:102E200040F6A0700A2100910190701D81B20A48FD
:102E300022462B46B84720B1FEF7F6FF09E00848C6
:102E400007E028880019411E0978801E00780002DA
:102E5000401880B203B0F0BD2D01002038020020E0
:102E6000E1FF0000034909680140481E814108460E
:102E70007047C0461800014070B583B0374B9A1CAC
:102E80003748011F0C6814430C60012254040D687C
:102E90005E1E9E4202D225403346F8D00B68234284
:102EA00000D1FEE72F4C256802231D430526B543BC
:102EB0002560046890252543056004680460046863
:102EC00004600468284D254005601D24240405681D
:102ED0002543056012060C6814430C600A689201D1
:102EE000FCD5016802910321029A8A430292029959
:102EF00019430291029901600C2102680A40082AD4
:102F0000FBD10022019201997F2905D80199491C22
:102F1000019101998029F9D301680091F021009B6A
:102F20008B4300938023009C1C430094009B036010
:102F30000192019A7F2A05D8019A521C0192019AA6
:102F4000802AF9D302680092009A8A43009200997D
:102F500000910099016003B070BDC046FEFF000003
:102F60000410024000200240FFFFC27780B5FFF747
:102F700083FF80BD80B50748006840F2E831B0FBB0
:102F8000F1F0FDF769FC00B1FEE70020FDF72EFD32
:102F900080BDC0461000002070B5E8B30C46D9B320
:102FA00005460078207068786070A878A070E8788E
:102FB000E07028792071A87969792A7AEB79E37130
:102FC00022726171A071687A6072A87AA07220463C
:102FD0000B3029460B3106263246FDF7B5F8204660
:102FE0001130294611310722FDF7AEF8687E297E9F
:102FF000EA7EAB7EA376E2762176607620461C30B0
:1030000029461C313246FDF79FF8223422352046EE
:1030100029463246FDF798F870BD00003648008812
:1030200036490988401AC0B27047C0463248008805
:10303000324908807047C04630490888304A105CE1
:103040000A88521CD2B20A807047C046B0B5014609
:103050004F4C204600F082F8034D2046294600F0F0
:10306000AAF80028F9D0B0BD07070000B0B548B1F4
:103070000C4639B105462878FFF7E8FF641E6D1C41
:10308000002CF8D1B0BD000010B5C0B10C490A68E1
:103090004B688968C172C3711C0A84711C0C44712D
:1030A0001B0E0371C270130A8370130C4370120E4F
:1030B00002700A0A82720A0C4272090E017210BD75
:1030C000ACF7FF1F10B5324C0A49204600F08DF8CE
:1030D00070B1204600F03EF807490A88521CD2B26F
:1030E000064B1B889A4203D00B88054CE0540A809B
:1030F00010BDC046050005074A0500204C0500200C
:103100004A040020B0B50D4604462148844204D04C
:103110002048844205D1022000E00520FFF752FD3F
:1031200000E000202168090406D469084018B0FBBB
:10313000F5F080B2E060B0BD690840004018B0FB17
:10314000F5F0034901400007400F4018E060B0BDB2
:10315000F0FF0000416A034808407047014A0A40F6
:1031600082627047FF01000010B50949884204D00F
:103170000849884208D1084C00E0044C2046FFF77B
:10318000F7FD2046FFF7EAFD10BDC0460E03000024
:103190000038014000440040110400000168012291
:1031A0000A43026070471F220A4001219140026ACF
:1031B0000A43026270471F220A4089090958D14018
:1031C0000120084070471F220A40012393408909CB
:1031D0000A589A430A5070471F220A40012393401D
:1031E00089090A581A430A5070471F220A400B04E3
:1031F0009B0D1B58D3408A0D1258C802C00EC24006
:103200001A40012010407047026804239A4302606C
:1032100002680A4302607047026808239A4302600A
:1032200002680A4302607047F0B583B002930E460D
:10323000244C2171E0707621617080212170000A98
:10324000A070651D284611463246FEF74DFFA819AD
:10325000072131400822571A1B493A46FEF744FF1E
:10326000BE19267110200090184F194B3846294678
:103270003246FEF762FA284639463246FEF734FFF8
:103280001448006888B1089D846940F6A0700A213E
:1032900000910190701D81B20A48029E32462B4671
:1032A000A04720B1FEF7C0FD09E00B4807E02888E1
:1032B0008019411E0978801E00780002401880B2F3
:1032C00003B0F0BD2D010020140000207800002084
:1032D0005406002038020020E1FF000021B1002246
:1032E0000270401C491EFBD1704700000FB410B59E
:1032F00003A9044B044A029800F018F810BC08BC5B
:1033000004B01847612300080400002002E008C848
:10331000121F08C1002AFAD170477047002001E04F
:1033200001C1121F002AFBD170470000FFB591B008
:103330000F460546002606E025280AD0149A139960
:1033400090476D1C761C28780028F5D1304615B0C2
:10335000F0BD002400940121F34A029400E00443EC
:103360006D1C2B780846203B98401042F7D12878F6
:103370002A280ED0022128780246303A092A15D888
:10338000009A0A235A43303A80180C436D1C00906F
:10339000F1E701CF0090002805DA01204003044343
:1033A000009840420090022004436D1C28782E288B
:1033B00015D10420044368786D1C2A280AD101CF56
:1033C0006D1C02900BE002990A22514330394018DB
:1033D0006D1C02902878014630390929F3D92878E4
:1033E0006C2810D006DC4C281AD068280ED06A2829
:1033F00017D104E0742813D07A2812D110E00120EC
:10340000400504430CE00121090501E00321090501
:103410000C436978814203D10120000524186D1CFA
:103420006D1C287803906E281ED00CDC632831D0E8
:1034300004DC00288AD0582811D1B2E064287BD05F
:1034400069280CD178E073282DD004DC6F2870D067
:10345000702804D1A7E075286CD078286BD0149A16
:1034600013999047761C62E06002400F022807D053
:1034700003280AD0042838680AD006603F1D56E0A9
:103480003868F11706604160F8E738680680F5E7AC
:103490000670F3E73878694608740020487404A879
:1034A0000390012003E0386803900020C0433F1DD3
:1034B00061070FD5002101E00199491C029A019191
:1034C000914213DA8142F7DB019A0399895C002962
:1034D000F2D10BE0002101E00199491C01918142E8
:1034E000FADB019A0399895C0029F5D101990098CA
:1034F000139A401A00902146149B00F03BF9019961
:103500008019461807E0039803990078491C039135
:10351000149A139990470198401E0190401CF2D1D3
:103520002146149B139A009800F014F986196D1C1B
:1035300009E741E033E034E00A20002104900591DE
:103540006002410F022905D001CFC217944603291A
:1035500005D007E0FF1DFF08FF0003CF06E000B223
:10356000C2179446042902D140B2C1178C460022EA
:103570006146944506DA0A460021404291418C4654
:103580002D2102E0210504D52B216A461176012167
:1035900003E0E10701D02021F7E7019154E00A2080
:1035A0000BE0102009E010200490002104200443C7
:1035B00008200591029003E0082000210591049065
:1035C0006002410F022905D001CF00229446032951
:1035D00006D006E0FF1DFF08FF0003CF8C4603E086
:1035E00080B2042900D1C0B20021019121072BD55E
:1035F0000399702906D0049A1021059B4A401A436A
:1036000005D00EE040216A461176012108E06146AE
:10361000014306D030216A46117603995176022182
:103620000191049A0821059B4A401A430CD1614636
:10363000014301D1610707D530216A461176012186
:1036400001910299491E02910399582904D037A18A
:1036500003910FA90F910DE039A1F9E76146059B90
:10366000049AFCF7A2FD039B8C469B5C0F9A521EAA
:103670000F92137061460143F0D10F9807A9081A01
:1036800020300390600704D5012000048443029891
:1036900001E0012002900399884201DD401A00E018
:1036A000002041180290019809180098401A0090D3
:1036B000E00306D42146149B139A009800F05AF8B0
:1036C00086190020049008E006A9085C149A139952
:1036D00090470498401C761C049001998842F3DBC3
:1036E000E0030CD52146149B139A009800F042F891
:1036F000861904E0149A302013999047761C029999
:10370000481E02900029F5DC08E00F980F99007818
:10371000491C0F91149A13999047761C0399481EDF
:1037200003900029F1DCFBE6092801003031323337
:1037300034353637383961626364656600000000ED
:1037400030313233343536373839414243444546D7
:1037500000000000F8B5044600251E461746880400
:1037600004D405E039462020B0476D1C641EF9D50D
:103770002846F8BDFFB50446002581B01E46C803A3
:1037800001D5302700E02027880404D505E038461D
:103790000399B0476D1C641EF9D5284605B0F0BDED
:1037A00010B5002823D0124B0022001F196803E037
:1037B000814203D80A4649680029F9D1002A0AD073
:1037C0001368841A9C4204D10068181810601046CF
:1037D00002E0506000E01860002907D002680B1A70
:1037E000934203D10B68D21802604968416010BD52
:1037F00008000020F0B50B30C108C900144F0026A6
:10380000144A0FE003688B420BD38B4205D95C1A34
:103810004318456830C3083B00E04368136002C0AA
:1038200004E0021D10680028ECD13046002803D1C6
:103830003868002801D00020F0BD064A0648106014
:10384000064A121AD208D20044C001203860D7E7D5
:103850000C000020080000206C060020680A0020F0
:1038600010B5044601E0FEF77BFD2078641C034997
:103870000028F8D10A20FEF773FD10BD04000020D7
:103880000000000001000000000100000101000034
:103890000000010001000100000101000101010020
:1038A0000000000101000001000100010101000110
:1038B00000000101010001010001010101010101FC
:1038C00000000000000000010000010000000101F4
:1038D00000010000000100010001010000010101E0
:1038E00001000000010000010100010001000101D0
:1038F00001010000010100010101010001010101BC
:1039000000040101000000000000010004040101A6
:103910000400010104040100040000000000010093
:10392000000400000004010104040101000400007F
:103930000404000104000101000000010400000073
:103940000404000000040001000400010004010060
:103950000004010000000101000001010404000155
:103960000400010004000001040000010400010043
:103970000000000004040000040401000000000135
:103980000000010004040101040000000000010126
:10399000000401010000000100000001000400001B
:1039A0000400010100000100000401000400000106
:1039B00000040000040000000404000104040100ED
:1039C00004040101040001000000010104040001DD
:1039D00004000001040400000404010000040101CB
:1039E00004040000000400010004000100000000C5
:1039F00004000100000401000000000004000101B7
:103A00002080108000800080008000002080100056
:103A100000001000200000002000108020800080A6
:103A20002000008020801080008010800000008036
:103A300000800080000010002000000020001080A6
:103A40000080100020001000208000800000000096
:103A50000000008000800000208010000000108026
:103A600020001000200000800000000000801000F6
:103A70002080000000801080000010802080000066
:103A800000000000208010002000108000001000C6
:103A900020800080000010800080108000800000E6
:103AA0000000108000800080200000002080108036
:103AB0002080100020000000008000000000008036
:103AC0002080000000801080000010002000008096
:103AD00020001000208000802000008020001000C6
:103AE00000801000000000000080008020800000A6
:103AF00000000080200010802080108000801000D6
:103B0000080200000002020800000000080002088D
:103B10000002000800000000080202000002000885
:103B20000800020008000008080000080000020069
:103B30000802020808000200000002080802000053
:103B40000000000808000000000202080002000057
:103B50000002020000000208080002080802020039
:103B6000080200080002020000000200080200082B
:103B7000080000000802020800020000000000081F
:103B8000000202080000000808000200080200000D
:103B9000000002000002020800020008000000000D
:103BA00000020000080002000802020800020008EB
:103BB00008000008000200000000000008000208E1
:103BC00008020008000002000000000808020208C5
:103BD00008000000080202000002020008000008BD
:103BE00000000208080200080802000000000208A5
:103BF000080202000800000008000208000202009B
:103C00000120800081200000812000008000000051
:103C100080208000810080000100800001200000E1
:103C20000000000000208000002080008120800033
:103C30008100000000000000800080000100800082
:103C40000100000000200000000080000120800032
:103C500080000000000080000120000080200000A3
:103C600081008000010000008020000080008000B2
:103C70000020000080208000812080008100000062
:103C800080008000010080000020800081208000F2
:103C90008100000000000000000000000020800003
:103CA0008020000080008000810080000100000072
:103CB00001208000812000008120000080000000A1
:103CC0008120800081000000010000000020000031
:103CD0000100800001200000802080008100800021
:103CE00001200000802000000000800001208000F2
:103CF0008000000000008000002000008020800084
:103D0000000100000001080200000802000100425A
:103D10000000080000010000000000400000080250
:103D200000010840000008000001000200010840F6
:103D300000010042000008420001080000000040AD
:103D400000000002000008400000084000000000E1
:103D50000001004000010842000108420001000289
:103D60000000084200010040000000000000004286
:103D700000010802000000020000004200010800EB
:103D800000000800000100420001000000000002E5
:103D9000000000400000080200010042000108404D
:103DA000000100020000004000000842000108027B
:103DB000000108400001000000000002000008426D
:103DC0000001084200010800000000420001084212
:103DD000000008020000000000000840000000424F
:103DE000000108000001000200010040000008007E
:103DF000000000000000084000010802000100402F
:103E00001000002000004020004000001040402032
:103E10000000402010000000104040200000400042
:103E20000040002010404000000040001000002032
:103E30001000400000400020000000201040000062
:103E40000000000010004000104000200040000072
:103E500000404000104000201000000010004020F2
:103E600010004020000000001040400000404020B2
:103E700010400000004040000040402000000020B2
:103E800000400020100000001000402000404000D2
:103E900010404020000040001040000010000020B2
:103EA0000000400000400020000000201040000002
:103EB0001000002010404020004040000000402042
:103EC0001040400000404020000000001000402052
:103ED00010000000004000000000402010404000A2
:103EE00000400000100040001040002000000000D2
:103EF0000040402000000020100040001040002042
:103F0000000020000200200402080004000000005D
:103F10000008000002080004020820000008200435
:103F2000020820040000200000000000020000043D
:103F3000020000000000000402002004020800004B
:103F4000000800040208200002002000000800040D
:103F500002000004000020040008200402002000E9
:103F600000002004000800000208000002082004ED
:103F700000082000020000000000000400082000EB
:103F800000000004000820000000200002080004D7
:103F900002080004020020040200200402000000C5
:103FA00002002000000000040008000400002000BF
:103FB0000008200402080000020820000008200475
:103FC000020800000200000402082004000020048F
:103FD0000008200000000000020000000208200489
:103FE000000000000208200000002004000800007B
:103FF0000200000400080004000800000200200085
:1040000040100010001000000000040040100410D8
:1040100000000010401000104000000000000010E0
:1040200040000400000004104010041000100400C0
:1040300000100410401004000010000040000000B8
:10404000000004104000001000100010401000009C
:104050000010040040000400400004100010041090
:1040600040100000000000000000000040000410AC
:104070004000001000100010401004000000040078
:1040800040100400000004000010041000100000A4
:104090004000000040000410001000004010040028
:1040A000001000104000000040000010000004104C
:1040B0004000041000000010000004004010001038
:1040C00000000000401004104000040040000010F8
:1040D000000004100010001040100010000000004C
:1040E00040100410001004000010040040100000F4
:1040F00040100000400004000000001000100410F8
:104100005B464D31373632325D2056657273696FCA
:104110006E3A203078253032582C20496E69742050
:104120004F4B0D0A005B5744545D20576174636820
:10413000646F6720656E61626C6564202832303080
:104140006D732074696D656F7574290D005B4B4547
:10415000595D204E6F742073746F726564207965A9
:10416000742C2077616974696E6720666F722064B1
:104170006F776E6C6F61642E2E2E0D000D0A5379D1
:104180007374656D2072656164792E20576169745E
:10419000696E6720666F7220636F6D6D616E647308
:1041A0002E2E2E0D005B464D31373632325D2043C8
:1041B0006F6D6D756E69636174696F6E20464149FC
:1041C0004C45442120436865636B2049324320639A
:1041D0006F6E6E656374696F6E2E0D000D0A3D3D46
:1041E0003D3D3D3D3D3D3D3D3D3D3D3D3D3D3D3DFF
:1041F0003D3D3D3D3D3D3D3D3D3D3D3D3D3D3D3DEF
:104200003D3D3D3D3D3D0D005B4B45595D20416CC5
:1042100072656164792073746F7265643A20002559
:1042200030325820005B524649445D20526561643B
:10423000207461672064617461206661696C6564E3
:10424000202861757468206F722072656164206532
:1042500072726F72290D005B524649445D20416EB7
:104260007469636F6C6C206661696C65640D005BDA
:10427000524649445D2053656C65637420666169EC
:104280006C65640D005B524649445D204361726475
:104290002072656D6F7665640D005B435259505412
:1042A0004F5D205265676973746572206661696C41
:1042B00065640D00D842000800000020780000006E
:1042C0000C3300085043000878000020F00D000077
:1042D0001C33000800000000000000000000000087
:1042E000000000000000000000A24A04800000005E
:1042F0000000000001000000C51E0008B51E0008F7
:104300000D1F0008A11E0008D51E000899200008F6
:10431000CD1E0008E2000000572300084D230008CE
:10432000F9220008272300082F2300081B23000878
:10433000FB2200080F23000805230008CC5B14B6FD
:10434000E2F25929649FA55C726BAED500000000B3
:04000005080000CD22
:00000001FF
