:020000040800F2
:10000000700E0020E1000008610200085F02000895
:1000100000000000000000000000000000000000E0
:10002000000000000000000000000000B302000813
:100030000000000000000000B1020008D902000822
:100040000D0100080D0100080D0100080D01000858
:100050000D0100080D0100080D0100080D01000848
:10006000000000000D0100080D0100080D0100084E
:100070000D0100080D0100080D010008000000003E
:100080000D0100080D010008000000000D0100082E
:100090000D0100080D0100080D0100080D01000808
:1000A0000D0100080D0100080D010008E103000822
:1000B0000D0100080000000000000000000000002A
:1000C0000D010008000000000D01000803488546EE
:1000D00000F06CF800480047BD1F0008700E0020BB
:1000E0000B4802680B480240120C92020A4940F287
:1000F000000001C1121F002AFBD1084880470848B0
:100100000047FEE7FEE7FEE7FEE7FEE7FEE700004A
:10011000E0F7FF1F0000FFFF00000020F5020008CD
:10012000CD0000080549064A08685043054A801872
:1001300008604008704701490860704700000020CF
:100140006D4EC6413930000003460B439B0703D078
:1001500009E008C9121F08C0042AFAD203E00B788C
:100160000370401C491C521EF9D27047D2B201E004
:100170000270401C491EFBD270470022F6E710B502
:1001800013460A4604461946FFF7F0FF204610BD05
:1001900030B504460020034600E05B1C934203D2C6
:1001A000E05CCD5C401BF8D030BD0000064C012562
:1001B000064E05E0E36807CC2B430C3C984710340F
:1001C000B442F7D3FFF786FF5836000878360008A8
:1001D000F0B50D4EA9B100220C4B144603E0641C8F
:1001E0008C422E460ED0055D7540164604E03D4615
:1001F000771C072E3E46F2D26F08ED07F7D05F401E
:10020000F5E73546A8B2F0BDFFFF000001A00000F1
:1002100070B5114802F0E4F80920C4060121002657
:100220001025204632462B4601F0B2FD20463146CD
:1002300032462B4601F0CDFD2046294601F09FFDB8
:10024000052000F0DFFB2046294601F09AFD0A2038
:1002500000F0D8FB70BDC046110500007047FEE7F6
:1002600040F2001002F0E4FA012800D1FEE7FEE7B8
:1002700070B51C46DA7098705A205870A520187016
:10028000042641B13AB1231D00200D5C1D54401CD1
:100290008242FAD1061DB5B220462946FFF798FFE3
:1002A000711C89B26054000A6055B01C80B270BDE8
:1002B000FEE7FEE710B5401E010E01D0012010BD83
:1002C000044C6060032000F0BDF80020A06007210E
:1002D000216010BD10E000E0EB480168491C01609E
:1002E0000348016811B10168491E01607047C046AA
:1002F0002C01002070B582B0354E341F20680125D6
:100300002843206020688007FCD530680C2101401C
:1003100008292BD130680090F0200099814300918A
:100320008021009A0A4300920099316000210191D6
:10033000019A7F2A05D8019A521C0192019A802ABB
:10034000F9D332680092009A824300929020009A7A
:100350000243009200983060019101987F2805D8EF
:100360000198401C019001988028F9D30320C043D4
:1003700031680140316000F071F820681549014092
:1003800021603068144901403160306813490140F0
:100390003160B06A0F218843B062F06A40F2031105
:1003A0008843F0622804F16A8143F162E807F16A48
:1003B0008143F162306BA84330630024746002F023
:1003C000BBFAE806214601F089FE02B070BDC046C6
:1003D00004100240FFFFF2FE0C00FF08FFFFC2778F
:1003E00080B502F065FB80BD002807D41F210140C5
:1003F00001228A4040098000014942507047C046AE
:1004000000E100E0002805D40322034693430C4A90
:100410009A1806E00F220240083A03239A43074B3A
:10042000D2188007C00E8901C9B28140FF238340E2
:1004300010689843084310607047C0461CED00E008
:1004400000E400E0FF210906034A13688B4380079C
:10045000181810607047C04620ED00E081B0002001
:1004600000900098C0087C2807D840F2E830009936
:10047000491C009100998142F9D301B070470000F6
:10048000B0B582B06C46204602F0FAFA012008228C
:100490009B4D21462B46FFF7EBFE0446284621469E
:1004A00002F0E0FA0020411CC0B284420846FAD8AB
:1004B00002B0B0BD70B582B001A900260E7000F088
:1004C00099FF10B901A801210170022001A90122A0
:1004D0008B4D2B46FFF7CCFE04462846214602F002
:1004E000C1FA701CF1B28C420646FAD802B070BD57
:1004F00080B530B10178022904D0012901D14078BA
:1005000038B180BD41781029FBD1801CFFF7D2FFA4
:1005100080BDFFF7B5FF80BD80B501F065FE604886
:10052000002101705D4801705E48016041600181F9
:1005300000F06AF900F01EFA00F066F980BDC046CE
:10054000F0B5A7B04F4801684F4C2268511AC8292E
:1005500001D227B0F0BD2168016000F04DFA50B91A
:100560004A4801682268511A494A914203D32168D6
:10057000016000F0FFF900F03FFA002862D0454C1E
:100580002078002863D021784FF6007517AA16ABA3
:100590004FF6007001F06CFB49F20006B04265D1E5
:1005A00016A800880B28D4D33C4F387801280BD1EB
:1005B0003B480078012807D117A8811C3948072239
:1005C000FFF7E6FD0028C4D03548012101703970DD
:1005D00017A8811C33480722FFF7B6FD00F014F975
:1005E00000F0E4FE0028B4D012A800F0E9FE0028D4
:1005F000AFD12178681C80B217AA16AB02F0B2F90D
:10060000B042A6D100F000F9002417A916AD20468B
:100610002A4601F0E3FAB0429BD12888282898D3D3
:1006200000F0F2F801AB1C7017A8282102AA00F014
:1006300039F900288DD001A8017802A800F052F8FD
:1006400027B0F0BD13480021017027B0F0BD12485B
:100650000178002900D07CE70121017002F014F834
:10066000002800D175E700F0CFF88CE70B4801783F
:10067000012900D06DE70A4900220A70027027B0F4
:10068000F0BDC0461C0100203001002020010020E8
:100690008813000052040020590500204403002064
:1006A0005203002048030020B0B502F0B3F9B0B106
:1006B0000B4C002505E02078401C207002F0AAF9C0
:1006C00068B102F0B5F901F017FD0428F3D0002855
:1006D000F4D1257001F00EFDFFF70AFFEEE7B0BD83
:1006E0002401002010B50A4601460120044C23468F
:1006F000FFF7BEFD0146204602F0B4F910BDC0462A
:100700006005002070B53C4801F06AFE0920C4066F
:1007100001250326204629462A46334601F038FBA8
:10072000204629463246334601F053FB20462946EF
:1007300001F027FB0221204601F023FB70BDC046DB
:10074000F0B583B02C4C204601F04AFEFD34204623
:1007500001F046FE0920C60601273046394640F220
:10076000002201F0DDFA3046394640F2004201F045
:10077000D7FA02243046214602943A4640F200233A
:1007800001F006FB00210191032530462A4640F284
:10079000002301F01EFB304621463A4640F200435A
:1007A00001F0F6FA3046019C21462A4640F2004309
:1007B00001F00FFB114E304602F0CCF9E12041026E
:1007C000304602F095F90821304602F01BFA042168
:1007D000304602F00FFA0521304602F0F3F91B20F3
:1007E000029901F073FC304602F0CEF9044804800F
:1007F0000448048003B0F0BD11050000003801403A
:10080000540500205605002080B501F0E9F880BDB0
:1008100010B501F0FBF80124204601F0EDF80128A5
:10082000FAD00224204601F0E7F80128FAD0074860
:10083000042101F0ADF80224204601F0DDF8012882
:10084000FAD001F0CDF801F0D1F810BD710200002E
:10085000F0B58DB01E4601920F46014600200B9068
:1008600080200A90129D28463A4600F0B1FFE81910
:10087000072139400822541A0AA9224600F0A8FF8D
:10088000E019139F38700096C2B202AC2046294688
:10089000019B00F0C0FA3A782846214600F098FF04
:1008A0000DB0F0BDF0B5B1B0002400285ED0174601
:1008B000002A5BD0002B59D00E46402956D801465D
:1008C0004F480078002851D0029320A808900024B7
:1008D00004800DAD6E72C22006902872EC71AC716E
:1008E00002206871C12205922A7103220492EA70E3
:1008F000AC7007906870C0200390287028460A30BA
:100900003246FFF721FC0898009031460A3121ABAE
:1009100020462A4602F07EF949F20001884225D19C
:100920000AAA96720120089050720698107200244C
:10093000D471947107985071059911710499D1700F
:10094000947050700398107009AD2C8000950B21A5
:1009500020463B4601F062F849F20001884205D189
:100960002888B04202D102990870089C204631B014
:10097000F0BDC046B0B59CB00BA80024048002A80E
:1009800004801B4800F040FF78B30546C0688047EC
:10099000A86880476A690CA80BA9904728BB6846DD
:1009A00002F06EF800F002FD38B103A800F008FD77
:1009B00018B9684603A901F0B7FE03A802A901F01F
:1009C00019FB49F2000188420FD102A800881128C2
:1009D00002D302A81021018002A80288054803A9B9
:1009E000FFF7B2FB06480124047020461CB0B0BDDE
:1009F0001800002060060020014800787047C046BB
:100A0000580500200249086008680028FCD170479A
:100A10002C010020F0B587B0009205460879000649
:100A20004A79120410188A7912028018CA79821839
:100A3000087800064B781B0418188B781B02C01826
:100A4000C978401801095140D24B19404A4093B22D
:100A50000C014440210C59400804604051408A0870
:100A60004240CD4B1A40504092004A40110A41404A
:100A7000CA4B194048400B0253401F22D34119462C
:100A80004140C74C21404B404140D141002202959A
:100A90000592042406941846E041AC180494666854
:100AA0004640B006000EBF4C20580390A85858404E
:100AB0008409FC273C40BC4D2C5985062D0EBB4AB1
:100AC00055594D406540810B3940B94A51586940EC
:100AD000800D3840B74C2058484003994840B10930
:100AE0003940B54C61584140B00B3840B34C2058A8
:100AF0004840B10D3940B24C61584140049EB06845
:100B0000484084093C40A84D2C5985062D0EA74A23
:100B100055595D406540830B3B40A54AD358A84AD0
:100B20006B40800D3840A34C24585C400B4606981F
:100B3000C341F0689B4E584083061B0EF358634038
:100B400084093C409C4D2C595C40830B3B409B4DA1
:100B5000ED586540800D38401358059A6B40029D52
:100B60001032802A94D1803501950022069D05928D
:100B70000846E841019CA21804925268424090063F
:100B8000000E3058039005982058484084093C4096
:100B9000854E34598606360E844DAE595E40664009
:100BA000830B3B40824DEB5873407E4E800D3840A6
:100BB000804C20585840039B584093093B407E4C42
:100BC000E3584340900B38407C4C20585840920DDD
:100BD0003A407B4B9B5843400498806858408209B8
:100BE0003A40714CA2588406240E704D2C594C404A
:100BF0005440810B39406E4A5158069D6140800D2A
:100C000038406C4A12584A401946E9410498C06875
:100C100048408106090E7158514082093A40664C9D
:100C2000A2584A40810B3940644C64585440059A9C
:100C3000800D38406249095861401032802A96D1AF
:100C400040F20010029A101802907F20C4430594CD
:100C50001846E841029A15192A46803204925668CD
:100C60004640B006000E4F4C205803908020285874
:100C7000584085093D404C4C65598406240E4B4A2A
:100C800014594C406C40810B3940494A51586140DD
:100C9000800D3840474C2058484003994840B109DE
:100CA0003940454C61584140B00B3840434C2058C6
:100CB0004840B10D3940424E71584140049A906805
:100CC000484084093C40384D2C5985062D0E374E3E
:100CD00075595D406540830B3B40354CE3586B4094
:100CE000069D800D3840334C24585C400B46EB4148
:100CF000D06858408206120E2A4B9A586240059CD2
:100D000083093B402C4EF3585340820B3A402B4E04
:100D1000B2585A40800D3840294B1B58534010346C
:100D200095D10120C341184648401D4A1040434018
:100D300048404008C9070818010A5940174A11409D
:100D40004B400902414088085840134A1040434034
:100D50001A0C84004C40A1B25140080458400209CA
:100D600061404A400B4B1A405140009CE1710B0A14
:100D7000A3710B0C6371090E217111014140E170E7
:100D8000080AA070080C6070080E2070002007B0E0
:100D9000F0BDC0460F0F0F0F33333333FF00FF009A
:100DA000AAAAAAAA3C3400083C3300083C35000833
:100DB0003C3100083C2F00083C3200083C30000861
:100DC0003C2E0008F0B5E1B00646500702D00120E5
:100DD00061B0F0BD14460D466698182807D010285B
:100DE00003D101A8194600F0B8F82CB90DE001A80C
:100DF000194600F01DF944B10027E919F21901A8BC
:100E0000FFF708FE0837A742F7D301A800F055F80E
:100E1000002061B0F0BDF0B5E3B016460F460446C1
:100E20006898182806D0102808D103A8194600F0A1
:100E3000A4F803E003A8194600F00AF90721324696
:100E40000A40304601D0304608308843B0422DD1A8
:100E500000920290019166B300257919621903A8E6
:100E6000FFF7D8FD0835B542F7D3083D0298B042E8
:100E700016D9029801F06CFF7919721B0746FFF72B
:100E800063F9009838187142019A1140FFF775F91B
:100E9000621903A83946FFF7BDFD384601F02EFF61
:100EA00003A800F00AF8029863B0F0BD002063B018
:100EB000F0BDCD43B042F3D9DBE780B518B140F2C5
:100EC000801101F005FF80BDF0B589B016460C46D3
:100ED0000546114600F0CCF82046803008363146F1
:100EE00000F0C6F840F20010069528180490012181
:100EF000C8430594F83403940027F8210291802117
:100F00000191FC2100913B4605990890069CE2194D
:100F1000966FCE50C8180790D26F4260E218C81979
:100F2000029D4559019E9551009D4059842550517F
:100F3000E058049CE050E018526842600398C018E2
:100F4000079A5268CD588560C2600898083F0833F8
:100F5000801C1E28D9D309B0F0BD10B5E0B00A46F8
:100F600001466C462046FFF7AFFF204640F2801155
:100F700001F0AEFE002060B010BD10B5E0B00A4632
:100F80006C462146FFF7A0FF204640F2801101F099
:100F90009FFE002060B010BDF0B587B016460C462D
:100FA0000546114600F064F820468030314608318D
:100FB00000F05EF840F2001028181036314600F0BC
:100FC00057F840F27810069528180594F8340494E0
:100FD0000121CA430021F823029380230193FC23BB
:100FE00000930B4603920768059DEF50EF18466883
:100FF0007E60069CE6186F18029D7D59019C355154
:10100000009C3D598427F551049DED18069C6618F7
:10101000B66FAE60039CA60080190646F43E3668A3
:10102000EE6008390833921C1E2ADCD307B0F0BDED
:1010300010B5E0B00A4601466C462046FFF7ACFF0B
:10104000204640F2801101F043FE002060B010BD48
:1010500010B5E0B00A466C462146FFF79DFF2046DA
:1010600040F2801101F034FE002060B010BD00009D
:10107000F0B595B012900A7810064B781B0418183A
:101080008B781B02C018CB78C318087900064C79FE
:10109000240420188C7924020019C9794118080900
:1010A00014935840BA4D05402E465E403007800EDE
:1010B000B84C2058C700B0093C2318402058800085
:1010C0003843B70B1F40E7597F000743B00D184066
:1010D00020583843F7081F40E759FF010743F00A3B
:1010E0001840205880013843F60C1E40A65976015E
:1010F0000643D0081C220240A05802013243A648F1
:10110000441C224028014840A4490140A448149DA1
:10111000284009184D001D40A2484559ED00CE0950
:101120001E408659B6002E43CD0B1D4045596D001B
:101130003543CE0D1E4086592E438D081D4045591E
:10114000ED0135438E0A1E408659B6012E438D0CA3
:101150001D4043595B013343090F89004058050185
:101160001D43254001210804109048040F90880475
:101170000E9008050D9048050C9008060B90C806C7
:101180000A9000231191F1E0834B981E1A24022645
:101190000696139008941146E140B240144604406C
:1011A00027460F43BE0414974120C004304009076E
:1011B0009B1C079319402601029409239B06334088
:1011C000591893030A9E33400B43034390010B9934
:1011D0000840184351020C9B1940014353080D98D5
:1011E00003400B43B90201910E9E31401943A30005
:1011F0000F9E33400B43960A10990E401E4328461B
:1012000006998840034640F200173B403343460BA3
:1012100042F200073E401E430309014641F2000727
:101220003B4033430898C5400895139C0C40A00BE5
:1012300004902C43A601139440F600073E401E4341
:1012400000914B0840F200452B403343064640F2E4
:10125000002006401E434B092020069003403343E4
:101260008E0A102535401D43E008059008230340F1
:101270002B438D0C04262E401E438B0E0220039020
:1012800003403343CD01ED0F1D43129805600A98CA
:10129000019901401746149AD603119C6307334005
:1012A0007D04079805405B190B439005A506054092
:1012B0001D43B808630603402B43029C60000B9A51
:1012C00010401843149A13040C9A13400343F80275
:1012D0000D9A10401843E300119AD4041C400443B3
:1012E000B8090E9A104020430F9A16400643380959
:1012F000109A1040304300990A4640F200231A40E9
:101300000243880842F2000318401043139D2A024A
:1013100041F200031A40024340F600000830049BEB
:10132000184010434A0A40F200431A400243E801C1
:1013300040F2001318401043CA09069B1A400243AA
:101340001120059B18401043089AD207520F024300
:10135000480D0399084010431299486008311291D2
:10136000099B5B1C102B149A11990ED00F2B09931B
:1013700000D909E7012098400B4C204200D103E737
:101380001B240E46044B184602E715B0F0BDC046BC
:101390000F0F0F0FBC2D0008FEFFFF0FEFEFEFEF59
:1013A00010101010FC2D0008038100003C4800685C
:1013B00002494118484248417047C04600A7BAB4A4
:1013C00070B5012490B10546FFF7F0FF70B100241D
:1013D000074821460A58130E6B546B18DA70160A28
:1013E0009E70120C5A70091D1029F3D1204670BD51
:1013F00004FC0008F0B585B00124002843D0054660
:1014000000F052F800F058FA202000F00BFA1020FB
:1014100000F008FA042000F005FA214E304600F0F2
:101420000BFA20B100F002FA00F044F82BE01D495D
:10143000304600F051FA20B100F0F8F900F03AF827
:1014400021E00F20C743E819017C0906427C120401
:101450005118827C12028918C07C0918F0191430C6
:1014600000F03AFA58B93F1DEDD100F0DFF900F075
:1014700021F801A8FFF7A4FF40B1032403E000F026
:10148000D5F900F017F8E0B205B0F0BD01A91022BF
:101490002846FEF77DFE08B90446F4E70324F2E788
:1014A00000FC00080059454B80B51548052101F0A6
:1014B00080FB80BDB0B540F20075691D104C204620
:1014C00001F06FFB012802D1204601F039FBE91C35
:1014D000204601F05EFBA91C204601F05AFB691C66
:1014E000204601F056FB204640F2007101F051FB0E
:1014F00001F098FA0521204601F064FBB0BDC0461A
:101500000038014010B5421E1B490D2A25D81E2067
:10151000C043401D930001A4E3189F4600F01EB88D
:1015200000F018B800F019B800F017B800F015B8BE
:1015300000F013B800F011B800F00FB800F00DB8CB
:1015400000F00BB800F00CB800F00CB800F00DB8CB
:1015500000F00EB8881D80B210BD081D80B210BD0D
:1015600088B210BD481C80B210BD881C80B210BD6E
:10157000C81C80B210BDC046E1FF000080B57E48A7
:10158000006820B17D4900220A708068804780BDD4
:1015900080B57948006808B1C068804780BDC04602
:1015A000754908607047C046734800210160704764
:1015B00070B50C460546302000210A4600F090F830
:1015C000064678B940F6A07000F0CEF928462146CC
:1015D00000F014F8064628B1FFF716F900F09AF962
:1015E0000028F3D0304670BD80B56348006820B154
:1015F0000178624A11704068804780BDF0B583B0C1
:101600000E4600250D805C4F396879B1029008695B
:1016100080473868016A59480078401CC0B2884742
:101620000446386824B14069804754E00B2452E0F6
:10163000C069804704463868C06980473946074614
:1016400000020019C21E2548824206D300203080C5
:101650000868406980470D243DE001940868C0692E
:1016600014468047009044480068C0698047348031
:10167000A1B2412907D3002030803F48006840696B
:1016800080470D2427E001994F4000994F4000907A
:1016900047400196308858B1019E029C3648006848
:1016A000C0698047605547406D1C30888542F5D33E
:1016B000314C2068406A8047054620684069804771
:1016C000AF4204D10520FFF79DF9009C03E0002004
:1016D000019908800E24204603B0F0BDFE030000EF
:1016E000F0B585B014460D4604AAD0700026967059
:1016F000E31C1370190A51701F4F3A68C2B101936D
:1017000002900391106980471C4800783968096A83
:101710008847074630BB02E0761C042E0AD004A896
:10172000805D15490968896988470028F4D018E068
:101730000B271EE0039E01984640029846405CB18C
:1017400028780D4909688969884750B92878464042
:10175000641E6D1C002CF3D1074800688169F0B24B
:101760008847074604480068406980470520FFF71E
:1017700049F9384605B0F0BD3C0200203401002094
:10178000F0B581B01C4615460A4601460020188077
:101790000220FFF7A5FF074610B1384601B0F0BDA3
:1017A0000798069E00F0E0F805E0FFF72DF800F03E
:1017B000B1F80028F1D128462146FFF71FFF074660
:1017C0000428F2D00C2FE8D13046FFF71BF9ECE7E4
:1017D000B0B5002378B171B16AB188420DD98B18C8
:1017E00083420AD9491E0023DB438C5C8518EC54E4
:1017F000521EFAD103461846B0BD0023CC5CC45437
:101800005B1C9A42FAD1B0BD10B5C14C206028B122
:101810000178012902D1416801488847206810BD3C
:1018200038000020234908607047C04638480168E6
:1018300080220A4302607047F0B581B005460F2050
:101840000404204600F016F808B101B0F0BD304E97
:1018500030680227384330607560306840210143AA
:101860003160204600F006F83168B943316001B0BC
:10187000F0BDC04670B5441E0025641E2E466E4164
:1018800000F008F8012801D1002EF6D1012800D17E
:10189000052070BD07480168C90707D10168C9065E
:1018A00006D40068410802200840704701207047B4
:1018B000042070470C2002400448C168090603D583
:1018C00003490160034901607047C046042002409B
:1018D00023016745AB89EFCDF0B581B00C460546D5
:1018E0000F2006043046FFF7C5FF08B101B0F0BD78
:1018F000074908680127384308602C603046FFF725
:10190000B9FF034A1168B943116001B0F0BDC04688
:10191000102002401848006816490968814201D227
:101920000020704701207047704780B5012000F00B
:101930007EFA80BD80B5002000F079FA80BD80B5C8
:1019400000F0BBFA00F013FB80BD80B500F0B5FAE3
:1019500000F00DFB80BD80B500F0DAFA80BD80B5E7
:1019600000F0F0FA80BD0000024909680818024939
:1019700008607047300100205C05002080B50A2017
:10198000FFF740F880BD80B50A20FFF73BF880BD27
:10199000B0B502461F4B174818601F4818605960C1
:1019A0000D4901200D46DC68044015B16D1C002C6A
:1019B000F9D1604260415CB9084C22409A60022231
:1019C000DC68144011B1491C002CF9D104B100208D
:1019D00008B105491960B0BD0200F0FFFF0F00001B
:1019E0000C48014901607047AAAA00000948014952
:1019F00001607047CCCC0000034909680140481ED3
:101A0000814108467047C0460C30004001480249F9
:101A1000016070470030004055550000F0B585B0BA
:101A200003930E46B84C2171E070782161708021DB
:101A30002170000AA070651D284611463246FEF747
:101A400083FBA81907223146049211400822571A35
:101A500060493A46FFF7BCFEBE192671102002907D
:101A600000905B4FA94B384629463246FFF7D3F921
:101A7000284639463246FFF7ABFEA5480068254F99
:101A800090B1846940F6A0700A2100910190701D08
:101A900081B29D48A04EA14D32462B46A04738B199
:101AA000FFF730FD05460EE01C20C043851E0AE00E
:101AB000288802283D4606D38019411E0978801ED9
:101AC000007800024518A8B249F2000188421BD1F3
:101AD000924E3088821E402A17D80498104014D1A4
:101AE0000A9F029800903C4C8B49884B2046FFF798
:101AF00069F93088821E03982146FFF769FE308815
:101B0000801E38802F4600E02F46B8B205B0F0BDE9
:101B100040020020E3FF0000F0B585B0049203917D
:101B2000794D08262E71E870722169708021297024
:101B3000000AA87010240094254F2649734B38469C
:101B40003246FFF768F9681D39463246FFF740FE16
:101B50006F4800686F4EC8B1856940F6A0700A21D1
:101B60000091019068480D216B4E6C4F32463B4608
:101B7000A84718B1FFF7C6FC064607E03888801969
:101B8000411E0978801E007800024618B0B249F262
:101B90000001884218D1614F3888821E402A02D93C
:101BA0005C48861C10E000940B4C5B49574B204668
:101BB000FFF708F93888C21E03982146FFF708FE90
:101BC0003888C01E04990880B0B205B0F0BDC04688
:101BD000780000201000002098000020F0B583B0AD
:101BE00017460D46484E00213171F070792272700F
:101BF00080223270000AB070321D701D0090019278
:101C0000424A1023FEF724FE4148006898B102952D
:101C10008569307940F6A0710A2200920191411D38
:101C20003D4A3E4C304616462346A84728B1FFF7AA
:101C300069FC064609E0374E08E020888019411EFD
:101C40000978801E007800024618029D49F20000C3
:101C500086420AD13148007800950197801EC1B2B2
:101C60002D482A4A002300F0DBFB304603B0F0BDCC
:101C7000F0B583B01F461546234E717101213171B5
:101C8000F0707722727080223270000AB070321DBC
:101C9000701D009001921D4A1023FEF7D9FD1C48CB
:101CA000006898B102958569307940F6A0710A22E2
:101CB00000920191411D184A184C304616462346A1
:101CC000A84728B1FFF71EFC064609E0114E08E0C0
:101CD00020888019411E0978801E0078000246186D
:101CE000029D49F2000086420AD10C480078009516
:101CF0000197801EC1B20848044A002300F090FBFF
:101D0000304603B0F0BDC04635010020600600201B
:101D100040020020E1FF0000D80000201801002050
:101D2000F0B582B00191016A0090446A00252E4608
:101D300003E02D1D761C082E0AD01746F740FF073A
:101D4000F7D0019FAF400F23AB4099433943F0E7F1
:101D50000825002603E0361D6D1C102D0AD0134601
:101D6000EB40DB07F7D0019BB3400F27B740BC43E4
:101D70001C43F0E700980162446202B0F0BD81624A
:101D800070478161704700690840411E8841704773
:101D9000F0B582B0019305680090C0680026374610
:101DA00003E0B61C7F1C102F0ED0019BFB40DB070D
:101DB000F7D01346B3400324B440A04318430B4666
:101DC000B340A5431D43ECE700990D60C86002B025
:101DD000F0BDF0B581B0012902D14168194301E09D
:101DE00041689943416000908168002403202646A1
:101DF00003E0A41C761C102E0AD01F46F740FF07F4
:101E0000F7D01746A7400546A540A9433943F0E758
:101E10000098816001B0F0BD81B040F2E8300090E0
:101E20000098411E00910028FAD101B07047F0B52A
:101E300085B000900920C006022103900291FFF7AF
:101E4000A0FF0026012001903446039F04943846E9
:101E5000019C2146FFF795FFFFF7DEFF3846029908
:101E6000FFF791FF054638462146FFF788FF681EB9
:101E70008541049840004419FFF7CEFF701C072EDF
:101E80000646E3D3039E0098022118B13046FFF7BF
:101E900076FF02E03046FFF774FFFFF7BDFF012534
:101EA00030462946FFF76DFFFFF7B6FF304629465B
:101EB000FFF765FFE0B205B0F0BDF0B581B00446B4
:101EC0000920C506002602200090012716E02846BA
:101ED0000099FFF754FFFFF79FFF28463946FFF7A9
:101EE00050FFFFF799FF28463946FFF748FF640087
:101EF000FFF792FF701C072E064607D260B200283B
:101F0000E5D528460099FFF73CFFE4E701B0F0BDB6
:101F100070B50920C406022620463146FFF731FF7E
:101F2000012520462946FFF72CFFFFF775FF2046C5
:101F30003146FFF724FFFFF76FFF20462946FFF7E2
:101F40001EFF70BDB0B50920C406022520462946F3
:101F5000FFF715FF01212046FFF713FFFFF75CFF96
:101F600020462946FFF70DFFFFF756FFB0BDF0B53D
:101F700081B00920C406022620463146FFF701FF42
:101F8000FFF74AFF012520462946FFF7FAFEFFF733
:101F900043FF002720463146FFF7F5FE30B1781C9D
:101FA000C82F0746F6D3FFF7CDFF04E001212046F6
:101FB000FFF7E5FE0025284601B0F0BD00F0C0FCAB
:101FC000FEF7BEFBFEF79EFBFEF722FCFEF71CFCB5
:101FD000FEF71EF9FEF718FCFEF740F9FEF714FCB9
:101FE000FEF79AFAFEF710FCFEF75EFBFEF7A8FA82
:101FF000F8E70000F0B59DB00646002401910C8082
:102000002E4D2868FEF797F829680029204600D44D
:10201000481C02962860FEF785F818A90855641C2C
:10202000102CF8D1264801684068199018911026A4
:1020300018A908AA07AB304600F07AFA074649F219
:102040000000874236D1009608A908241D4B029D46
:1020500028462246FEF7B6FE18A908312846224631
:10206000FEF796F808B1184F24E003AC08AF082536
:10207000204639462A46FFF7ABFB0096083439461E
:102080000831104B20462A46FEF7C5FE07AB28460E
:1020900021463A4600F084FA074649F2000087429A
:1020A00008D1009603A9074B02983246FEF7B3FE0B
:1020B0000198068038461DB0F0BDC04628010020BA
:1020C0007000002060000020CEFF000010B5044624
:1020D000FEF798F92046FEF787F910BD034A0A403B
:1020E000024303480260BFF34F8F704780FFFF1F1A
:1020F00008ED00E043487047B0B5414D2978062906
:1021000018D88A0001A39A189746C04600F00CB868
:1021100000F014B800F022B800F025B800F02DB897
:1021200000F039B800F03DB8A52849D101242C7041
:102130002046B0BD0020287001242AE00124A528F3
:1021400027D05A2843D1304800210170022028703E
:102150002C48FE21FEF711F82046B0BD032129705E
:10216000284908703CE02749487070B3FB2832D3F7
:102170000020287003242046B0BD23490A78214B53
:102180009C18A070501C08705978C0B20124884275
:1021900019D22046B0BD0002FC211A4A5052062036
:1021A0001DE0FC2217498B5A03438B52084600F06E
:1021B0002DF800212970414241414C002046B0BD1C
:1021C00004242046B0BD052002E0052007E00020E1
:1021D00028702046B0BD0C480021017004202870F2
:1021E00001242046B0BDC04610B505480024047047
:1021F0000448FE21FDF7C1FF0348047010BDC0462E
:10220000530300205403002045030020B0B5B0B1B3
:10221000044611485A214170A5210170217881702E
:102220006178C170617861B1A21C0021535C4518CE
:102230002B71491C63789942F8D3081D02E00020F5
:10224000B0BD042081B20448FDF7C2FFFC21615AF1
:10225000411A48424841B0BD44020020F0B581B067
:102260000246544B18680C21014053480829044683
:1022700018D119688902090F0F2901D08C1C00E0C0
:1022800010241D682D0101D511310C461968C903B0
:1022900001D44A4905E0996A0F250D40691CB0FB3D
:1022A000F1F14C431D6818681968052A1ED8009082
:1022B0002D062D0F42A77F5D2546FD408904490F5D
:1022C00043A77E5C2946F140960001A0801987460D
:1022D00000F00AB800F00CB800F00CB800F066B8D6
:1022E00000F00FB800F016B821465FE000215DE075
:1022F00029465BE000984005400F385CC540294600
:1023000054E0D86AC0051CD4D86AC0032ED533481F
:1023100001B0F0BDD86A800748D0D86A03221040C7
:102320000128214642D0D86A104048F20001022814
:102330003CD0D86A104003281F4800D0002001B0CC
:10234000F0BD1A68D86A1204920F930001A4E31832
:102350009F46C04600F006B800F00BB800F00DB87C
:1023600000F011B8002812D449081FE01A4801B043
:10237000F0BD00280FD4890818E000280FD40620EB
:10238000B1FBF0F112E000280DD4C9080EE00320E3
:10239000B5FBF0F10AE00520B5FBF0F106E00720FF
:1023A000B5FBF0F102E00920B5FBF0F1084601B001
:1023B000F0BDC0460410024000127A0000093D0042
:1023C00000000000000000000102030406070809E5
:1023D0000000000001020304809FD500003FAB0114
:1023E0001F21014001228A4080090C4943581343B0
:1023F000435070471F21014001228A40800907494C
:1024000043589343435070471F21014001228A40A3
:10241000800902494358134343507047001002405B
:1024200070B592B00C460146601E179E3F2801D938
:10243000002417E01346169D1020009002A82246A3
:10244000FEF7C0FC002034B1641EE1B202AA515C68
:102450008029F8D100E00446E4B202A928462246C9
:10246000FFF7B6F9348012B070BD0000F0B585B04A
:1024700004920391E84D08262E71E870742169706A
:1024800080212970000AA87010240094254F264945
:10249000E24B38463246FEF7BEFC681D39463246EE
:1024A000FFF796F9DE480068DE4EC8B1856940F650
:1024B000A0700A2100910190D7480D21DA4EDB4F20
:1024C00032463B46A84718B1FFF71CF8064607E01E
:1024D00038888019411E0978801E0078000246184D
:1024E000B0B249F20001884218D1D04F3888821E1C
:1024F000402A02D9CB48861C10E000940B4CCA49F4
:10250000C64B2046FEF75EFC3888C21E0398214663
:10251000FFF75EF93888C01E04990880B0B205B094
:10252000F0BDC04678000020100000209800002078
:10253000F0B583B0029315460746B74810220271E2
:102540000022C27082707122427080220270401D8F
:102550003A46FFF73DF9B2480068B24EE8B18469E7
:1025600040F6A0700A2100910190781D81B2AA481E
:102570002A46029F3B46A04718B1FEF7C3FF064616
:102580000BE03888022807D34019411E0978801EC5
:1025900000780002461800E0B61CB0B203B0F0BDEF
:1025A000F0B583B00293154607469B480822027196
:1025B0000022C27001228270732242708422027053
:1025C000401D3A46FFF704F995480068954EE8B17A
:1025D000846940F6A0700A2100910190781D81B2B3
:1025E0008D482A46029F3B46A04718B1FEF78AFF56
:1025F00006460BE03888022807D34019411E0978A7
:10260000801E00780002461800E0B61CB0B203B08D
:10261000F0BDC04670B59EB000240EAD0DAE204694
:1026200029463246FFF778FA40F200102946324632
:10263000FFF71CFFFEF7BAFE18B109A8FEF7C0FEAF
:1026400008B11EB070BD02AD10226A72C22028729D
:10265000EC71AC7102206871C12129710321E9700C
:10266000AC706870C020287028460A3009A9FDF7B0
:102670006BFD0DA800901A210EAB20462A4600F0F3
:10268000C9FA1EB070BD0000F0B581B0FFF7C2FFFF
:10269000292000F019F808B1012410E000270126D4
:1026A0003D46042D344600D33C46042D07D0054852
:1026B0004019407800F008F86D1C0028F1D0204641
:1026C00001B0F0BD53360008B0B596B00446FEF731
:1026D0009BF805A8039006A8029000250195009498
:1026E0000F220E4B2846294600F042F849F200011D
:1026F00088420FD10A48047005A8039006A80290EA
:1027000000200190009401250822064B2846294606
:1027100000F02EF8284616B0B0BDC0463C36000882
:10272000520400204B36000870B5B0B102784378EF
:102730001B029A188378C4782402E3181B049A18A1
:102740008379C47905794079074E00024019240243
:10275000E3181B0418183260706019B10348102286
:10276000FDF7F2FC70BDC046700000206000002044
:10277000F0B583B01546A14CE170A0707020607078
:1027800080202070901C2071661D30461946FFF78E
:102790001FF8089870557019099941702179201D0A
:1027A00000960190964A10233046FEF751F895485E
:1027B000006890B18769207940F6A0710A220092E2
:1027C0000191411D914D924E20462A463346B8470D
:1027D00028B1FEF797FE044609E08B4C07E03088ED
:1027E0004019411E0978801E00780002441849F201
:1027F000000084420CD10B980A99854A1278009106
:102800000190901EC1B281487D4A0023FFF708FE67
:10281000204603B0F0BDC046350100206006002010
:1028200040020020E1FF0000D80000201801002035
:10283000034909680140481E814108467047C04667
:102840001800014070B583B0374B9A1C3748011F00
:102850000C6814430C60012254040D685E1E9E42F5
:1028600002D225403346F8D00B68234200D1FEE760
:102870002F4C256802231D430526B54325600468B7
:1028800090252543056004680460046804600468BA
:10289000284D254005601D24240405682543056056
:1028A00012060C6814430C600A689201FCD501689A
:1028B00002910321029A8A430292029919430291DA
:1028C000029901600C2102680A40082AFBD100220B
:1028D000019201997F2905D80199491C019101991B
:1028E0008029F9D301680091F021009B8B4300936C
:1028F0008023009C1C430094009B03600192019A7A
:102900007F2A05D8019A521C0192019A802AF9D394
:1029100002680092009A8A430092009900910099FF
:10292000016003B070BDC046FEFF0000041002400D
:1029300000200240FFFFC27780B5FFF783FF80BD14
:1029400080B50748006840F2E831B0FBF1F0FDF7D0
:10295000B1FC00B1FEE70020FDF774FD80BDC0466C
:102960000C000020F0B583B01F461546D24E7171A1
:1029700001213171F0707522727080223270000A6C
:10298000B070321D701D00900192CE4A1023FDF7E9
:102990005FFFCD48006898B102958569307940F6AF
:1029A000A0710A2200920191411D184A184C30462C
:1029B00016462346A84728B1FEF7A4FD064609E0BF
:1029C000C24E08E020888019411E0978801E0078D8
:1029D00000024618029D49F2000086420AD10C48C6
:1029E000007800950197801EC1B20848B54A0023BF
:1029F000FFF716FD304603B0F0BDC046350100209C
:102A00006006002040020020E1FF0000D800002006
:102A1000180100203348008833490988401AC0B2A1
:102A20007047C0462F4800882F4908807047C0462D
:102A30002D4908882D4A105C0A88521CD2B20A809F
:102A40007047C046B0B501464C4C204600F07CF8BB
:102A5000034D2046294600F0A4F80028F9D0B0BD67
:102A600007070000B0B548B10C4639B105462878D3
:102A7000FFF7E8FF641E6D1C002CF8D1B0BD00000C
:102A800010B590B109490A684B688968140EC47082
:102A9000140C8470140A44700270594001710A0EBB
:102AA000C2710A0C8271090A417110BDACF7FF1F97
:102AB00010B5324C0A49204600F08DF870B120461E
:102AC00000F03EF807490A88521CD2B2064B1B8818
:102AD0009A4203D00B88054CE0540A8010BDC046D2
:102AE000050005075405002056050020530400206A
:102AF000B0B50D4604462148844204D020488442A3
:102B000005D1022000E00520FFF7A8FB00E000202F
:102B10002168090406D469084018B0FBF5F080B2BA
:102B2000E060B0BD690840004018B0FBF5F0034913
:102B300001400007400F4018E060B0BDF0FF00000A
:102B4000416A034808407047014A0A408262704760
:102B5000FF01000010B50949884204D008498842A5
:102B600008D1084C00E0044C2046FFF74DFC2046FD
:102B7000FFF740FC10BDC0460E03000000380140C6
:102B80000044004011040000016801220A43026071
:102B900070471F220A4001219140026A0A430262E3
:102BA00070471F220A4089090958D1400120084076
:102BB00070471F220A400123934089090A589A430B
:102BC0000A5070471F220A400123934089090A587E
:102BD0001A430A5070471F220A400B049B0D1B58D2
:102BE000D3408A0D1258C802C00EC2401A400120BC
:102BF00010407047026804239A43026002680A4347
:102C000002607047026808239A43026002680A4320
:102C100002607047F0B583B002930E46264C2171D6
:102C2000E0707621617080212170000AA070651D1E
:102C3000284611463246FEF7CBFDA8190721314040
:102C40000822571A1D493A46FEF7C2FDBE192671E1
:102C5000102000901A4F1B4B384629463246FEF78B
:102C6000DAF8284639463246FEF7B2FD16480068C3
:102C7000164DF0B1089F846940F6A0700A210091BA
:102C80000190701D81B20C48029E32463B46A0471F
:102C900018B1FEF737FC05460BE03888022807D349
:102CA0008019411E0978801E00780002451800E056
:102CB000AD1CA8B203B0F0BD35010020100000200B
:102CC000780000206006002040020020E1FF0000A4
:102CD00021B100220270401C491EFBD1704702E066
:102CE00008C8121F08C1002AFAD170477047002097
:102CF00001E001C1121F002AFBD1704710B5002866
:102D000023D0124B0022001F196803E0814203D830
:102D10000A4649680029F9D1002A0AD01368841AA2
:102D20009C4204D1006818181060104602E0506000
:102D300000E01860002907D002680B1A934203D103
:102D40000B68D21802604968416010BD0400002081
:102D5000F0B50B30C108C900144F0026144A0FE02B
:102D600003688B420BD38B4205D95C1A4318456824
:102D700030C3083B00E04368136002C004E0021D5A
:102D800010680028ECD13046002803D138680028AC
:102D900001D00020F0BD064A06481060064A121A0B
:102DA000D208D20044C001203860D7E708000020D4
:102DB0000400002074060020700A002000000000BB
:102DC00001000000000100000101000000000100FE
:102DD00001000100000101000101010000000001EB
:102DE00001000001000100010101000100000101DA
:102DF00001000101000101010101010100000000C9
:102E000000000001000001000000010100010000BD
:102E100000010001000101000001010101000000AA
:102E20000100000101000100010001010101000099
:102E30000101000101010100010101010004010182
:102E40000000000000000100040401010400010171
:102E50000404010004000000000001000004000060
:102E60000004010104040101000400000404000145
:102E7000040001010000000104000000040400003F
:102E8000000400010004000100040100000401002E
:102E90000000010100000101040400010400010020
:102EA0000400000104000001040001000000000013
:102EB00004040000040401000000000100000100FF
:102EC00004040101040000000000010100040101EC
:102ED00000000001000000010004000004000101E6
:102EE00000000100000401000400000100040000D3
:102EF00004000000040400010404010004040101B2
:102F000004000100000001010404000104000001AC
:102F10000404000004040100000401010404000092
:102F20000004000100040001000000000400010092
:102F30000004010000000000040001012080108056
:102F40000080008000800000208010000000100041
:102F500020000000200010802080008020000080E1
:102F600020801080008010800000008000800080A1
:102F700000001000200000002000108000801000E1
:102F80002000100020800080000000000000008071
:102F90000080000020801000000010802000100041
:102FA0002000008000000000008010002080000051
:102FB00000801080000010802080000000000000D1
:102FC0002080100020001080000010002080008071
:102FD0000000108000801080008000000000108041
:102FE00000800080200000002080108020801000E1
:102FF0002000000000800000000000802080000011
:1030000000801080000010002000008020001000D0
:103010002080008020000080200010000080100030
:103020000000000000800080208000000000008080
:103030002000108020801080008010000802000016
:103040000002020800000000080002080002000858
:103050000000000008020200000200080800020050
:10306000080000080800000800000200080202082A
:10307000080002000000020808020000000000082A
:103080000800000000020208000200000002020026
:1030900000000208080002080802020008020008F6
:1030A0000002020000000200080200080800000000
:1030B00008020208000200000000000800020208E6
:1030C00000000008080002000802000000000200E2
:1030D00000020208000200080000000000020000D8
:1030E00008000200080202080002000808000008A8
:1030F00000020000000000000800020808020008AA
:103100000000020000000008080202080800000099
:103110000802020000020200080000080000020885
:10312000080200080802000000000208080202006D
:1031300008000000080002080002020001208000D0
:10314000812000008120000080000000802080009D
:1031500081008000010080000120000000000000CC
:10316000002080000020800081208000810000007D
:1031700000000000800080000100800001000000CD
:10318000002000000000800001208000800000007E
:1031900000008000012000008020000081008000ED
:1031A000010000008020000080008000002000005E
:1031B000802080008120800081000000800080004D
:1031C000010080000020800081208000810000003C
:1031D00000000000000000000020800080200000AF
:1031E000800080008100800001000000012080003C
:1031F00081200000812000008000000081208000EC
:10320000810000000100000000200000010080009B
:10321000012000008020800081008000012000004B
:10322000802000000000800001208000800000005D
:1032300000008000002000008020800000010000CD
:10324000000108020000080200010042000008001E
:1032500000010000000000400000080200010840DA
:1032600000000800000100020001084000010042C7
:1032700000000842000108000000004000000002B9
:10328000000008400000084000000000000100406D
:10329000000108420001084200010002000008424B
:1032A0000001004000000000000000420001080290
:1032B00000000002000000420001080000000800B9
:1032C0000001004200010000000000020000004078
:1032D0000000080200010042000108400001000255
:1032E0000000004000000842000108020001084000
:1032F0000001000000000002000008420001084236
:10330000000108000000004200010842000008021D
:10331000000000000000084000000042000108001A
:103320000001000200010040000008000000000051
:1033300000000840000108020001004010000020C9
:1033400000004020004000001040402000004020CD
:10335000100000001040402000004000004000200D
:10336000104040000000400010000020100040000D
:10337000004000200000002010400000000000007D
:1033800010004000104000200040000000404000BD
:1033900010400020100000001000402010004020CD
:1033A000000000001040400000404020104000009D
:1033B000004040000040402000000020004000206D
:1033C000100000001000402000404000104040204D
:1033D00000004000104000001000002000004000ED
:1033E00000400020000000201040000010000020DD
:1033F00010404020004040000000402010404000AD
:10340000004040200000000010004020100000009C
:10341000004000000000402010404000004000003C
:10342000100040001040002000000000004040203C
:10343000000000201000400010400020000020008C
:103440000200200402080004000000000008000040
:1034500002080004020820000008200402082004DA
:103460000000200000000000020000040200000034
:10347000000000040200200402080000000800040C
:1034800002082000020020000008000402000004DE
:103490000000200400082004020020000000200496
:1034A00000080000020800000208200400082000B4
:1034B00002000000000000040008200000000004DA
:1034C0000008200000002000020800040208000498
:1034D000020020040200200402000000020020007C
:1034E0000000000400080004000020000008200480
:1034F0000208000002082000000820040208000062
:10350000020000040208200400002004000820003B
:10351000000000000200000002082004000000007B
:10352000020820000000200400080000020000043F
:1035300000080004000800000200200040100010F5
:1035400000100000000004004010041000000010F3
:103550004010001040000000000000104000040077
:1035600000000410401004100010040000100410AB
:103570004010040000100000400000000000041093
:103580004000001000100010401000000010040067
:10359000400004004000041000100410401000001F
:1035A0000000000000000000400004104000001077
:1035B000001000104010040000000400401004003F
:1035C0000000040000100410001000004000000083
:1035D0004000041000100000401004000010001013
:1035E00040000000400000100000041040000410E3
:1035F0000000001000000400401000100000000057
:1036000040100410400004004000001000000410AE
:1036100000100010401000100000000040100410C6
:1036200000100400001004004010000040100000D2
:1036300040000400000000100010041007242615AC
:103640004027F0281F0C102640185407241527285F
:103650000C2618292C282F2E783600080000002070
:1036600078000000DE2C0008F0360008780000200A
:10367000F80D0000EE2C0008000000000000000023
:103680000000000000A24A048000000000000000CA
:1036900001000000A115000891150008E9150008B7
:1036A0007D150008B115000881170008A91500084C
:1036B000E2000000871900087D1900082919000898
:1036C000571900085F1900084B1900082B1900084A
:1036D0003F19000835190008CC5B14B6E2F25929ED
:1036E000649FA55C726BAED5112233445566778812
:04000005080000CD22
:00000001FF
