:020000040800F2
:1000000028080020E1000008DF070008DD070008DD
:1000100000000000000000000000000000000000E0
:10002000000000000000000000000000310800088F
:1000300000000000000000002F0800085908000818
:100040000D0100080D0100080D0100080D01000858
:100050000D0100080D0100080D0100080D01000848
:10006000000000000D0100080D0100080D0100084E
:100070000D0100080D0100080D010008000000003E
:100080000D0100080D010008000000000D0100082E
:100090000D0100080D0100080D0100080D01000808
:1000A0000D0100080D0100080D0100086509000898
:1000B0000D0100080000000000000000000000002A
:1000C0000D010008000000000D01000803488546EE
:1000D00000F08AF800480047B517000828080020FB
:1000E0000B4802680B480240120C92020A4940F287
:1000F000000001C1121F002AFBD1084880470848B0
:100100000047FEE7FEE7FEE7FEE7FEE7FEE700004A
:10011000E0F7FF1F0000FFFF000000207908000843
:10012000CD00000803460B439B0703D009E008C934
:10013000121F08C0042AFAD203E00B780370401C97
:10014000491C521EF9D27047D2B201E00270401C25
:10015000491EFBD270470022F6E710B513460A4647
:1001600004461946FFF7F0FF204610BD30B504469F
:100170000020034600E05B1C934203D2E05CCD5CB0
:10018000401BF8D030BDF0B51FB40646002082B049
:1001900005464024019100901BE0019922460F463C
:1001A000304600F043F8049A059B801A994110D319
:1001B00010461946224600F029F8361A8F41019759
:1001C000224601200021009F00F020F838184D4100
:1001D00000902046641E0028DFDC019B0098294621
:1001E000324607B0F0BD0000064C0125064E05E082
:1001F000E36807CC2B430C3C98471034B442F7D348
:10020000FFF768FF98260008B826000810B5202AD6
:1002100004DB0146203A9140002010BD914020238C
:100220009C1A0346E3401943904010BD10B5202AA4
:1002300004DB0846203AD040002110BD0B46D340D5
:10024000D0402024A21A91400843194610BD000056
:10025000F0B58C4EA9B100220B4B144603E0641C90
:100260008C422E460ED0055D7540164604E03D4694
:10027000771C072E3E46F2D26F08ED07F7D05F409D
:10028000F5E73546A8B2F0BD01A0000080B5142006
:1002900000F07AF903210140032903D0142003213F
:1002A00000F06EFA80BD0000F0B58BB0002700288A
:1002B00000D1B7E0002900D1B4E0069005910A20F2
:1002C0008025294600F05CFA0E2000F0E6F80D26A5
:1002D00000273046394600F05EFA09249321204673
:1002E00000F059FA2021204600F055FA01200C2197
:1002F000049000F050FA3046294600F041FA40F2EE
:10030000D074042540F2D076300407D0761E2846FB
:1003100000F03AF98006800FF6D000E0E74E0D209D
:1003200000F0BBF8300479D0062000F02DF91B2630
:10033000304273D10A2000F027F905284AD10296ED
:1003400000270926304600F01FF909A9C8557F1C6F
:10035000052FF7D109AE3278777801975740B178F9
:100360004F40F3785F40367904200390B74234D190
:10037000882A35D1069A93705170019810700A201E
:100380008021019100F0FCF90E2000F086F80D208C
:1003900004900027394600F0FEF9092695213046E1
:1003A00000F0F9F92021304600F0F5F901200C2188
:1003B000009000F0F0F90498019900F0E1F9029E34
:1003C00020041CD0641E042000F0DEF88006800F9C
:1003D000F6D015E000272A461DE00027039A1AE010
:1003E0000998069A1070010ED170010C9170000AE4
:1003F0005070042005990870049F00220BE0DF4C28
:100400000D2000F04AF8200404D0062000F0BCF8CB
:1004100030420BD0039A2A43042A06D10E208021B1
:1004200000F0AEF9F8B20BB0F0BDFBE70A2000F027
:10043000ABF80528039AEED100260924204600F0E7
:10044000A3F807A98855761C052EF7D107A90A78C5
:100450004B78184650408C786040CE7870400979CF
:1004600088420AD1069FBE717C713B71FA700722E7
:10047000059B1A700022009F01E000270422884299
:10048000BBD0C8E7FFFF000080B5372000F07CF844
:10049000FF2800D000B9002080BD10B5044600F050
:1004A00073F87F210140204600F075F910BD00006F
:1004B00080B582B001200F2100F06DF91048019045
:1004C0000198411E01910028FAD12A208D2100F0C7
:1004D00062F92B203E2100F05EF92C20012100F072
:1004E0005AF92D20E02100F056F92620702100F065
:1004F00052F9FFF7CBFE03480021017002B080BD26
:1005000050C3000016010020B0B584B01C4603465D
:100510000020BAB1B4B101AD69702B70A81C0623DC
:1005200011461A46FFF7FEFDE078E872A078A8723F
:1005300060786872207828720C21002228461346C1
:1005400000F094FE04B0B0BD70B588B0C1B10C46E7
:1005500007AB58703020187001AE002535700221AD
:1005600002AA1846334600F081FE50B130781228B6
:1005700007D102A910222046FFF7D4FD012500E093
:100580000025284608B070BDB0B5044601F0BEF89D
:10059000502001F091F801F0E7F810B10024012596
:1005A00016E0204601F088F801F0DEF8002401256D
:1005B00060B901F0ABF8512001F07EF801F0D4F8F9
:1005C00020B90025284601F033F8044601F0B8F8B8
:1005D000284601F01BF82046B0BDF0B58DB00024D0
:1005E000D8B113460A46C1B1BBB10546602004210B
:1005F000FFF78AFF88B1002401AE2746381DC0B23C
:100600003146FFF7A1FF40B17F1C1036032FF5D113
:1006100001A8294600F08CFC012420460DB0F0BD55
:10062000F0B581B000900A208027394600F0A8F884
:1006300004263046FFF731FF0D240721204600F045
:10064000AAF80920262100F0A6F801250C21284649
:1006500000F0A1F82046394600F092F840F2D0743C
:10066000464F200407D0641E3046FFF78DFF8006FA
:10067000800FF6D000E03C460D20FFF70EFF00266D
:10068000200417D00620FFF77FFF1B21084211D15D
:100690000A20FFF779FF02280CD109242046FFF732
:1006A00073FF06462046FFF76FFF310208180099D6
:1006B00008802E46304601B0F0BDC046FFFF000066
:1006C000F0B581B00026002855D00D46002952D043
:1006D00004460A20802100F053F80D200026314600
:1006E00000F059F809279321384600F054F870219A
:1006F000384600F050F8A15D384600F04CF8761C02
:10070000B542F8D1042D09D1207861784140A07814
:100710004840E1784140092000F03DF801240C21D7
:10072000204600F038F80D20802100F029F840F232
:10073000D077124E0425380407D07F1E2846FFF7D5
:1007400023FF8006800FF6D000E037460D20FFF72C
:10075000A4FE002638040ED00620FFF715FF1B214B
:10076000084208D10A20FFF70FFF012803D1092012
:10077000FFF70AFF2646304601B0F0BDFFFF00003C
:10078000B0B50C460546FFF7FFFE04432846214658
:1007900000F001F8B0BD70B50D46064600F0B6FF9A
:1007A000502000F089FF012400F0DEFF90B93046B0
:1007B00000F082FF00F0D8FF10B100F0C1FF09E0A7
:1007C000284600F079FF00F0CFFF0446401E844128
:1007D00000F0B6FF204600F019FF70BDFEE740F2C2
:1007E000001001F03FFA012800D1FEE7FEE770B5E6
:1007F0001C46DA7098705A205870A520187004268C
:1008000041B13AB1231D00200D5C1D54401C8242B1
:10081000FAD1061DB5B220462946FFF719FD711C15
:1008200089B26054000A6055B01C80B270BDFEE70A
:10083000FEE7000010B5401E010E01D0012010BDE2
:10084000044C6060032000F0BFF80020A060072186
:10085000216010BD10E000E005480168491C0160FE
:100860000448016811B10168491E01607047C04623
:10087000100000200C00002070B582B0354E341FEF
:10088000206801252843206020688007FCD5306857
:100890000C21014008292BD130680090F0200099EC
:1008A000814300918021009A0A43009200993160AF
:1008B00000210191019A7F2A05D8019A521C0192C8
:1008C000019A802AF9D332680092009A82430092FA
:1008D0009020009A024300920098306001910198A4
:1008E0007F2805D80198401C019001988028F9D3F1
:1008F0000320C04331680140316000F071F8206886
:100900001549014021603068144901403160306868
:10091000134901403160B06A0F218843B062F06A28
:1009200040F203118843F0622804F16A8143F162C6
:10093000E807F16A8143F162306BA8433063002419
:10094000746001F013FAE806214600F0EDFF02B0F2
:1009500070BDC04604100240FFFFF2FE0C00FF080D
:10096000FFFFC27780B501F0ADFA80BD002807D443
:100970001F21014001228A40400980000149425064
:100980007047C04600E100E0002805D4032203467A
:1009900093430C4A9A1806E00F220240083A0323B8
:1009A0009A43074BD2188007C00E8901C9B2814013
:1009B000FF23834010689843084310607047C04687
:1009C0001CED00E000E400E0FF210906034A136883
:1009D0008B438007181810607047C04620ED00E078
:1009E00081B0002000900098C0087C2807D840F211
:1009F000E8300099491C009100998142F9D301B077
:100A000070470000B0B584B001AC204601F03CFA5C
:100A100001200C220D4D21462B46FFF7E8FE014632
:100A2000284601F023FA0AA001F0FEFA00250E4C38
:100A300001A8415D204601F0F7FA6D1C0C2DF7D19D
:100A40000AA001F04BFD04B0B0BDC0462603002053
:100A50005B54585D20554944205175657279205288
:100A60006573703A200000001B2600080D0000008E
:100A700010B582B001A900220A7000F07BFB20B102
:100A800001460BA001F0D0FA05E001A80121017098
:100A90000FA001F023FD022001A90122124C2346E0
:100AA000FFF7A5FE0146204601F0E0F902B010BDB7
:100AB0005B4B45595D205772697465204641494C2E
:100AC00045442C206572723D25640D0A000000002B
:100AD0005B4B45595D2057726974652053554343FC
:100AE0004553530D000000002603002010B560B1EF
:100AF0000446427801780EA001F096FA2178022986
:100B000004D0012909D1607878B110BD617810292D
:100B100007D1A01CFFF7ACFF10BD19A001F084FAAB
:100B200010BD0AA001F080FA10BDFFF76BFF10BDE9
:100B30005B52585D20434D443D3078253032582C6F
:100B4000204C454E3D25640D0A0000005B45525285
:100B50005D204B4559206C656E677468206D697324
:100B60006D617463683A20657870656374656420AC
:100B700031362C20676F742025640D0A00000000B8
:100B80005B5741524E5D20556E6B6E6F776E204302
:100B90004D443A203078253032580D0A00000000CC
:100BA00080B500F043FF0A48002101700948017038
:100BB000094801604160018100F0B5FA08B113A055
:100BC00000E006A001F08AFC16A001F087FC80BDC1
:100BD0002201002014010020180100205B4352591B
:100BE00050544F5D2043686970206F66666C696E73
:100BF000652C207573696E672070617373746872F9
:100C00006F756768206D6F64650D00005B43525916
:100C100050544F5D2043686970206F6E6C696E653B
:100C20000D0000003D3D3D204170702050726F74FA
:100C30006F636F6C20496E6974204F4B203D3D3DC2
:100C40000D000000F0B5AFB02EA8002505802AA841
:100C500005704748026847490B689A1AC82A01D2AA
:100C60002FB0F0BD096801602EA8FFF7D9FC20B3B2
:100C70002BA82AA9FFF718FB48B32AA801782BA8AC
:100C8000FFF71EFD00284CD03B480178012920D1F8
:100C90002AA90978394A127891421AD10029DFD05D
:100CA0000022374B2BAC1E782778B74211D1521C4B
:100CB000641C5B1C8A42F6D3D2E72F4801780129D5
:100CC000CED12E4900220A70027055482AE05348BE
:100CD00028E0012101702AAC2278284802702848B7
:100CE0002BA9FFF71FFA27A001F09EF9207850B139
:100CF0002B4C2BA8415D204601F096F96D1C2AA8CB
:100D000000788542F5D32EA8018826A001F08CF941
:100D100000F00CFA18B126A800F012FA30B134A095
:100D200000E03D4801F0DAFB2FB0F0BD1CA826A979
:100D30002BAAFFF752FCB8B11FA001F0CFFB1CA8F3
:100D400012AC214601F028F801AB002018702821D0
:100D500002AA204600F0D8F940B101A8017802A803
:100D600000F09EF82FB0F0BD2048DBE719A0D9E7CE
:100D700008000020100000201401002022010020A3
:100D8000180100205B524649445D20436172642093
:100D900064657465637465642C205549443A200089
:100DA0001B2600082C20547970653A2030782530B5
:100DB00034580D0A000000005B524649445D20543F
:100DC000616720646174612072656164204F4B0D1E
:100DD000000000005B524649445D20456E63727915
:100DE0007074206661696C65640D0000212600083E
:100DF0005B524649445D204B4559206E6F74207309
:100E0000746F7265642C20736B6970207461672045
:100E1000726561640D0000006B260008532600080F
:100E200081260008B0B500F0F9FFC8B10DA414A5E3
:100E300005E0284601F052FB00F0F0FF80B100F021
:100E4000FBFF00F07FFD032808D00228F1D0002826
:100E5000F2D100F075FDFFF749FEEDE72046E9E726
:100E6000B0BDC0465B4552525D204672616D652043
:100E70006C656E677468206572726F720D00000099
:100E80005B4552525D204672616D6520435243209E
:100E9000636865636B206661696C65640D000000C2
:100EA000F0B581B00C4605460126154F304629465F
:100EB00022463B46FFF79BFC0146384600F0D6FF32
:100EC00010A03146224601F0AFF874B1601EC0B2E6
:100ED0000F28274600D31027124E2978304601F0FC
:100EE000A3F87F1E6D1C002FF7D1102C02D90EA085
:100EF00001F09AF80DA001F0F1FA01B0F0BDC04682
:100F0000260300205B54585D2055706C6F6164208F
:100F1000434D443D307825303258204C454E3D25D8
:100F2000643A20001B2600082E2E2E000D00000023
:100F3000B0B50C4605460078087068784870A87807
:100F40008870E878C87028790871A87969792A7A50
:100F5000EB79E37122726171A071687A6072A87A8C
:100F6000A07220460B3029460B310522FFF7DAF834
:100F7000287C207420461130294611310722FFF7C2
:100F8000D1F8287E697EAA7EEB7EE376A276617632
:100F90002076287F697FAA7FEB7FE377A27761774E
:100FA00020772020295C2154681D007F611D08776F
:100FB00022342235062220462946FFF7B3F8B0BD79
:100FC00070B50D4800F02EFE0C4C0125C0262046C1
:100FD00029462A46334600F0ADFA03222046294628
:100FE000334600F0C8FA4021204600F09CFA8021E8
:100FF000204600F098FA70BD120500000004004879
:10100000F0B583B02C4C204600F00CFEFD34204699
:1010100000F008FE0920C60601273046394640F296
:10102000002200F04FFA3046394640F2004200F00C
:1010300049FA02243046214602943A4640F20023FF
:1010400000F078FA00210191032530462A4640F24B
:10105000002300F090FA304621463A4640F2004321
:1010600000F068FA3046019C21462A4640F20043CF
:1010700000F081FAEE4E304600F076FFE1204102AA
:10108000304600F03FFF0821304600F0C5FF042144
:10109000304600F0B9FF0521304600F09DFF1B20CF
:1010A000029900F039FC304600F078FF03480480D4
:1010B0000348048003B0F0BD1105000022030020A6
:1010C0002403002080B500F0DFF980BD10B500F0EA
:1010D000F1F90124204600F0E3F90128FAD00224B6
:1010E000204600F0DDF90128FAD07D20042100F02F
:1010F000A3F90224204600F0D3F90128FAD000F029
:10110000C3F900F0C7F910BDB0B50D460146002087
:1011100041B13AB11C462BB110462A46FFF702F8FE
:1011200025700120B0BD0020704700003C480068D9
:1011300002494118484248417047C04600A7BAB426
:1011400070B5012490B10546FFF7F0FF70B100249F
:10115000074821460A58130E6B546B18DA70160AAA
:101160009E70120C5A70091D1029F3D1204670BDD3
:1011700004FC0008F0B585B00124002843D00546E2
:1011800000F052F800F016F9202000F0C9F8102005
:1011900000F0C6F8042000F0C3F8214E304600F0FD
:1011A000C9F820B100F0C0F800F044F82BE01D4968
:1011B000304600F00FF920B100F0B6F800F03AF830
:1011C00021E00F20C743E819017C0906427C120484
:1011D0005118827C12028918C07C0918F019143049
:1011E00000F0F8F858B93F1DEDD100F09DF800F07F
:1011F00021F801A8FFF7A4FF40B1032403E000F0A9
:1012000093F800F017F8E0B205B0F0BD01A9102284
:101210002846FEF7ABFF08B90446F4E70324F2E7DB
:1012200000FC00080059454B80B58148052100F0BD
:10123000CAFE80BDB0B540F20075E91C7C4C20466A
:1012400000F0B1FEA91C204600F0ADFE691C20464E
:1012500000F0A9FE204640F2007100F0A4FE00F06C
:10126000E5FD0521204600F0B7FEB0BDF0B583B026
:101270001C4602920E4607460A208021FFF780FA9C
:101280000420FFF70AF946B1092539782846FFF707
:1012900082FA761E7F1C002EF7D101200C210190CE
:1012A000FFF779FA0D208021FFF76AFA40F2D07635
:1012B0001A4F0425300407D0761E2846FFF764F93C
:1012C0008006800FF6D000E03E460D20FFF7E5F8DF
:1012D0000027300405D00620FFF756F91B210842ED
:1012E00002D0384603B0F0BD029F8FB194B10A20FE
:1012F000FFF74AF9207078B1002609252846FFF744
:1013000043F9B855761C20788642F7D3019FE8E769
:10131000019FE6E7019FE4E7019FE2E7FFFF00008E
:10132000234908607047C0463848016880220A4354
:1013300002607047F0B581B005460F2004042046D6
:1013400000F016F808B101B0F0BD304E3068022749
:101350003843306075603068402101433160204679
:1013600000F006F83168B943316001B0F0BDC04605
:1013700070B5441E0025641E2E466E4100F008F82C
:10138000012801D1002EF6D1012800D1052070BD21
:1013900007480168C90707D10168C90606D4006873
:1013A0004108022008407047012070470420704720
:1013B0000C2002400448C168090603D503490160B6
:1013C000034901607047C04604200240230167457D
:1013D000AB89EFCDF0B581B00C4605460F20060471
:1013E0003046FFF7C5FF08B101B0F0BD07490868F6
:1013F0000127384308602C603046FFF7B9FF034AE5
:101400001168B943116001B0F0BDC0461020024020
:1014100070B50446C1B2064D284600F09FFD054E4A
:101420002846314600F0C7FD0028F9D0204670BD9F
:101430000038014007070000B0B502461F4B1748AF
:1014400018601F48186059600D4901200D46DC687E
:10145000044015B16D1C002CF9D1604260415CB9AB
:10146000084C22409A600222DC68144011B1491CE9
:10147000002CF9D104B1002008B105491960B0BDB4
:101480000200F0FFFF0F00000C48014901607047A7
:10149000AAAA00000948014901607047CCCC0000AD
:1014A000034909680140481E814108467047C0460B
:1014B0000C30004001480249016070470030004094
:1014C00055550000F0B582B00191016A0090446A60
:1014D00000252E4603E02D1D761C082E0AD0174647
:1014E000F740FF07F7D0019FAF400F23AB40994370
:1014F0003943F0E70825002603E0361D6D1C102D4A
:101500000AD01346EB40DB07F7D0019BB3400F270F
:10151000B740BC431C43F0E700980162446202B04C
:10152000F0BD816270478161704700690840411ECB
:1015300088417047F0B582B0019305680090C0689B
:101540000026374603E0B61C7F1C102F0ED0019BEF
:10155000FB40DB07F7D01346B3400324B440A0435D
:1015600018430B46B340A5431D43ECE700990D60BB
:10157000C86002B0F0BDF0B581B0012902D1416868
:10158000194301E04168994341600090816800245B
:101590000320264603E0A41C761C102E0AD01F460A
:1015A000F740FF07F7D01746A7400546A540A943D7
:1015B0003943F0E70098816001B0F0BD70B57C4C14
:1015C00080212046FFF7AFFF002640252046294610
:1015D000FFF7A9FF00F00EF820462946FFF7A1FF0C
:1015E00000F008F8701C082E0646EFD300F0A8F8AB
:1015F00070BDC04681B040F2E83000900098411EB6
:1016000000910028FAD101B07047000080B540B1C8
:1016100006480178491C0170C8B2032804D3FFF7BB
:10162000CDFF02480021017080BDC0461601002098
:10163000F0B585B001905E4880210391FFF773FFFC
:101640000026402002903446594F04943846029CAC
:101650002146FFF768FFFFF7CDFF38460399FFF7F4
:1016600064FF054638462146FFF75BFF681E85414B
:10167000049840004419FFF7BDFF701C072E064672
:10168000E3D34B4E0198802118B13046FFF749FF54
:1016900002E03046FFF747FFFFF7ACFF402530463A
:1016A0002946FFF740FFFFF7A5FF30462946FFF721
:1016B00038FFE0B205B0F0BDF0B581B004460026B9
:1016C0003B4D80200090402716E028460099FFF708
:1016D00028FFFFF78FFF28463946FFF724FFFFF763
:1016E00089FF28463946FFF71CFF6400FFF782FF99
:1016F000701C072E064607D260B20028E5D52846A2
:101700000099FFF710FFE4E701B0F0BD70B5284C79
:10171000802620463146FFF706FF40252046294611
:10172000FFF701FFFFF766FF20463146FFF7F9FE9E
:10173000FFF760FF20462946FFF7F3FE70BDC04665
:10174000B0B51B4C802520462946FFF7EAFE402114
:101750002046FFF7E8FEFFF74DFF20462946FFF73A
:10176000E2FEFFF747FFB0BD70B5114C8025204663
:101770002946FFF7D8FEFFF73DFF40212046FFF73F
:10178000D2FEFFF737FF002620462946FFF7CDFEA1
:1017900038B1701CC82E0646F6D3FFF7D1FF0120E2
:1017A00070BD40212046FFF7BCFE002070BDC04642
:1017B0000004004888B000F0DDFAFFF721FCFFF7D5
:1017C000FFFB2B4800F08AFE2AA000F087FE32A023
:1017D00036A139A200F028FC3AA000F07FFE05A84F
:1017E00000F052FB42A000F01FFC0025424C05A86F
:1017F000415D204600F018FC6D1C0C2DF7D13FA078
:1018000000F06CFEFFF792FC88B101A8FFF798FC8E
:101810003B4800F009FC0025374C01A8415D2046FB
:1018200000F002FC6D1C102DF7D134A000E035480B
:1018300000F054FEFEF73CFEFEF726FE20B1014606
:10184000314800F0F1FB02E0304800F047FEFFF7BE
:10185000A7F9FFF73BFC2E4800F040FE2D4800F0B2
:101860003DFEFFF72FFCFFF7DDFAFFF7EBF9F8E796
:10187000D825000820204744333245323330202B0E
:1018800020464D3137363232205246494420537972
:101890007374656D0D00000020204275696C643A18
:1018A0002025732025730D0A000000004D6179206A
:1018B000323620323032360031343A30383A303332
:1018C000000000003D3D3D3D3D3D3D3D3D3D3D3D3C
:1018D0003D3D3D3D3D3D3D3D3D3D3D3D3D3D3D3D38
:1018E0003D3D3D3D3D3D3D3D3D3D3D3D0D0000000F
:1018F0005B5549445D2000001B2600080D000000D8
:101900000426000849250008FC240008A125000839
:10191000212500087825000810B50446FFF734F8A3
:101920002046FFF723F810BD034A0A40024303484C
:101930000260BFF34F8F704780FFFF1F08ED00E08C
:1019400041487047B0B53F4D2978062918D88A001C
:1019500001A39A189746C04600F00CB800F014B8DE
:1019600000F022B800F025B800F02DB800F039B82A
:1019700000F03DB80124A52831D12C702046B0BD1F
:101980000020287001242AE00124A52827D05A2805
:1019900040D12E4800210170022028702A48FE21E3
:1019A000FEF7D9FB2046B0BD0321297026490870F7
:1019B00039E02549487058B3FB282FD30020287000
:1019C00003242046B0BD21490A781F4B9C18A07003
:1019D000501C08705978C0B20124884216D22046A3
:1019E000B0BD0002FC21184A505206201AE0FC2229
:1019F00015498B5A03438B52084600F029F8002101
:101A00002970414241414C002046B0BD052002E012
:101A1000052007E0002028702046B0BD0B480021BB
:101A200001700420287001242046B0BD10B505487F
:101A3000002404700448FE21FEF78DFB0348047067
:101A400010BDC04623010020240100201501002004
:101A5000B0B5B0B1044611485A214170A5210170BA
:101A6000217881706178C170617861B1A21C002118
:101A7000535C45182B71491C63789942F8D3081DB3
:101A800002E00020B0BD042081B20448FEF7E0FB74
:101A9000FC21615A411A48424841B0BD140000205F
:101AA000F0B581B00246544B18680C2101405348F0
:101AB0000829044618D119688902090F0F2901D095
:101AC0008C1C00E010241D682D0101D511310C463D
:101AD0001968C90301D44A4905E0996A0F250D40E8
:101AE000691CB0FBF1F14C431D6818681968052AA0
:101AF0001ED800902D062D0F42A77F5D2546FD4084
:101B00008904490F43A77E5C2946F140960001A055
:101B10008019874600F00AB800F00CB800F00CB845
:101B200000F066B800F00FB800F016B821465FE08C
:101B300000215DE029465BE000984005400F385CDD
:101B4000C540294654E0D86AC0051CD4D86AC003F1
:101B50002ED5334801B0F0BDD86A800748D0D86A86
:101B6000032210400128214642D0D86A104048F292
:101B7000000102283CD0D86A104003281F4800D03A
:101B8000002001B0F0BD1A68D86A1204920F9300C9
:101B900001A4E3189F46C04600F006B800F00BB859
:101BA00000F00DB800F011B8002812D449081FE069
:101BB0001A4801B0F0BD00280FD4890818E00028A9
:101BC0000FD40620B1FBF0F112E000280DD4C908B3
:101BD0000EE00320B5FBF0F10AE00520B5FBF0F1C3
:101BE00006E00720B5FBF0F102E00920B5FBF0F1BB
:101BF000084601B0F0BDC0460410024000127A0051
:101C000000093D0000000000000000000102030484
:101C1000060708090000000001020304809FD500A8
:101C2000003FAB011F21014001228A4080090C497D
:101C300043581343435070471F21014001228A40FB
:101C40008009074943589343435070471F2101407F
:101C500001228A4080090249435813434350704788
:101C600000100240034909680140481E81410846AE
:101C70007047C0461800014070B583B0374B9A1CBE
:101C80003748011F0C6814430C60012254040D688E
:101C90005E1E9E4202D225403346F8D00B68234296
:101CA00000D1FEE72F4C256802231D430526B543CE
:101CB0002560046890252543056004680460046875
:101CC00004600468284D254005601D24240405682F
:101CD0002543056012060C6814430C600A689201E3
:101CE000FCD5016802910321029A8A43029202996B
:101CF00019430291029901600C2102680A40082AE6
:101D0000FBD10022019201997F2905D80199491C34
:101D1000019101998029F9D301680091F021009B7C
:101D20008B4300938023009C1C430094009B036022
:101D30000192019A7F2A05D8019A521C0192019AB8
:101D4000802AF9D302680092009A8A43009200998F
:101D500000910099016003B070BDC046FEFF000015
:101D60000410024000200240FFFFC27780B5FFF759
:101D700083FF80BD80B50748006840F2E831B0FBC2
:101D8000F1F0FEF757FD00B1FEE70020FEF71CFE64
:101D900080BDC0460400002070B5E8B30C46D9B33E
:101DA00005460078207068786070A878A070E878A0
:101DB000E07028792071A87969792A7AEB79E37142
:101DC00022726171A071687A6072A87AA07220464E
:101DD0000B3029460B3106263246FEF7A3F9204682
:101DE0001130294611310722FEF79CF9687E297EC1
:101DF000EA7EAB7EA376E2762176607620461C30C2
:101E000029461C313246FEF78DF922342235204610
:101E100029463246FEF786F970BD00003648008834
:101E200036490988401AC0B27047C0463248008817
:101E3000324908807047C04630490888304A105CF3
:101E40000A88521CD2B20A807047C046B0B501461B
:101E50004F4C204600F082F8034D2046294600F002
:101E6000AAF80028F9D0B0BD07070000B0B548B106
:101E70000C4639B105462878FFF7E8FF641E6D1C53
:101E8000002CF8D1B0BD000010B5C0B10C490A68F3
:101E90004B688968C172C3711C0A84711C0C44713F
:101EA0001B0E0371C270130A8370130C4370120E61
:101EB00002700A0A82720A0C4272090E017210BD87
:101EC000ACF7FF1F10B5324C0A49204600F08DF8E0
:101ED00070B1204600F03EF807490A88521CD2B281
:101EE000064B1B889A4203D00B88054CE0540A80AD
:101EF00010BDC04605000507220300202403002072
:101F000022020020B0B50D4604462148844204D088
:101F10002048844205D1022000E00520FFF7C0FDE3
:101F200000E000202168090406D469084018B0FBCD
:101F3000F5F080B2E060B0BD690840004018B0FB29
:101F4000F5F0034901400007400F4018E060B0BDC4
:101F5000F0FF0000416A034808407047014A0A4008
:101F600082627047FF01000010B50949884204D021
:101F70000849884208D1084C00E0044C2046FFF78D
:101F800065FE2046FFF758FE10BDC0460E03000058
:101F900000380140004400401104000001680122A3
:101FA0000A43026070471F220A4001219140026AE1
:101FB0000A43026270471F220A4089090958D1402A
:101FC0000120084070471F220A40012393408909DD
:101FD0000A589A430A5070471F220A40012393402F
:101FE00089090A581A430A5070471F220A400B04F5
:101FF0009B0D1B58D3408A0D1258C802C00EC24018
:102000001A40012010407047026804239A4302607E
:1020100002680A4302607047026808239A4302601C
:1020200002680A43026070470FB410B503A9044B5D
:10203000044A029800F018F810BC08BC04B0184715
:10204000111400080000002002E008C8121F08C197
:10205000002AFAD170477047002001E001C1121F29
:10206000002AFBD170470000FFB591B00F4605462E
:10207000002606E025280AD0149A139990476D1C73
:10208000761C28780028F5D1304615B0F0BD002424
:1020900000940121F34A029400E004436D1C2B7864
:1020A0000846203B98401042F7D128782A280ED0C5
:1020B000022128780246303A092A15D8009A0A23C4
:1020C0005A43303A80180C436D1C0090F1E701CF61
:1020D0000090002805DA01204003044300984042A4
:1020E0000090022004436D1C28782E2815D104206E
:1020F000044368786D1C2A280AD101CF6D1C029018
:102100000BE002990A225143303940186D1C0290AD
:102110002878014630390929F3D928786C2810D05D
:1021200006DC4C281AD068280ED06A2817D104E0A3
:10213000742813D07A2812D110E0012040050443FE
:102140000CE00121090501E0032109050C43697830
:10215000814203D10120000524186D1C6D1C2878D4
:1021600003906E281ED00CDC632831D004DC0028DC
:102170008AD0582811D1B2E064287BD069280CD1CC
:1021800078E073282DD004DC6F2870D0702804D13B
:10219000A7E075286CD078286BD0149A13999047D3
:1021A000761C62E06002400F022807D003280AD0A4
:1021B000042838680AD006603F1D56E03868F117D9
:1021C00006604160F8E738680680F5E70670F3E7D7
:1021D0003878694608740020487404A803900120E8
:1021E00003E0386803900020C0433F1D61070FD50E
:1021F000002101E00199491C029A0191914213DAF0
:102200008142F7DB019A0399895C0029F2D10BE046
:10221000002101E00199491C01918142FADB019AF8
:102220000399895C0029F5D101990098139A401A05
:1022300000902146149B00F03BF901998019461843
:1022400007E0039803990078491C0391149A1399A5
:1022500090470198401E0190401CF2D12146149BEA
:10226000139A009800F014F986196D1C09E741E0F3
:1022700033E034E00A200021049005916002410F10
:10228000022905D001CFC2179446032905D007E0E3
:10229000FF1DFF08FF0003CF06E000B2C2179446FF
:1022A000042902D140B2C1178C46002261469445F0
:1022B00006DA0A460021404291418C462D2102E077
:1022C000210504D52B216A461176012103E0E1079F
:1022D00001D02021F7E7019154E00A200BE0102003
:1022E00009E01020049000210420044308200591F7
:1022F000029003E008200021059104906002410F44
:10230000022905D001CF00229446032906D006E019
:10231000FF1DFF08FF0003CF8C4603E080B20429B5
:1023200000D1C0B20021019121072BD5039970295A
:1023300006D0049A1021059B4A401A4305D00EE0AE
:1023400040216A461176012108E06146014306D02A
:1023500030216A4611760399517602210191049A3F
:102360000821059B4A401A430CD16146014301D123
:10237000610707D530216A46117601210191029942
:10238000491E02910399582904D037A103910FA93E
:102390000F910DE039A1F9E76146059B049AFDF71D
:1023A000F2FE039B8C469B5C0F9A521E0F92137099
:1023B00061460143F0D10F9807A9081A2030039015
:1023C000600704D5012000048443029801E0012045
:1023D00002900399884201DD401A00E00020411874
:1023E0000290019809180098401A0090E00306D462
:1023F0002146149B139A009800F05AF88619002081
:10240000049008E006A9085C149A13999047049870
:10241000401C761C049001998842F3DBE0030CD544
:102420002146149B139A009800F042F8861904E0A4
:10243000149A302013999047761C0299481E0290F6
:102440000029F5DC08E00F980F990078491C0F91DE
:10245000149A13999047761C0399481E03900029FB
:10246000F1DCFBE6092801003031323334353637F0
:1024700038396162636465660000000030313233D0
:102480003435363738394142434445460000000070
:10249000F8B5044600251E461746880404D405E016
:1024A00039462020B0476D1C641EF9D52846F8BD7A
:1024B000FFB50446002581B01E46C80301D530276C
:1024C00000E02027880404D505E038460399B0478A
:1024D0006D1C641EF9D5284605B0F0BD10B5044644
:1024E00001E0FEF795FF2078641C03490028F8D12D
:1024F0000A20FEF78DFF10BD000000205B464D3125
:10250000373632325D2056657273696F6E3A20300D
:1025100078253032582C20496E6974204F4B0D0AB3
:10252000005B5744545D205761746368646F672093
:10253000656E61626C656420283230306D73207482
:10254000696D656F7574290D005B4B45595D204EB3
:102550006F742073746F726564207965742C2077B2
:10256000616974696E6720666F7220646F776E6C44
:102570006F61642E2E2E0D000D0A53797374656DF4
:102580002072656164792E2057616974696E6720D5
:10259000666F7220636F6D6D616E64732E2E2E0DEB
:1025A000005B464D31373632325D20436F6D6D75BD
:1025B0006E69636174696F6E204641494C454421E0
:1025C00020436865636B2049324320636F6E6E65FC
:1025D0006374696F6E2E0D000D0A3D3D3D3D3D3D1E
:1025E0003D3D3D3D3D3D3D3D3D3D3D3D3D3D3D3D1B
:1025F0003D3D3D3D3D3D3D3D3D3D3D3D3D3D3D3D0B
:102600003D3D0D005B4B45595D20416C7265616439
:10261000792073746F7265643A2000253032582037
:10262000005B524649445D205265616420746167D5
:102630002064617461206661696C6564202861753D
:102640007468206F722072656164206572726F72A7
:10265000290D005B524649445D20416E7469636FE9
:102660006C6C206661696C65640D005B5246494480
:102670005D2053656C656374206661696C65640DEB
:10268000005B524649445D20436172642072656D6F
:102690006F7665640D000000B82600080000002079
:1026A0000800000048200008C0260008080000209C
:1026B00020080000582000080000000000A24A0482
:04000005080000CD22
:00000001FF
